:100000000C94D2000C94EF000C94EF000C94EF00D1
:100010000C94EF000C9427020C94EF000C945D01FB
:100020000C94EF000C94EF000C94EF000C94EF0094
:100030000C94EF000C94EF000C94EF000C94EF0084
:100040000C94F1000C94EF000C94EF000C94EF0072
:100050000C94EF000C94EF000C94EF000C94EF0064
:100060000C94EF000C94EF00FF80808080808080F3
:100070008080808080808094FC7C3C1C0C0484C444
:10008000E4F48080808C8032806088A8904028D002
:10009000082078B048E0A0F068D85010C030187040
:1000A00098B8C8808386898C8F9295989C9FA2A5CA
:1000B000A8ABAEB0B3B6B9BCBFC1C4C7C9CCCED172
:1000C000D3D5D8DADCDEE0E2E4E6E8EAECEDEFF006
:1000D000F2F3F5F6F7F8F9FAFBFCFCFDFEFEFFFF84
:1000E000FFFFFFFFFFFFFFFFFFFEFEFDFCFCFBFA33
:1000F000F9F8F7F6F5F3F2F0EFEDECEAE8E6E4E212
:10010000E0DEDCDAD8D5D3D1CECCC9C7C4C1BFBC00
:10011000B9B6B3B0AEABA8A5A29F9C9895928F8CB0
:10012000898683807C797673706D6A6763605D5AB7
:100130005754514F4C494643403E3B383633312E9D
:100140002C2A272523211F1D1B1917151312100FE9
:100150000D0C0A090807060504030302010100004B
:10016000000000000000000000010102030304057C
:10017000060708090A0C0D0F1012131517191B1D7D
:100180001F212325272A2C2E313336383B3E40436E
:1001900046494C4F5154575A5D6063676A6D70739E
:1001A00076797C0011241FBECFEFD4E0DEBFCDBF37
:1001B00011E0A0E0B1E0E4E2FDE302C005900D92A1
:1001C000A233B107D9F711E0A2E3B1E001C01D925B
:1001D000AD3DB107E1F70E94560A0C94901E0C94B5
:1001E00000001F920F920FB60F9211241F932F93AE
:1001F0003F934F935F938F939F93AF93BF93EF93EF
:10020000FF93DF93CF9300D00F92CDB7DEB78091ED
:100210003201813009F03CC0209196013091970164
:1002200040919801509199018091A8019091A90164
:10023000A091AA01B091AB01820F931FA41FB51F1B
:100240008093960190939701A0939801B0939901A0
:100250008091960190919701A0919801B091990198
:100260008B2F9927AA27BB278093640187E490E00E
:1002700020916401222F30E02D553F4F3A8329838E
:1002800029813A81F90114911B832B81FC01208380
:100290002396DEBFCDBFCF91DF91FF91EF91BF914C
:1002A000AF919F918F915F914F913F912F911F91AE
:1002B0000F900FBE0F901F9018951F920F920FB6C0
:1002C0000F9211242F933F934F935F936F937F93DC
:1002D0008F939F93AF93BF93EF93FF93DF93CF934E
:1002E000CDB7DEB72091660130916701409168017A
:1002F000509169018091CD019091CE01A091CF01E3
:10030000B091D00182179307A407B507A8F42091F4
:1003100066013091670140916801509169018091B7
:10032000C2019091C301A091C401B091C5012817E9
:1003300039074A075B0720F080913301813051F47F
:1003400088E290E028E230E0F90120812062FC019F
:10035000208309C088E290E028E230E0F9012081A2
:100360002F7DFC012083809134018130D9F52091CB
:100370006601309167014091680150916901809157
:10038000D3019091D401A091D501B091D601281745
:1003900039074A075B0730F5209166013091670104
:1003A00040916801509169018091A0019091A10153
:1003B000A091A201B091A30182179307A407B507EA
:1003C00088F48091D801813019F481E00E94190AE3
:1003D00088E290E028E230E0F90120812061FC0110
:1003E00020830CC080E00E94190A88E290E028E295
:1003F00030E0F90120812F7EFC01208380E00E9403
:1004000004048091660190916701A0916801B09108
:1004100069010196A11DB11D80936601909367014A
:10042000A0936801B0936901CF91DF91FF91EF91A3
:10043000BF91AF919F918F917F916F915F914F91FC
:100440003F912F910F900FBE0F901F9018951F9204
:100450000F920FB60F9211248F939F93AF93BF9378
:10046000EF93FF93DF93CF93CDB7DEB788E690E0AD
:10047000FC0110828091650180939A0181E0809354
:10048000BA018091600190916101A0916201B091E7
:1004900063014496A11DB11D8093BE019093BF01DD
:1004A000A093C001B093C101CF91DF91FF91EF9173
:1004B000BF91AF919F918F910F900FBE0F901F90A2
:1004C0001895DF93CF930F92CDB7DEB7F89481E6FE
:1004D00090E020E8FC01208381E690E0FC0110829E
:1004E00084E490E021E8FC01208385E490E021E0B1
:1004F000FC0120838EE690E02EE630E0F9012081B9
:100500002160FC01208380EB90E022E0FC0120834D
:1005100081EB90E024E0FC01208380E790E020E77D
:1005200030E0F90120812260FC01208383EB90E020
:1005300029EFFC0120838AE790E02AE730E0F90107
:1005400020812468FC0120838CE790E020E6FC01F8
:1005500020838BE690E021E0FC0120838DE690E093
:100560002FE9FC0120838AE290E02AE230E0F901E1
:1005700020812064FC01208387E290E027E230E0C4
:10058000F90120812062FC01208387E290E027E2CC
:1005900030E0F90120812061FC01208387E290E0B6
:1005A00027E230E0F90120812D7FFC01208388E2E1
:1005B00090E028E230E0F90120812D7FFC012083CA
:1005C0008AE290E02AE230E0F9012081277FFC01F5
:1005D00020838BE290E02BE230E0F901208128605B
:1005E000FC0120838AE290E02AE230E0F9012081D8
:1005F0002F7EFC0120838BE290E02BE230E0F901BA
:1006000020812061FC0120838AE290E02AE230E030
:10061000F90120812B7FFC0120838BE290E02BE20B
:1006200030E0F90120812460FC0120838AE290E01F
:100630002AE230E0F90120812D7FFC0120838BE24A
:1006400090E02BE230E0F90120812260FC01208360
:1006500084E290E024E230E0F90120812E7FFC0169
:10066000208385E290E025E230E0F90120812160DD
:10067000FC0120838AE290E02AE230E0F901208147
:100680002F77FC0120838BE290E02BE230E0F90130
:1006900020812068FC0120838AE290E02AE230E099
:1006A000F90120812E7FFC0120838BE290E02BE278
:1006B00030E0F90120812160FC01208384E290E098
:1006C00024E230E0F90120812E62FC0120838CE4D9
:1006D00090E029E5FC0120838DE490E0FC0180811D
:1006E00089838EE490E0FC018081898384E690E038
:1006F00024E630E0F90120812068FC01208384E6B3
:1007000090E024E630E0F90120812260FC012083A2
:1007100081E080936A0181E08093BA0181E0809357
:100720009F01109266011092670110926801109269
:1007300069018FE390E0FC018081882F90E0827056
:1007400090700097B1F780E090E00E94811D809347
:10075000CC018091CC010E94EC038CE09FE1A1E1EF
:10076000B5E08093A4019093A501A093A601B09356
:10077000A70180EE99E8A6EDB0E08093C8019093C0
:10078000C901A093CA01B093CB018091A4019091BB
:10079000A501A091A601B091A701BC01CD0140E047
:1007A0000E9480098091A4019091A501A091A601C9
:1007B000B091A701BC01CD0141E00E94350968E577
:1007C00072E080E090E00E942F0A1092D8017894A5
:1007D0000F90CF91DF910895DF93CF930F92CDB714
:1007E000DEB789838981282F30E080EB94E0B9015E
:1007F0000E94D3199B01C90190936C0180936B01F6
:100800000F90CF91DF910895DF93CF930F92CDB7E3
:10081000DEB789838981813001F5109248011092F9
:10082000470110924A011092490110924C01109216
:100830004B0110924E0110924D01109250011092F6
:100840004F011092520110925101109254011092D6
:100850005301109256011092550189E290E0FC017B
:100860008081882F90E0887090700097A9F4809123
:100870004701909148018530910548F480914701E6
:1008800090914801019690934801809347011092FE
:100890004C0110924B0114C080914B0190914C017E
:1008A0008530910548F480914B0190914C0101965F
:1008B00090934C0180934B01109248011092470194
:1008C00089E290E0FC018081882F90E08071907037
:1008D0000097A9F48091490190914A0185309105D2
:1008E00048F48091490190914A01019690934A0100
:1008F0008093490110924E0110924D0114C08091D5
:100900004D0190914E018530910548F480914D0143
:1009100090914E01019690934E0180934D0110925B
:100920004A01109249018091470190914801853018
:10093000910518F081E08093C60180914B01909160
:100940004C018530910510F01092C601809149014B
:1009500090914A018530910518F081E08093B601AD
:1009600080914D0190914E018530910510F01092CB
:10097000B60189E290E0FC018081882F90E08470CC
:1009800090700097A1F489E290E0FC018081882FAB
:1009900090E082709070009751F480915301909193
:1009A00054010196909354018093530125C0809186
:1009B0005301909154018530910560F0809153016D
:1009C00090915401F3E080329F0720F481E08093FE
:1009D000B8010EC0809153019091540123E0803200
:1009E000920720F082E08093B80102C01092B80113
:1009F000109254011092530189E290E0FC01808131
:100A0000882F90E084709070009751F480914F018E
:100A10009091500101969093500180934F0125C011
:100A200080914F01909150018530910560F0809147
:100A30004F0190915001F3E080329F0720F481E054
:100A40008093B9010EC080914F019091500123E035
:100A50008032920720F082E08093B90102C01092A8
:100A6000B9011092500110924F0189E290E0FC010F
:100A70008081882F90E082709070009751F480916F
:100A8000510190915201019690935201809351012E
:100A900025C080915101909152018530910560F0FF
:100AA0008091510190915201F3E080329F0720F430
:100AB00081E08093B7010EC0809151019091520165
:100AC00023E08032920720F082E08093B70102C0D9
:100AD0001092B701109252011092510189E290E0F8
:100AE000FC018081882F90E081709070009751F414
:100AF00080915501909156010196909356018093F3
:100B0000550125C080915501909156018530910580
:100B100060F08091550190915601F3E080329F077B
:100B200020F481E08093BD010EC080915501909129
:100B3000560123E08032920720F082E08093BD01CD
:100B400002C01092BD01109256011092550183E22D
:100B500090E0FC018081882F90E081709070009778
:100B6000A9F480915701909158018530910548F47E
:100B7000809157019091580101969093580180936C
:100B8000570110925A011092590114C080915901D5
:100B900090915A018530910548F4809159019091C6
:100BA0005A01019690935A0180935901109258016D
:100BB0001092570189E290E0FC0180818823ACF01B
:100BC00080915B0190915C018530910548F48091A2
:100BD0005B0190915C01019690935C0180935B01B5
:100BE00010925E0110925D0114C080915D019091A0
:100BF0005E018530910548F480915D0190915E0120
:100C0000019690935E0180935D0110925C011092B9
:100C10005B0180915701909158018530910518F042
:100C200081E080935F018091590190915A01853054
:100C3000910510F010925F0180915B0190915C0131
:100C40008530910518F081E08093D70180915D0196
:100C500090915E018530910510F01092D70180913E
:100C60004701909148010097C1F48091490190910A
:100C70004A01009791F480914F01909150010097A3
:100C800061F48091510190915201009731F480916B
:100C9000530190915401009719F010920A0103C07A
:100CA00081E080930A010F90CF91DF910895DF9347
:100CB000CF9300D0CDB7DEB79A83898389819A819B
:100CC0000E945D1B8091D1019091D20129813A81CE
:100CD000B9010E94561B8091BA0180936A018091EC
:100CE000BE019091BF01A091C001B091C10180935C
:100CF000AC019093AD01A093AE01B093AF01809190
:100D00009A018093B00181E08093BA0182E08093E0
:100D10009A010F900F90CF91DF910895DF93CF93B9
:100D200000D000D000D0CDB7DEB78AE090E00E94BE
:100D3000081A9A8389838AE790E02AE730E0D9018C
:100D40002C912064FC0120838AE790E0DC018C91E7
:100D5000882F90E0807490700097B1F789E790E059
:100D6000FC018081882F90E09C838B834B815C8188
:100D70002DE930E0429FC001439F900D529F900D9E
:100D80001124892F99279E838D838D819E812AE04E
:100D900030E0B9010E94BF199B01F9018D819E814C
:100DA0002AE030E0B9010E94BF199C018DB79EB7BF
:100DB00008970FB6F8949EBF0FBE8DBF8DB79EB734
:100DC000019649815A81DC014D935C934BE051E0DF
:100DD000DC0113965C934E931297DC011596FC93FD
:100DE000EE931497FC01378326830E94671B8DB70F
:100DF0009EB708960FB6F8949EBF0FBE8DBF89812F
:100E00009A810E94570689819A810E94A21A269689
:100E10000FB6F894DEBF0FBECDBFCF91DF9108951E
:100E20000F931F93DF93CF9300D0CDB7DEB78FE042
:100E300090E00E94081A9A8389838091C80190915A
:100E4000C901A091CA01B091CB0128EE33E040E086
:100E500050E0BC01CD010E94E619DA01C90124E687
:100E600030E040E050E0BC01CD010E94E619DC0119
:100E7000CB018C018091C8019091C901A091CA0158
:100E8000B091CB0128EE33E040E050E0BC01CD0151
:100E90000E94E619DC01CB012AE030E040E050E09E
:100EA000BC01CD010E94E619DA01C9019C018DB790
:100EB0009EB708970FB6F8949EBF0FBE8DBF8DB733
:100EC0009EB7019649815A81FC015183408341E1DB
:100ED00051E0FC0153834283FC0115830483FC0130
:100EE000378326830E94671B8DB79EB708960FB67F
:100EF000F8949EBF0FBE8DBF89819A810E945706CC
:100F000089819A810E94A21A0F900F90CF91DF9150
:100F10001F910F910895EF92FF920F931F93DF930C
:100F2000CF930F92CDB7DEB78091B801823059F4DC
:100F300081E08093BA0180919A018093B00183E0AF
:100F400080939A0136C08091B901813059F4809123
:100F50009A018093B00184E080939A0181E08093AC
:100F6000BA0127C08091B701813019F40E9410079F
:100F700020C08091B7018230E1F48DE691E021E05C
:100F800030E0B90148E250E00E94711D8091D1012A
:100F90009091D2012DE631E0B9010E94561B81E00B
:100FA0008093BA0180919A018093B00186E080938A
:100FB0009A018091BD01813019F58091060181303F
:100FC00079F41092060184E390E0909308018093F5
:100FD000070185E08093090181E00E94040483C039
:100FE00081E0809306018CE091E09093080180936A
:100FF000070189E18093090181E00E94040473C024
:101000008091BD01823009F06EC08091D8018823A3
:10101000B1F587E290E027E230E0F901208122601B
:10102000FC01208388E290E028E230E0F901208191
:101030002260FC01208381E08093D8018091A4018B
:101040009091A501A091A601B091A7018093B20152
:101050009093B301A093B401B093B5018091B20114
:101060009091B301A091B401B091B501BC01CD0143
:1010700041E00E94350981E00E94040434C087E207
:1010800090E027E230E0F90120812D7FFC012083F0
:1010900088E290E028E230E0F90120812D7FFC0118
:1010A00020831092D8018091B2019091B301A09158
:1010B000B401B091B5018093A4019093A501A093D0
:1010C000A601B093A7018091A4019091A501A091E0
:1010D000A601B091A701BC01CD0140E00E943509F5
:1010E00081E00E940404198280915F01882319F035
:1010F00089818E5F89838091D701882319F0898146
:101100008F5F8983809146019981981709F4A2C065
:1011100080914601869581708093460180914601B9
:10112000282F30E08981882F90E08170907082278D
:1011300093278130910509F04BC02091A401309193
:10114000A5014091A6015091A701809107019091BE
:101150000801CC01A0E0B0E079018A01E81AF90A9F
:101160000A0B1B0BD801C7018093A4019093A50122
:10117000A093A601B093A7012091C8013091C901A5
:101180004091CA015091CB0180910901882F90E0D4
:10119000A0E0B0E079018A01E81AF90A0A0B1B0BFA
:1011A000D801C7018093C8019093C901A093CA01D7
:1011B000B093CB018091A4019091A501A091A601CB
:1011C000B091A701BC01CD0140E00E94350942C0A9
:1011D00080910701909108019C0140E050E08091CE
:1011E000A4019091A501A091A601B091A701820F41
:1011F000931FA41FB51F8093A4019093A501A093F2
:10120000A601B093A70180910901282F30E040E0AA
:1012100050E08091C8019091C901A091CA01B0919C
:10122000CB01820F931FA41FB51F8093C801909319
:10123000C901A093CA01B093CB018091A401909100
:10124000A501A091A601B091A701BC01CD0140E08C
:101250000E9435098981809346010F90CF91DF91DB
:101260001F910F91FF90EF900895DF93CF93CDB72B
:10127000DEB72B970FB6F894DEBF0FBECDBF6F83DE
:10128000788789879A874B878B85813029F480E01E
:1012900090E89A83898304C080E090E49A838983EC
:1012A0008F8198859C013F7389819A81820F931F5A
:1012B0009C838B838F819885A985BA85072E7EE0D4
:1012C000B695A795979587957A95D1F7702D9C013E
:1012D0003F7389819A81820F931F9E838D838B81B7
:1012E0009C810E94D7098D819E810E94D7092B96EF
:1012F0000FB6F894DEBF0FBECDBFCF91DF9108953A
:10130000DF93CF93CDB7DEB72B970FB6F894DEBF40
:101310000FBECDBF6F83788789879A874B878B8570
:10132000813029F480E090E89A83898304C080E0CA
:1013300090E49A8389838F8198859C013F7389818A
:101340009A81820F931F9C838B838F819885A985B7
:10135000BA85072E7EE0B695A795979587957A95DD
:10136000D1F7702D9C013F7389819A81820F931F61
:101370009E838D8380E091E20E94D7098B819C81BE
:101380000E94D7098D819E810E94D70980E090EC50
:101390000E94D70980E090E20E94D7092B960FB6F1
:1013A000F894DEBF0FBECDBFCF91DF910895DF93DC
:1013B000CF9300D0CDB7DEB79A83898385E290E0E2
:1013C00025E230E0F90120812062FC01208385E2E2
:1013D00090E025E230E0F90120812D7FFC0120839F
:1013E0008EE490E029813A81232F3327FC0120836A
:1013F00000008DE490E0FC0180818823D4F78EE426
:1014000090E02981FC01208300008DE490E0FC0144
:1014100080818823D4F785E290E025E230E0F9016D
:1014200020812260FC0120830F900F90CF91DF91EB
:101430000895DF93CF930F92CDB7DEB7898389816B
:10144000813029F480E098E20E94D70904C080E04E
:1014500090E20E94D7090F90CF91DF910895DF931A
:10146000CF9300D000D0CDB7DEB769837A838B836A
:101470009C8389819A81AB81BC8128EC36E142E072
:1014800050E0BC01CD010E94A019DC01CB0180938A
:10149000A8019093A901A093AA01B093AB010F906A
:1014A0000F900F900F90CF91DF9108951F93DF93CE
:1014B000CF93CDB7DEB762970FB6F894DEBF0FBEFD
:1014C000CDBF89E290E00E94081A9093D2018093E8
:1014D000D1018091D1019091D20160E070E049E2A8
:1014E00050E00E94441B8091D1019091D2019093D1
:1014F00037018093360189E290E00E94081A9093A8
:10150000390180933801809138019091390160E070
:1015100070E049E250E00E94441B0E94610219827F
:1015200006C080E00E94040489818F5F89838981DD
:101530008F30B8F38091B601813041F48091C601BB
:10154000882321F481E080939A0102C010929A01CD
:101550008BE191E00E945706F8948091660190918A
:101560006701A0916801B091690180936001909337
:101570006101A0936201B0936301789480919A0114
:10158000882F90E08330910509F42CC684309105B2
:1015900064F481309105F1F0823091050CF084C43F
:1015A000009709F4D5C00C949D198530910511F46C
:1015B0000C943113853091050CF4D5C68630910515
:1015C00011F40C94D4138730910511F40C94461641
:1015D0000C949D1981E0809365018091BA01882F58
:1015E00090E08730910509F44BC08C30910509F4E7
:1015F00088C08130910509F0A4C010923401109286
:10160000320180910A01813019F41092330103C034
:1016100081E0809333018091C601813069F580912A
:10162000600190916101A0916201B0916301019606
:10163000A11DB11D8093A0019093A101A093A201CF
:10164000B093A3018FEF9FEFDC018093D3019093C0
:10165000D401A093D501B093D6018FEF9FEFDC01A9
:101660008093BE019093BF01A093C001B093C101CC
:1016700087E08093BA0168C081E08093BA0164C0BA
:1016800081E08093340181E08093320181E0809396
:1016900033018091C601882341F58CE08093BA0123
:1016A0008091600190916101A0916201B09163010C
:1016B0008C599F4FAF4FBF4F8093BE019093BF0196
:1016C000A093C001B093C10180916001909161012C
:1016D000A0916201B09163018093D3019093D401F2
:1016E000A093D501B093D6012FC08FEF9FEFDC01FF
:1016F0008093D3019093D401A093D501B093D601E8
:1017000023C0109234011092320181E080933301A2
:10171000209160013091610140916201509163011B
:101720008091BE019091BF01A091C001B091C10113
:10173000281739074A075B0730F081E08093BA0128
:1017400003C0000001C000000E948B070C949E198A
:10175000109265010E948B078091BA01882F90E05A
:101760008330910509F4EFC18430910544F4813050
:10177000910571F08230910509F475C192C38430EE
:10178000910509F450C28C30910509F46BC389C3EB
:101790001092340110923201109233018091600155
:1017A00090916101A0916201B09163018093C201A7
:1017B0009093C301A093C401B093C5018091C60169
:1017C000813009F068C08091B601882309F063C0B8
:1017D00081E080936A0182E08093BA0181E0809386
:1017E0009F0180916B0190916C019C0140E050E061
:1017F0008091600190916101A0916201B0916301BB
:10180000820F931FA41FB51F8093BE019093BF0149
:10181000A093C001B093C1018091600190916101DA
:10182000A0916201B09163010196A11DB11D809349
:10183000A0019093A101A093A201B093A301809174
:10184000BE019091BF01A091C001B091C1018093F0
:10185000D3019093D401A093D501B093D601809188
:10186000600190916101A0916201B0916301809348
:10187000CD019093CE01A093CF01B093D0018FEF13
:101880009FEFDC018093C2019093C301A093C40138
:10189000B093C501E7C08091B601813009F06DC0F9
:1018A0008091C601882309F068C081E080936A01B5
:1018B00083E08093BA0181E080939F0120916B01C6
:1018C00030916C01C901880F991F820F931F9C01F1
:1018D00040E050E08091600190916101A09162012F
:1018E000B0916301820F931FA41FB51F8093BE01A7
:1018F0009093BF01A093C001B093C101809160019A
:1019000090916101A0916201B09163010196A11DC6
:10191000B11D8093A0019093A101A093A201B09367
:10192000A3018091BE019091BF01A091C001B0912F
:10193000C1018093D3019093D401A093D501B093BA
:10194000D6018091600190916101A0916201B091F6
:1019500063018093CD019093CE01A093CF01B0930A
:10196000D0018FEF9FEFDC018093C2019093C30100
:10197000A093C401B093C50175C08091C6018130A8
:1019800009F06DC08091B601813009F068C0809186
:101990009F01813009F063C081E080936A0182E099
:1019A0008093BA0183E080939F0180916B019091B5
:1019B0006C019C0140E050E08091600190916101D8
:1019C000A0916201B0916301820F931FA41FB51F04
:1019D0008093BE019093BF01A093C001B093C10159
:1019E0008091600190916101A0916201B0916301C9
:1019F0000196A11DB11D8093A0019093A101A09318
:101A0000A201B093A3018091BE019091BF01A0916A
:101A1000C001B091C1018093D3019093D401A093F0
:101A2000D501B093D6018091600190916101A091A0
:101A30006201B09163018093CD019093CE01A09398
:101A4000CF01B093D0018FEF9FEFDC018093C201F3
:101A50009093C301A093C401B093C50103C081E07A
:101A60008093BA011FC281E08093340181E08093AA
:101A7000320181E080933301209160013091610156
:101A800040916201509163018091BE019091BF012C
:101A9000A091C001B091C10182179307A407B507B7
:101AA00008F045C082E080936A0184E08093BA0127
:101AB00080916B0190916C019C0140E050E080911D
:101AC000600190916101A0916201B0916301820F68
:101AD000931FA41FB51F8093BE019093BF01A093D5
:101AE000C001B093C1018091600190916101A0910A
:101AF0006201B09163018093CD019093CE01A093D8
:101B0000CF01B093D0018091BE019091BF01A0910F
:101B1000C001B091C1018C599F4FAF4FBF4F80930F
:101B2000C2019093C301A093C401B093C5018091F9
:101B3000B601813039F480919F01813019F483E03E
:101B400080939F01AFC1209160013091610140916C
:101B50006201509163018091BE019091BF01A091FB
:101B6000C001B091C10182179307A407B50708F01F
:101B700045C083E080936A0184E08093BA0180913C
:101B80006B0190916C019C0140E050E080916001FC
:101B900090916101A0916201B0916301820F931F46
:101BA000A41FB51F8093BE019093BF01A093C001F5
:101BB000B093C1018091600190916101A091620197
:101BC000B09163018093CD019093CE01A093CF019A
:101BD000B093D0018091BE019091BF01A091C0014E
:101BE000B091C1018C599F4FAF4FBF4F8093C2013D
:101BF0009093C301A093C401B093C5018091C60125
:101C0000813039F480919F01813019F482E0809312
:101C10009F0181E08093340181E08093320181E073
:101C2000809333013FC12091600130916101409167
:101C30006201509163018091BE019091BF01A0911A
:101C4000C001B091C10182179307A407B50708F03E
:101C5000E2C080919F01823009F05DC082E08093F4
:101C6000BA0180916B0190916C019C0140E050E0C1
:101C70008091600190916101A0916201B091630136
:101C8000820F931FA41FB51F8093BE019093BF01C5
:101C9000A093C001B093C101809160019091610156
:101CA000A0916201B09163010196A11DB11D8093C5
:101CB000A0019093A101A093A201B093A3018091F0
:101CC000BE019091BF01A091C001B091C10180936C
:101CD000D3019093D401A093D501B093D601809104
:101CE000600190916101A0916201B09163018093C4
:101CF000CD019093CE01A093CF01B093D0018FEF8F
:101D00009FEFDC018093C2019093C301A093C401B3
:101D1000B093C5017AC080919F01833009F062C001
:101D200083E08093BA0120916B0130916C01C9016D
:101D3000880F991F820F931F9C0140E050E0809113
:101D4000600190916101A0916201B0916301820FE5
:101D5000931FA41FB51F8093BE019093BF01A09352
:101D6000C001B093C1018091600190916101A09187
:101D70006201B09163010196A11DB11D8093A00184
:101D80009093A101A093A201B093A3018091BE0101
:101D90009091BF01A091C001B091C1018093D30186
:101DA0009093D401A093D501B093D60180916001A6
:101DB00090916101A0916201B09163018093CD0186
:101DC0009093CE01A093CF01B093D0018FEF9FEFFE
:101DD000DC018093C2019093C301A093C401B0932E
:101DE000C50113C081E08093BA0180916001909198
:101DF0006101A0916201B09163018093BE01909353
:101E0000BF01A093C001B093C10184E080936A0137
:101E100081E080939F018091C601813061F48091BF
:101E20006A01833041F480919F01813021F482E086
:101E300080939F010FC08091B601813059F4809149
:101E40006A01823039F480919F01813019F483E076
:101E500080939F01109234011092320181E08093AF
:101E6000330120C0109234011092320110923301DC
:101E700020916001309161014091620150916301B4
:101E80008091BE019091BF01A091C001B091C101AC
:101E900082179307A407B50718F481E08093BA016D
:101EA00001C000000C949E198091BA01882F90E027
:101EB0008430910544F4823091050CF034C18130B6
:101EC000910531F08CC1873091050CF088C167C154
:101ED00020913601309137018091D1019091D2014A
:101EE00028173907C9F480913A018823A9F4809111
:101EF000360190913701FC018081882F90E0809716
:101F000088599F4F9B838A838A819B81FC0114910E
:101F10001C838C8180933A0180913A01882309F4D3
:101F2000CEC080913A01803829F080913A018F3FEC
:101F300009F079C080913A01803821F520916B0138
:101F400030916C01C901880F991F820F931F9C016A
:101F500040E050E08091600190916101A0916201A8
:101F6000B0916301820F931FA41FB51F8093BE0120
:101F70009093BF01A093C001B093C10185E080930D
:101F8000BA0127C020916B0130916C01C901880F03
:101F9000991F880F991F880F991F821B930B9C0113
:101FA00040E050E08091600190916101A091620158
:101FB000B0916301820F931FA41FB51F8093BE01D0
:101FC0009093BF01A093C001B093C10185E08093BD
:101FD000BA018091360190913701019690933701B3
:101FE000809336018091360190913701FC01808108
:101FF000882319F410923A0115C08091360190910E
:102000003701FC018081882F90E0809788599F4F8D
:102010009E838D838D819E81FC0114911F838F810E
:1020200080933A014BC080913A01882324F5209196
:102030006B0130916C01C901880F991F820F931FAA
:102040009C0140E050E08091600190916101A0917D
:102050006201B0916301820F931FA41FB51F80938B
:10206000BE019093BF01A093C001B093C10183E072
:102070008093BA011EC080916B0190916C019C010C
:1020800040E050E08091600190916101A091620177
:10209000B0916301820F931FA41FB51F8093BE01EF
:1020A0009093BF01A093C001B093C10182E08093DF
:1020B000BA0180913A01880F80933A0133C0809130
:1020C000D1019091D2012EE131E0B90141E050E01F
:1020D0000E943B1B8091D1019091D20190933701D6
:1020E0008093360110923A0168E572E080E090E05A
:1020F0000E942F0A8091B00180939A0180916A0119
:102100008093BA018091AC019091AD01A091AE0194
:10211000B091AF018093BE019093BF01A093C00125
:10212000B093C1015DC02091600130916101409187
:102130006201509163018091BE019091BF01A09115
:10214000C001B091C10182179307A407B507F0F44D
:1021500080916B0190916C019C0140E050E0809176
:10216000600190916101A0916201B0916301820FC1
:10217000931FA41FB51F8093BE019093BF01A0932E
:10218000C001B093C10184E08093BA011092340180
:1021900081E08093320181E08093330121C020915E
:1021A0006001309161014091620150916301809121
:1021B000BE019091BF01A091C001B091C1018217F1
:1021C0009307A407B50718F481E08093BA01109231
:1021D00034011092320181E08093330101C000008C
:1021E0000C949E198091BA01882F90E08730910558
:1021F00009F450C08830910509F48DC081309105F3
:1022000009F0AFC08091600190916101A0916201DD
:10221000B09163010196A11DB11D8093A00190931F
:10222000A101A093A201B093A3018FEF9FEFDC0166
:102230008093D3019093D401A093D501B093D6019C
:102240008FEF9FEFDC018093BE019093BF01A093BD
:10225000C001B093C1018091600190916101A09192
:102260006201B09163018093CD019093CE01A09360
:10227000CF01B093D0018FEF9FEFDC018093C201BB
:102280009093C301A093C401B093C50187E08093EC
:10229000BA0167C081E08093340181E0809332010C
:1022A00081E0809333018091C601813061F080919B
:1022B000B601813041F08091B901813021F08091E7
:1022C000B701813039F588E08093BA0180916001CF
:1022D00090916101A0916201B09163018C599F4F6F
:1022E000AF4FBF4F8093BE019093BF01A093C00139
:1022F000B093C1018091600190916101A091620150
:10230000B09163018093D3019093D401A093D50140
:10231000B093D60126C0109234011092320181E0B0
:1023200080933301209160013091610140916201FD
:10233000509163018091BE019091BF01A091C001B5
:10234000B091C101281739074A075B0748F010927E
:10235000330181E08093BA018091650180939A01F5
:1023600000000C949E198091BA01882F90E089306A
:10237000910591F08A30910509F451C081309105A1
:1023800009F066C180E091E090933C0180933B01AD
:1023900089E08093BA0164C182E090E00E94081A4B
:1023A00090933E0180933D0180913D0190913E01CB
:1023B00060E070E042E050E00E94441B80913D01EB
:1023C00090913E0120913B0130913C01B90141E0E7
:1023D00050E00E943B1B8091600190916101A091AF
:1023E0006201B09163018056904FAF4FBF4F809311
:1023F000BE019093BF01A093C001B093C1018AE0D8
:102400008093BA0180913D0190913E010E94570650
:1024100080913D0190913E010E94A21A21C184E168
:1024200090E00E94081A90933901809338018091BE
:1024300038019091390160E070E044E150E00E9481
:10244000441B2091600130916101409162015091E3
:1024500063018091BE019091BF01A091C001B09134
:10246000C101281739074A075B0708F0D7C08091D8
:10247000B901813051F581E00E94040480913B0153
:1024800090913C01019690933C0180933B01809197
:102490003B0190913C01FC018081882391F481E013
:1024A0008093BA018091650180939A0160E971E09F
:1024B00080E090E00E942F0A8FE191E00E94570691
:1024C000C0C089E08093BA01BCC08091B70181305F
:1024D00009F0B6C081E00E94040480913B01909114
:1024E0003C01FC018081882F90E083359105A1F0AB
:1024F000843591054CF48B34910509F46EC0823516
:10250000910509F456C09DC08635910509F45BC05C
:1025100087359105E9F095C0809160019091610146
:10252000A0916201B09163018056904FAF4FBF4FB1
:102530008093BE019093BF01A093C001B093C101ED
:1025400085E080939A0181E291E00E94570679C06C
:1025500081E08093BA018091650180939A01409156
:102560003801509139018091CC01282F30E000D002
:1025700000D000D08DB79EB70196FC0151834083F7
:1025800043E251E0FC0153834283FC013583248301
:102590000E94671B8DB79EB706960FB6F8949EBF34
:1025A0000FBE8DBF80913801909139010E9457066E
:1025B00048C01092BA0187E080939A0181E291E0CD
:1025C0000E9457063EC081E08093BA018091650168
:1025D00080939A010E948E0634C080916501882301
:1025E00079F481E08093650181E08093BA01809164
:1025F000650180939A0186E291E00E94570621C00E
:102600001092650181E08093BA0180916501809309
:102610009A0188E291E00E94570613C081E08093FE
:10262000BA018091650180939A0160E971E080E0D0
:1026300090E00E942F0A8FE191E00E94570601C0AE
:10264000000080913801909139010E94A21A08C0BF
:1026500081E08093BA018091650180939A01000026
:102660006DC62091600130916101409162015091ED
:1026700063018091BE019091BF01A091C001B09112
:10268000C101281739074A075B0708F055C0809138
:10269000B901813031F58091CC01883228F48091E4
:1026A000CC018F5F8093CC018091CC010E94EC0320
:1026B0008091600190916101A0916201B0916301EC
:1026C0008056904FAF4FBF4F8093BE019093BF0194
:1026D000A093C001B093C1018AE291E00E94570625
:1026E00062C08091B701813009F05DC08091CC015A
:1026F000863028F08091CC0181508093CC0180916C
:10270000CC010E94EC038091600190916101A09145
:102710006201B09163018056904FAF4FBF4F8093DD
:10272000BE019093BF01A093C001B093C1018AE2A2
:1027300091E00E94570637C02091CC0180E090E0E4
:10274000622F0E94AB1D81E08093BA0180916501E8
:1027500080939A0140913801509139018091CC01C8
:10276000282F30E000D000D000D08DB79EB7019662
:10277000FC015183408343E251E0FC0153834283D7
:10278000FC01358324830E94671B8DB79EB7069694
:102790000FB6F8949EBF0FBE8DBF80913801909107
:1027A00039010E945706CAC58091C601813061F087
:1027B0008091B601813041F08091B901813021F0E2
:1027C0008091B7018130E9F58091D1019091D201DA
:1027D0002EE131E0B90141E050E00E943B1B8091C5
:1027E000D1019091D20190933701809336011092DC
:1027F0003A018091600190916101A0916201B091D4
:1028000063018093C2019093C301A093C401B0936C
:10281000C5018091B00180939A0180916A018093F3
:10282000BA018091AC019091AD01A091AE01B0913F
:10283000AF018093BE019093BF01A093C001B093FC
:10284000C1018091BA01882F90E08430910544F451
:10285000823091050CF0BBC18130910531F014C27A
:10286000873091050CF010C2EFC1209136013091F4
:1028700037018091D1019091D20128173907C9F40D
:1028800080913A018823A9F4809136019091370113
:10289000FC018081882F90E0809788599F4F99870D
:1028A000888788859985FC0114911A878A85809389
:1028B0003A0180913A01882309F44BC180913A0191
:1028C000803829F080913A018F3F09F079C08091DA
:1028D0003A01803821F520916B0130916C01C901DA
:1028E000880F991F820F931F9C0140E050E0809158
:1028F000600190916101A0916201B0916301820F2A
:10290000931FA41FB51F8093BE019093BF01A09396
:10291000C001B093C10185E08093BA0127C0209126
:102920006B0130916C01C901880F991F880F991FA5
:10293000880F991F821B930B9C0140E050E080910F
:10294000600190916101A0916201B0916301820FD9
:10295000931FA41FB51F8093BE019093BF01A09346
:10296000C001B093C10185E08093BA018091360126
:1029700090913701019690933701809336018091B1
:10298000360190913701FC018081882319F410925F
:102990003A0115C08091360190913701FC01808188
:1029A000882F90E0809788599F4F9C878B878B85D5
:1029B0009C85FC0114911D878D8580933A01C8C0C8
:1029C00080913A0188230CF062C020916B01309114
:1029D0006C01C901880F991F820F931F9C0140E071
:1029E00050E08091600190916101A0916201B091ED
:1029F0006301820F931FA41FB51F8093BE019093A4
:102A0000BF01A093C001B093C10183E08093BA01DC
:102A10008091600190916101A0916201B091630188
:102A20000196A11DB11D8093A0019093A101A093D7
:102A3000A201B093A3018091BE019091BF01A0912A
:102A4000C001B091C1018093D3019093D401A093B0
:102A5000D501B093D6018091600190916101A09160
:102A60006201B09163018093CD019093CE01A09358
:102A7000CF01B093D0018FEF9FEFDC018093C201B3
:102A80009093C301A093C401B093C5015CC0809131
:102A90006B0190916C019C0140E050E080916001DD
:102AA00090916101A0916201B0916301820F931F27
:102AB000A41FB51F8093BE019093BF01A093C001D6
:102AC000B093C10182E08093BA018091600190913E
:102AD0006101A0916201B09163010196A11DB11D38
:102AE0008093A0019093A101A093A201B093A301B0
:102AF0008091BE019091BF01A091C001B091C10130
:102B00008093D3019093D401A093D501B093D601C3
:102B10008091600190916101A0916201B091630187
:102B20008093CD019093CE01A093CF01B093D001BB
:102B30008FEF9FEFDC018093C2019093C301A093BC
:102B4000C401B093C50180913A01880F80933A0186
:102B50003DC08091D1019091D2012EE131E0B901C7
:102B600041E050E00E943B1B8091D1019091D20145
:102B7000909337018093360110923A018091600161
:102B800090916101A0916201B09163018093C201B3
:102B90009093C301A093C401B093C5018091B0018B
:102BA00080939A0180916A018093BA018091AC016F
:102BB0009091AD01A091AE01B091AF018093BE01A3
:102BC0009093BF01A093C001B093C1015EC020915A
:102BD00060013091610140916201509163018091E7
:102BE000BE019091BF01A091C001B091C1018217B7
:102BF0009307A407B507F0F480916B0190916C01E5
:102C00009C0140E050E08091600190916101A091B1
:102C10006201B0916301820F931FA41FB51F8093BF
:102C2000BE019093BF01A093C001B093C10184E0A5
:102C30008093BA0181E08093340181E08093320176
:102C400081E08093330121C02091600130916101C6
:102C500040916201509163018091BE019091BF014A
:102C6000A091C001B091C10182179307A407B507D5
:102C700018F481E08093BA0110923401109232016D
:102C800081E08093330101C0000058C38091BA01F4
:102C9000882F90E08330910509F4E3C184309105D9
:102CA0005CF48130910509F44CC0823091050CF040
:102CB0008EC1009771F03FC38B30910509F4B4C207
:102CC0008C30910509F410C38430910509F413C2C6
:102CD00032C38091600190916101A0916201B09135
:102CE00063018093CD019093CE01A093CF01B09367
:102CF000D0018FEF9FEFDC018093C2019093C3015D
:102D0000A093C401B093C50110923F0110924001FD
:102D10008FEF9FEFDC018093410190934201A093DC
:102D20004301B0934401809138019091390160E0F2
:102D300070E049E250E00E94441B81E08093BA01B8
:102D4000FBC28091C601813009F04BC08091B60171
:102D5000882309F046C081E080936A0182E0809375
:102D6000BA0181E080939F0180916B0190916C0189
:102D70009C0140E050E08091600190916101A09140
:102D80006201B0916301820F931FA41FB51F80934E
:102D9000BE019093BF01A093C001B093C101809187
:102DA000600190916101A0916201B091630188512D
:102DB0009C4FAF4FBF4F8093410190934201A0932E
:102DC0004301B0934401809140018F5F80934001A3
:102DD00080914001863008F4D3C08BE080939F013E
:102DE000CFC08091B601813009F062C08091C601E8
:102DF000882309F05DC081E080936A0183E08093BD
:102E0000BA0181E080939F0120916B0130916C01A8
:102E1000C901880F991F820F931F9C0140E050E069
:102E20008091600190916101A0916201B091630174
:102E3000820F931FA41FB51F8093BE019093BF0103
:102E4000A093C001B093C101809160019091610194
:102E5000A0916201B091630188519C4FAF4FBF4F69
:102E60008093410190934201A0934301B0934401A8
:102E700080914001282F30E080E890E0022E02C0CF
:102E8000959587950A94E2F7982F80913F01890FD5
:102E900080933F01809140018F5F8093400180913A
:102EA0004001863008F46CC08BE080939F0168C0BD
:102EB0008091C601813009F063C08091B6018130F4
:102EC00009F05EC080919F01813009F059C081E016
:102ED00080936A0182E08093BA0183E080939F012E
:102EE00080916B0190916C019C0140E050E08091D9
:102EF000600190916101A0916201B0916301820F24
:102F0000931FA41FB51F8093BE019093BF01A09390
:102F1000C001B093C1018091600190916101A091C5
:102F20006201B091630188519C4FAF4FBF4F8093B6
:102F3000410190934201A0934301B09344018091D9
:102F40004001882F90E09C012F5F3F4F80E890E088
:102F5000022E02C0959587950A94E2F7982F8091EA
:102F60003F01890F80933F01809140018E5F8093E4
:102F7000400180914001863018F08BE080939F01E2
:102F80002091600130916101409162015091630193
:102F90008091410190914201A0914301B09144017F
:102FA00082179307A407B50718F48BE08093BA0142
:102FB0008091B901813019F48CE08093BA011092AC
:102FC00034011092320181E080933301B5C1209128
:102FD00060013091610140916201509163018091E3
:102FE000BE019091BF01A091C001B091C1018217B3
:102FF0009307A407B50708F582E080936A0184E08F
:103000008093BA0180916B0190916C019C0140E02A
:1030100050E08091600190916101A0916201B091B6
:103020006301820F931FA41FB51F8093BE0190936D
:10303000BF01A093C001B093C1018091B60181305E
:1030400039F480919F01813019F483E080939F01CE
:103050001092340181E08093320181E0809333014A
:103060006BC12091600130916101409162015091EA
:1030700063018091BE019091BF01A091C001B09108
:10308000C10182179307A407B50708F583E0809371
:103090006A0184E08093BA0180916B0190916C0188
:1030A0009C0140E050E08091600190916101A0910D
:1030B0006201B0916301820F931FA41FB51F80931B
:1030C000BE019093BF01A093C001B093C101809154
:1030D000C601813039F480919F01813019F482E07A
:1030E00080939F011092340181E08093320181E04E
:1030F0008093330121C120916001309161014091A1
:103100006201509163018091BE019091BF01A09135
:10311000C001B091C10182179307A407B50708F059
:103120005CC080919F018230F9F482E08093BA0103
:1031300080916B0190916C019C0140E050E0809186
:10314000600190916101A0916201B0916301820FD1
:10315000931FA41FB51F8093BE019093BF01A0933E
:10316000C001B093C10133C080919F01833021F52C
:1031700083E08093BA0120916B0130916C01C90109
:10318000880F991F820F931F9C0140E050E08091AF
:10319000600190916101A0916201B0916301820F81
:1031A000931FA41FB51F8093BE019093BF01A093EE
:1031B000C001B093C1010BC080919F018B3021F4FD
:1031C0008BE08093BA0103C081E08093BA0184E070
:1031D00080936A0181E080939F018091C6018130D4
:1031E00061F480916A01833041F480919F018130C4
:1031F00021F482E080939F010FC08091B60181305D
:1032000059F480916A01823039F480919F018130B4
:1032100019F483E080939F011092340110923201DF
:1032200081E08093330188C080914001282F30E0F5
:1032300080E890E0022E02C0959587950A94E2F707
:10324000982F80913F01890F80933F0180E2809306
:1032500045012CC080914501882F90E088599F4FEF
:103260009F878E878E859F85FC011491188B988986
:1032700080913F019817A9F480914501898B1A8AA2
:1032800080913801909139019E012F5E3F4FB90125
:103290000E944B1B10923F011092400181E08093ED
:1032A000BA01809145018F5F80934501809145016E
:1032B0008B3580F280913F01882391F080E88093E4
:1032C0003F011092400181E08093BA0160E971E012
:1032D00080E090E00E942F0A8FE191E00E94570663
:1032E00081E08093BA0128C088E391E021E030E0DA
:1032F000B90148E250E00E94891D809160019091DF
:103300006101A0916201B09163018093C201909329
:10331000C301A093C401B093C5011092330181E0B1
:103320008093BA018091650180939A0181E291E0D6
:103330000E94570601C0000001C000000C94AC0AB6
:10334000629FD001739FF001829FE00DF11D649F89
:10335000E00DF11D929FF00D839FF00D749FF00D15
:10336000659FF00D9927729FB00DE11DF91F639FB6
:10337000B00DE11DF91FBD01CF0111240895AA1B55
:10338000BB1B51E107C0AA1FBB1FA617B70710F050
:10339000A61BB70B881F991F5A95A9F78095909582
:1033A000BC01CD01089597FB092E07260AD077FDB1
:1033B00004D0E5DF06D000201AF4709561957F4FA8
:1033C0000895F6F7909581959F4F0895A1E21A2EE2
:1033D000AA1BBB1BFD010DC0AA1FBB1FEE1FFF1FB9
:1033E000A217B307E407F50720F0A21BB30BE40B09
:1033F000F50B661F771F881F991F1A9469F7609550
:103400007095809590959B01AC01BD01CF01089509
:10341000CF93DF938230910510F482E090E0E09149
:10342000DB01F091DC0140E050E020E030E026C01C
:103430006081718168177907E0F06817790781F476
:10344000828193812115310531F0D90113969C9326
:103450008E9312972BC09093DC018093DB0126C0E2
:103460004115510519F06417750718F4AB01E9010E
:10347000DF019F0172816381E72FF62F3097C1F63C
:103480004115510501F1481B590B4430510580F499
:1034900012968D919C911397209719F09B838A83A4
:1034A00004C09093DC018093DB01FD01329646C09D
:1034B000FD01E40FF51F8193919342505040119606
:1034C0005C934E933BC02091D9013091DA012115D4
:1034D000310541F420912E0130912F013093DA0112
:1034E0002093D9012091300130913101211531050E
:1034F00041F42DB73EB740912C0150912D01241B72
:10350000350BE091D901F091DA01E217F307A0F44D
:103510002E1B3F0B2817390778F0AC014E5F5F4F29
:103520002417350748F04E0F5F1F5093DA01409380
:10353000D9018193919302C0E0E0F0E0CF01DF91E7
:10354000CF910895CF93DF93009709F491C0FC01C8
:103550003297138212826091DB017091DC01611558
:10356000710581F420813181280F391F8091D901A3
:103570009091DA018217930799F5F093DA01E093BD
:10358000D90176C0DB0180E090E002C0CD01D90115
:10359000AE17BF0748F412962D913C911397211551
:1035A0003105A1F7CD0121C0B383A283EF01499179
:1035B00059919E01240F351FA217B30779F42D915D
:1035C0003C911197240F351F2E5F3F4F318320838D
:1035D00012962D913C91139733832283009729F4FF
:1035E000F093DC01E093DB0143C0DC011396FC9314
:1035F000EE9312974D915D91A40FB51FEA17FB074B
:1036000069F420813181240F351F2E5F3F4FEC017B
:1036100039832883228133813B832A83E0E0F0E0F1
:1036200002C0FB01BC01DB0112968D919C911397A6
:103630000097B9F79B012E5F3F4F8D919C91119799
:10364000820F931F4091D9015091DA014817590711
:1036500079F4309729F41092DC011092DB0102C05A
:1036600013821282225030403093DA012093D90124
:10367000DF91CF910895FB01DC0102C001900D9212
:1036800041505040D8F70895DC0101C06D9341507E
:103690005040E0F70895FB01DC010D900020E9F7B0
:1036A000119701900D920020E1F70895FB01DC01D4
:1036B00001900D920020E1F70895DC016C916156B4
:1036C0006A3108F0605E6F5B6D93C1F70895AEE0FC
:1036D000B0E0EDE6FBE10C94671E0D891E8986E0E3
:1036E0008C831A8309838FEF9FE79E838D839E01CE
:1036F000275E3F4FCE0101966F89788DA9010E9408
:103700008A1BEF81F885E00FF11F10822E96E4E00E
:103710000C94831EACE0B0E0E0E9FBE10C94591E90
:103720006C011B018A01FC0117821682838181FFD3
:10373000D1C12E010894411C511CF6019381F10165
:1037400093FD859193FF81911F01882309F4BEC1E8
:10375000853239F493FD859193FF81911F01853264
:1037600029F490E0B6010E94CF1DE7CFEE24FF249C
:1037700020E02032B0F48B3269F08C3228F48032B1
:1037800051F0833271F40BC08D3239F0803349F43B
:1037900021602CC02260246029C0286027C02061DD
:1037A00025C027FD2CC0382F30533A3098F426FF1F
:1037B00008C08E2D880FE82EEE0CEE0CE80EE30EFE
:1037C00015C08F2D880FF82EFF0CFF0CF80EF30E8E
:1037D00020620CC08E3221F426FD78C1206406C020
:1037E0008C3611F4206802C0883649F4F10193FD4B
:1037F000859193FF81911F01882309F0BACF982FFB
:103800009554933018F09052933028F40C5F1F4F6A
:10381000FFE3F9830DC0833631F0833771F08335D0
:1038200009F060C022C0F801808189830E5F1F4FBC
:10383000420171E0A72EB12C16C062E0662E712CF9
:10384000600E711EF8018080918026FF03C06E2DEE
:1038500070E002C06FEF7FEFC4012C870E94C41D8F
:103860005C0183012C852F7717C052E0652E712CE7
:10387000600E711EF8018080918026FF03C06E2DBE
:1038800070E002C06FEF7FEFC4012C870E94B91D6A
:103890005C012C852068830123FD20C008C080E2E4
:1038A00090E0B6012C870E94CF1DFA942C858F2DB5
:1038B00090E0A816B90698F311C0F40127FD859190
:1038C00027FF81914F0190E0B6012C870E94CF1D08
:1038D0002C85F110FA940894A108B108A114B10440
:1038E00061F7F1C0843611F0893649F527FF08C029
:1038F000F80160817181828193810C5F1F4F09C043
:10390000F80160817181882777FD8095982F0E5F7F
:103910001F4F4FE6B42EB22297FF09C090958095B5
:10392000709561957F4F8F4F9F4FF0E8BF2AA2019E
:103930002AE030E00E94FB1D782E741845C08537C0
:1039400031F43FEEB32EB2222AE030E025C099EFE9
:10395000B92EB2228F36C1F0803720F4883509F0B5
:10396000B5C00DC0803721F0883709F0AFC002C064
:1039700020E1B22AB4FE0BC084E0B82A08C0B4FE2D
:1039800009C0E6E0BE2A06C028E030E005C020E11C
:1039900030E002C020E132E0B7FE08C0F8016081EB
:1039A0007181828193810C5F1F4F07C0F801608194
:1039B000718180E090E00E5F1F4FA2010E94FB1D0D
:1039C000782E7418FFE7BF22B6FE0BC02EEFB2228E
:1039D0007E1438F4B4FE07C0B2FC05C08FEEB822E6
:1039E00002C0A72C01C0AE2C8B2D90E0B4FE0DC000
:1039F000FE01E70DF11D2081203319F4E9EEBE220E
:103A000009C0A394B2FE06C004C0867890700097E7
:103A100009F0A3948B2C9924B3FC14C0B0FE0FC002
:103A2000AF1428F4E72CEF0CEA18AF2C08C0E72CF1
:103A300006C080E290E0B6010E94CF1DA394AF14AF
:103A4000C0F304C0AF1410F4FA1801C0FF2484FEC0
:103A50000FC080E390E0B6010E94CF1D82FE1FC020
:103A600081FE03C088E590E010C088E790E00DC0BB
:103A7000C40186789070009791F081FC02C080E2CA
:103A800001C08BE2B7FC8DE290E0B6010E94CF1D31
:103A900006C080E390E0B6010E94CF1DEA947E1438
:103AA000C0F37A94F201E70DF11D808190E0B60138
:103AB0000E94CF1D7720A9F706C080E290E0B601F2
:103AC0000E94CF1DFA94FF20C1F737CEF601268160
:103AD000378102C02FEF3FEFC9012C96E2E10C9431
:103AE000751EDC01CB01FC01F999FECF06C0F2BDC9
:103AF000E1BDF89A319600B40D9241505040B8F7AC
:103B00000895F999FECF92BD81BDF89A992780B5A5
:103B10000895DC01A40FB51F4150504048F0CB017F
:103B2000840F951F2E910E949A1D41505040D0F74E
:103B30000895262FF999FECF92BD81BDF89A01977D
:103B400000B4021639F01FBA20BD0FB6F894FA9AE5
:103B5000F99A0FBE0895262FF999FECF1FBA92BD8C
:103B600081BD20BD0FB6F894FA9AF99A0FBE01965E
:103B70000895FC010590615070400110D8F78095C0
:103B800090958E0F9F1F0895FC0161507040019029
:103B90000110D8F7809590958E0F9F1F08950F9371
:103BA0001F93CF93DF938C01EB018B8181FF1BC0AF
:103BB00082FF0DC02E813F818C819D81281739079E
:103BC00064F4E881F9810193F983E88306C0E8850C
:103BD000F985802F0995009731F48E819F81019698
:103BE0009F838E8302C00FEF1FEFC801DF91CF913B
:103BF0001F910F910895FA01AA27283051F1203121
:103C000081F1E8946F936E7F6E5F7F4F8F4F9F4F70
:103C1000AF4FB1E03ED0B4E03CD0670F781F891FB2
:103C20009A1FA11D680F791F8A1F911DA11D6A0F80
:103C3000711D811D911DA11D20D009F468943F9133
:103C40002AE0269F11243019305D3193DEF6CF0132
:103C50000895462F4770405D4193B3E00FD0C9F7F8
:103C6000F6CF462F4F70405D4A3318F0495D31FD65
:103C70004052419302D0A9F7EACFB4E0A6959795B8
:103C8000879577956795BA95C9F70097610571058E
:103C900008959B01AC010A2E0694579547953795D8
:103CA0002795BA95C9F7620F731F841F951FA01D32
:103CB00008952F923F924F925F926F927F928F92D0
:103CC0009F92AF92BF92CF92DF92EF92FF920F93AB
:103CD0001F93CF93DF93CDB7DEB7CA1BDB0B0FB6B5
:103CE000F894DEBF0FBECDBF09942A883988488872
:103CF0005F846E847D848C849B84AA84B984C88408
:103D0000DF80EE80FD800C811B81AA81B981CE0FFE
:103D1000D11D0FB6F894DEBF0FBECDBFED010895E3
:043D2000F894FFCF45
:103D2400535752564B00010C011901256452256466
:103D34000025303275522530327500434300005857
:103D44000052002564005300500049002000DD01AA
:023D540000006D
:00000001FF
