:100000000C94D2000C94EF000C94EF000C94EF00D1
:100010000C94EF000C9427020C94EF000C945D01FB
:100020000C94EF000C94EF000C94EF000C94F10092
:100030000C94EF000C94EF000C94EF000C94EF0084
:100040000C94EF000C94EF000C94EF000C94EF0074
:100050000C94EF000C94EF000C94EF000C94EF0064
:100060000C94EF000C94EF00FF80808080808080F3
:100070008080808080808094FC7C3C1C0C0484C444
:10008000E4F48080808C8032806088A8904028D002
:10009000082078B048E0A0F068D85010C030187040
:1000A00098B8C8808386898C8F9295989C9FA2A5CA
:1000B000A8ABAEB0B3B6B9BCBFC1C4C7C9CCCED172
:1000C000D3D5D8DADCDEE0E2E4E6E8EAECEDEFF006
:1000D000F2F3F5F6F7F8F9FAFBFCFCFDFEFEFFFF84
:1000E000FFFFFFFFFFFFFFFFFFFEFEFDFCFCFBFA33
:1000F000F9F8F7F6F5F3F2F0EFEDECEAE8E6E4E212
:10010000E0DEDCDAD8D5D3D1CECCC9C7C4C1BFBC00
:10011000B9B6B3B0AEABA8A5A29F9C9895928F8CB0
:10012000898683807C797673706D6A6763605D5AB7
:100130005754514F4C494643403E3B383633312E9D
:100140002C2A272523211F1D1B1917151312100FE9
:100150000D0C0A090807060504030302010100004B
:10016000000000000000000000010102030304057C
:10017000060708090A0C0D0F1012131517191B1D7D
:100180001F212325272A2C2E313336383B3E40436E
:1001900046494C4F5154575A5D6063676A6D70739E
:1001A00076797C0011241FBECFEFD4E0DEBFCDBF37
:1001B00011E0A0E0B1E0EAE9FEE302C005900D9293
:1001C000A233B107D9F711E0A2E3B1E001C01D925B
:1001D000A23EB107E1F70E94B30A0C944B1F0C94A6
:1001E00000001F920F920FB60F9211241F932F93AE
:1001F0003F934F935F938F939F93AF93BF93EF93EF
:10020000FF93DF93CF9300D00F92CDB7DEB78091ED
:100210003201813009F03CC0209196013091970164
:1002200040919801509199018091A8019091A90164
:10023000A091AA01B091AB01820F931FA41FB51F1B
:100240008093960190939701A0939801B0939901A0
:100250008091960190919701A0919801B091990198
:100260008B2F9927AA27BB278093640187E490E00E
:1002700020916401222F30E02D553F4F3A8329838E
:1002800029813A81F90114911B832B81FC01208380
:100290002396DEBFCDBFCF91DF91FF91EF91BF914C
:1002A000AF919F918F915F914F913F912F911F91AE
:1002B0000F900FBE0F901F9018951F920F920FB6C0
:1002C0000F9211242F933F934F935F936F937F93DC
:1002D0008F939F93AF93BF93EF93FF93DF93CF934E
:1002E000CDB7DEB72091660130916701409168017A
:1002F000509169018091D1019091D201A091D301D7
:10030000B091D40182179307A407B507A8F42091F0
:1003100066013091670140916801509169018091B7
:10032000C6019091C701A091C801B091C9012817D9
:1003300039074A075B0720F080913301813051F47F
:1003400088E290E028E230E0F90120812062FC019F
:10035000208309C088E290E028E230E0F9012081A2
:100360002F7DFC012083809134018130D9F52091CB
:100370006601309167014091680150916901809157
:10038000D7019091D801A091D901B091DA01281735
:1003900039074A075B0730F5209166013091670104
:1003A00040916801509169018091A0019091A10153
:1003B000A091A201B091A30182179307A407B507EA
:1003C00088F48091DC01813019F481E00E94760A82
:1003D00088E290E028E230E0F90120812061FC0110
:1003E00020830CC080E00E94760A88E290E028E238
:1003F00030E0F90120812F7EFC01208380E00E9403
:1004000019048091660190916701A0916801B091F3
:1004100069010196A11DB11D80936601909367014A
:10042000A0936801B0936901CF91DF91FF91EF91A3
:10043000BF91AF919F918F917F916F915F914F91FC
:100440003F912F910F900FBE0F901F9018951F9204
:100450000F920FB60F9211248F939F93AF93BF9378
:10046000EF93FF93DF93CF93CDB7DEB788E690E0AD
:10047000FC0110828091650180939A0181E0809354
:10048000BC018091600190916101A0916201B091E5
:1004900063014496A11DB11D8093C2019093C301D5
:1004A000A093C401B093C501CF91DF91FF91EF916B
:1004B000BF91AF919F918F910F900FBE0F901F90A2
:1004C0001895DF93CF930F92CDB7DEB7F89481E6FE
:1004D00090E020E8FC01208381E690E0FC0110829E
:1004E00084E490E021E8FC01208385E490E021E0B1
:1004F000FC01208381E890E029E0FC01208380E872
:1005000090E0FC01108288E890E028EE33E0FC01E6
:10051000318320838FE690E022E0FC01208380EB92
:1005200090E022E0FC01208381EB90E024E0FC01DC
:10053000208380E790E020E730E0F901208122600D
:10054000FC01208383EB90E029EFFC0120838AE704
:1005500090E02AE730E0F90120812468FC01208343
:100560008CE790E020E6FC0120838BE690E021E020
:10057000FC0120838DE690E02FE9FC0120838AE2D4
:1005800090E02AE230E0F90120812064FC01208320
:1005900087E290E027E230E0F90120812062FC014F
:1005A000208387E290E027E230E0F901208120619A
:1005B000FC01208387E290E027E230E0F90120810E
:1005C0002D7FFC01208388E290E028E230E0F901F1
:1005D00020812D7FFC0120838AE290E02AE230E036
:1005E000F9012081277FFC0120838BE290E02BE240
:1005F00030E0F90120812860FC0120838AE290E04C
:100600002AE230E0F90120812F7EFC0120838BE279
:1006100090E02BE230E0F90120812061FC01208391
:100620008AE290E02AE230E0F90120812B7FFC0190
:1006300020838BE290E02BE230E0F90120812460FE
:10064000FC0120838AE290E02AE230E0F901208177
:100650002D7FFC0120838BE290E02BE230E0F9015A
:1006600020812260FC01208384E290E024E230E0DB
:10067000F90120812E7FFC01208385E290E025E2B4
:1006800030E0F90120812160FC0120838AE290E0C2
:100690002AE230E0F90120812F77FC0120838BE2F0
:1006A00090E02BE230E0F90120812068FC012083FA
:1006B0008AE290E02AE230E0F90120812E7FFC01FD
:1006C00020838BE290E02BE230E0F9012081216071
:1006D000FC01208384E290E024E230E0F9012081F3
:1006E0002E62FC0120838CE490E029E5FC0120834C
:1006F0008DE490E0FC01808189838EE490E0FC0130
:100700008081898384E690E024E630E0F90120814D
:100710002068FC01208384E690E024E630E0F901C3
:1007200020812260FC01208381E080936A0181E0C6
:100730008093BC0181E080939F011092660110922A
:10074000670110926801109269018FE390E0FC014B
:100750008081882F90E0827090700097B1F780E0E0
:1007600090E00E943C1E8093D0018091D0010E94B5
:1007700001048CE09FE1A1E1B5E08093A401909396
:10078000A501A093A601B093A70180EE99E8A6ED7C
:10079000B0E08093CC019093CD01A093CE01B093B3
:1007A000CF018091A4019091A501A091A601B091E3
:1007B000A701BC01CD0140E00E94DD098091A401A8
:1007C0009091A501A091A601B091A701BC01CD0116
:1007D00041E00E94920988E592E09093B3018093F2
:1007E000B2018091B2019091B301CC01A0E0B0E0E0
:1007F000BC01CD010E948C0A78940F90CF91DF91BB
:100800000895DF93CF930F92CDB7DEB789838981A7
:10081000282F30E080EB94E0B9010E948E1A9B01F2
:10082000C90190936C0180936B010F90CF91DF9180
:100830000895DF93CF930F92CDB7DEB78983898177
:10084000813001F5109248011092470110924A013F
:100850001092490110924C0110924B0110924E01DE
:1008600010924D011092500110924F0110925201BE
:10087000109251011092540110925301109256019E
:100880001092550189E290E0FC018081882F90E070
:10089000887090700097A9F4809147019091480169
:1008A0008530910548F48091470190914801019667
:1008B000909348018093470110924C0110924B0194
:1008C00014C080914B0190914C018530910548F402
:1008D00080914B0190914C01019690934C01809333
:1008E0004B01109248011092470189E290E0FC010F
:1008F0008081882F90E0807190700097A9F480919A
:10090000490190914A018530910548F4809149014F
:1009100090914A01019690934A0180934901109267
:100920004E0110924D0114C080914D0190914E01E5
:100930008530910548F480914D0190914E010196CA
:1009400090934E0180934D0110924A0110924901FB
:1009500080914701909148018530910518F081E020
:100960008093CA0180914B0190914C018530910593
:1009700010F01092CA018091490190914A0185308E
:10098000910518F081E08093B80180914D0190911C
:100990004E018530910510F01092B80189E290E087
:1009A000FC018081882F90E0847090700097A1F402
:1009B00089E290E0FC018081882F90E08270907045
:1009C000009751F4809153019091540101969093B6
:1009D00054018093530125C080915301909154019B
:1009E0008530910560F08091530190915401F1E0C0
:1009F000843F9F0720F481E08093BA010EC080916C
:100A000053019091540121E0843F920720F082E04D
:100A10008093BA0102C01092BA0110925401109250
:100A2000530189E290E0FC018081882F90E084707E
:100A30009070009751F480914F0190915001019670
:100A40009093500180934F0125C080914F01909168
:100A500050018530910560F080914F0190915001D7
:100A6000F1E0843F9F0720F481E08093BB010EC03A
:100A700080914F019091500121E0843F920720F036
:100A800082E08093BB0102C01092BB011092500122
:100A900010924F0189E290E0FC018081882F90E064
:100AA00082709070009751F48091510190915201A1
:100AB0000196909352018093510125C0809151017C
:100AC000909152018530910560F080915101909193
:100AD0005201F1E0843F9F0720F481E08093B90147
:100AE0000EC0809151019091520121E0843F920704
:100AF00020F082E08093B90102C01092B9011092F7
:100B000052011092510189E290E0FC018081882F0E
:100B100090E081709070009751F480915501909110
:100B200056010196909356018093550125C08091FE
:100B30005501909156018530910560F080915501E5
:100B400090915601F1E0843F9F0720F481E080936B
:100B5000C1010EC0809155019091560121E0843F62
:100B6000920720F082E08093C10102C01092C1017F
:100B7000109256011092550183E290E0FC018081B1
:100B8000882F90E0817090700097A9F480915701B0
:100B9000909158018530910548F4809157019091CA
:100BA00058010196909358018093570110925A0171
:100BB0001092590114C08091590190915A018530C9
:100BC000910548F48091590190915A0101969093B2
:100BD0005A0180935901109258011092570189E2ED
:100BE00090E0FC0180818823ACF080915B019091C2
:100BF0005C018530910548F480915B0190915C0126
:100C0000019690935C0180935B0110925E011092BB
:100C10005D0114C080915D0190915E018530910568
:100C200048F480915D0190915E01019690935E0180
:100C300080935D0110925C0110925B0180915701DD
:100C4000909158018530910518F081E080935F0103
:100C50008091590190915A018530910510F01092C0
:100C60005F0180915B0190915C018530910518F0E6
:100C700081E08093DB0180915D0190915E01853080
:100C8000910510F01092DB0180914701909148018D
:100C90000097C1F48091490190914A01009791F425
:100CA00080914F0190915001009761F48091510122
:100CB00090915201009731F4809153019091540129
:100CC000009719F010920A0103C081E080930A0195
:100CD0000F90CF91DF910895DF93CF9300D000D094
:100CE0000F92CDB7DEB79A8389837C836B834D8364
:100CF00089819A810E94181C8091D5019091D6011A
:100D000029813A81B9010E94111C8091BC01809314
:100D10006A018091C2019091C301A091C401B09178
:100D2000C5018093AC019093AD01A093AE01B09347
:100D3000AF0180919A018093B0018091B2019091AE
:100D4000B3019093C0018093BF018B819C819093EC
:100D5000B3018093B2018091D0018093DD018D8138
:100D60008093D0018091B2019091B301CC01A0E0B9
:100D7000B0E0BC01CD010E948C0A8091D0010E949C
:100D8000010481E08093BC0182E080939A010F907E
:100D90000F900F900F900F90CF91DF910895DF93F8
:100DA000CF9300D000D000D0CDB7DEB78AE090E07E
:100DB0000E94C31A9A8389838AE790E02AE730E089
:100DC000D9012C912064FC0120838AE790E0DC01AA
:100DD0008C91882F90E0807490700097B1F789E72C
:100DE00090E0FC018081882F90E09C838B834B8175
:100DF0005C812DE930E0429FC001439F900D529FDE
:100E0000900D1124892F99279E838D838D819E813A
:100E10002AE030E0B9010E947A1A9B01F9018D8124
:100E20009E812AE030E0B9010E947A1A9C018DB7B8
:100E30009EB708970FB6F8949EBF0FBE8DBF8DB7B3
:100E40009EB7019649815A81DC014D935C934BE03A
:100E500051E0DC0113965C934E931297DC011596DA
:100E6000FC93EE931497FC01378326830E94221C87
:100E70008DB79EB708960FB6F8949EBF0FBE8DBF74
:100E80002091B2013091B3014091D00189819A81C2
:100E9000B9010E946C0689819A810E945D1B269689
:100EA0000FB6F894DEBF0FBECDBFCF91DF9108958E
:100EB0000F931F93DF93CF9300D0CDB7DEB78FE0B2
:100EC00090E00E94C31A9A8389838091CC0190910B
:100ED000CD01A091CE01B091CF0128EE33E040E0EA
:100EE00050E0BC01CD010E94A11ADA01C90124E63B
:100EF00030E040E050E0BC01CD010E94A11ADC01CD
:100F0000CB018C018091CC019091CD01A091CE01BB
:100F1000B091CF0128EE33E040E050E0BC01CD01BC
:100F20000E94A11ADC01CB012AE030E040E050E051
:100F3000BC01CD010E94A11ADA01C9019C018DB743
:100F40009EB708970FB6F8949EBF0FBE8DBF8DB7A2
:100F50009EB7019649815A81FC015183408341E14A
:100F600051E0FC0153834283FC0115830483FC019F
:100F7000378326830E94221C8DB79EB708960FB632
:100F8000F8949EBF0FBE8DBF2091B2013091B30186
:100F90004091D00189819A81B9010E946C068981B2
:100FA0009A810E945D1B0F900F90CF91DF911F914E
:100FB0000F910895EF92FF920F931F93DF93CF93BA
:100FC0000F92CDB7DEB78091BA01823059F481E03B
:100FD0008093BC0180919A018093B00183E080935B
:100FE0009A0136C08091BB01813059F480919A01F9
:100FF0008093B00184E080939A0181E08093BC01EA
:1010000027C08091B901813019F40E94580720C08F
:101010008091B9018230E1F48DE691E021E030E089
:10102000B90148E250E00E942C1E8091D5019091B8
:10103000D6012DE631E0B9010E94111C81E08093B8
:10104000BC0180919A018093B00186E080939A015F
:101050008091C101813089F5809106018130B1F420
:101060001092060184E390E09093080180930701B9
:1010700085E08093090181E00E9419048BE191E0F1
:1010800060E971E049E10E946C068AC081E08093CA
:1010900006018CE091E0909308018093070189E1BB
:1010A0008093090181E00E9419048BE191E064E8DA
:1010B00073E049E10E946C0673C08091C1018230E7
:1010C00009F06EC08091DC018823B1F587E290E0E1
:1010D00027E230E0F90120812260FC01208388E2D0
:1010E00090E028E230E0F90120812260FC012083B9
:1010F00081E08093DC018091A4019091A501A091F1
:10110000A601B091A7018093B4019093B501A0937B
:10111000B601B093B7018091B4019091B501A0914F
:10112000B601B091B701BC01CD0141E00E94920926
:1011300081E00E94190434C087E290E027E230E0A9
:10114000F90120812D7FFC01208388E290E028E2D4
:1011500030E0F90120812D7FFC0120831092DC0119
:101160008091B4019091B501A091B601B091B70101
:101170008093A4019093A501A093A601B093A70129
:101180008091A4019091A501A091A601B091A70121
:10119000BC01CD0140E00E94920981E00E94190447
:1011A000198280915F01882319F089818E5F89837C
:1011B0008091DB01882319F089818F5F8983809179
:1011C00046019981981709F4A2C08091460186953D
:1011D00081708093460180914601282F30E08981FB
:1011E000882F90E08170907082279327813091053D
:1011F00009F04BC02091A4013091A5014091A601B6
:101200005091A7018091070190910801CC01A0E0C5
:10121000B0E079018A01E81AF90A0A0B1B0BD80120
:10122000C7018093A4019093A501A093A601B09358
:10123000A7012091CC013091CD014091CE01509178
:10124000CF0180910901882F90E0A0E0B0E0790102
:101250008A01E81AF90A0A0B1B0BD801C70180930F
:10126000CC019093CD01A093CE01B093CF0180919A
:10127000A4019091A501A091A601B091A701BC0184
:10128000CD0140E00E94920942C0809107019091F7
:1012900008019C0140E050E08091A4019091A501DB
:1012A000A091A601B091A701820F931FA41FB51FA3
:1012B0008093A4019093A501A093A601B093A701E8
:1012C00080910901282F30E040E050E08091CC016E
:1012D0009091CD01A091CE01B091CF01820F931FCB
:1012E000A41FB51F8093CC019093CD01A093CE0194
:1012F000B093CF018091A4019091A501A091A60186
:10130000B091A701BC01CD0140E00E949209898102
:10131000809346010F90CF91DF911F910F91FF9025
:10132000EF900895DF93CF93CDB7DEB72B970FB62D
:10133000F894DEBF0FBECDBF6F83788789879A8709
:101340004B878B85813029F480E090E89A838983EC
:1013500004C080E090E49A8389838F8198859C0102
:101360003F7389819A81820F931F9C838B838F8126
:101370009885A985BA85072E7EE0B695A79597959D
:1013800087957A95D1F7702D9C013F7389819A8159
:10139000820F931F9E838D838B819C810E94340AD0
:1013A0008D819E810E94340A2B960FB6F894DEBF81
:1013B0000FBECDBFCF91DF910895DF93CF93CDB70F
:1013C000DEB72B970FB6F894DEBF0FBECDBF6F838D
:1013D000788789879A874B878B85813029F480E0CD
:1013E00090E89A83898304C080E090E49A8389839B
:1013F0008F8198859C013F7389819A81820F931F09
:101400009C838B838F819885A985BA85072E7EE082
:10141000B695A795979587957A95D1F7702D9C01EC
:101420003F7389819A81820F931F9E838D8380E011
:1014300091E20E94340A8B819C810E94340A8D8142
:101440009E810E94340A80E090EC0E94340A80E081
:1014500090E20E94340A2B960FB6F894DEBF0FBEBE
:10146000CDBFCF91DF910895DF93CF9300D0CDB75B
:10147000DEB79A83898385E290E025E230E0F901C6
:1014800020812062FC01208385E290E025E230E0AB
:10149000F90120812D7FFC0120838EE490E02981D9
:1014A0003A81232F3327FC01208300008DE490E054
:1014B000FC0180818823D4F78EE490E02981FC012F
:1014C000208300008DE490E0FC0180818823D4F724
:1014D00085E290E025E230E0F90120812260FC0104
:1014E00020830F900F90CF91DF910895DF93CF93DA
:1014F0000F92CDB7DEB789838981813029F480E0EE
:1015000098E20E94340A04C080E090E20E94340A0B
:101510000F90CF91DF910895DF93CF9300D000D04B
:10152000CDB7DEB769837A838B839C8389819A8167
:10153000AB81BC8123E938E144E050E0BC01CD013E
:101540000E945B1ADC01CB018093A8019093A90152
:10155000A093AA01B093AB010F900F900F900F9042
:10156000CF91DF9108951F93DF93CF93CDB7DEB76F
:1015700062970FB6F894DEBF0FBECDBF89E290E050
:101580000E94C31A9093D6018093D5018091D50112
:101590009091D60160E070E049E250E00E94FF1BAC
:1015A0008091D5019091D6019093370180933601B7
:1015B00089E290E00E94C31A909339018093380128
:1015C000809138019091390160E070E049E250E08B
:1015D0000E94FF1B0E946102198206C080E00E94E7
:1015E000190489818F5F898389818F30B8F3809155
:1015F000B801813041F48091CA01882321F481E04F
:1016000080939A0102C010929A012091B201309108
:10161000B3018DE191E0B9014FE00E946C06F894AE
:101620008091660190916701A0916801B091690174
:101630008093600190936101A0936201B093630174
:10164000789480919A01882F90E08330910509F475
:1016500041C68430910564F481309105F1F0823007
:1016600091050CF084C4009709F4D5C00C94581A65
:101670008530910511F40C94D113853091050CF44B
:10168000EAC68630910511F40C94891487309105CF
:1016900011F40C94FB160C94581A81E080936501A8
:1016A0008091BC01882F90E08730910509F44BC0F0
:1016B0008C30910509F488C08130910509F0A4C0EF
:1016C000109234011092320180910A01813019F494
:1016D0001092330103C081E0809333018091CA01ED
:1016E000813069F58091600190916101A091620162
:1016F000B09163010196A11DB11D8093A00190934B
:10170000A101A093A201B093A3018FEF9FEFDC0191
:101710008093D7019093D801A093D901B093DA01B7
:101720008FEF9FEFDC018093C2019093C301A093E0
:10173000C401B093C50187E08093BC0168C081E01B
:101740008093BC0164C081E08093340181E0809388
:10175000320181E0809333018091CA01882341F5F1
:101760008CE08093BC018091600190916101A09117
:101770006201B09163018C599F4FAF4FBF4F80936F
:10178000C2019093C301A093C401B093C50180919D
:10179000600190916101A0916201B0916301809319
:1017A000D7019093D801A093D901B093DA012FC04B
:1017B0008FEF9FEFDC018093D7019093D801A09326
:1017C000D901B093DA0123C0109234011092320192
:1017D00081E080933301209160013091610140915B
:1017E0006201509163018091C2019091C301A09167
:1017F000C401B091C501281739074A075B0730F0CB
:1018000081E08093BC0103C0000001C000000E9481
:10181000DA070C94591A109265010E94DA07809138
:10182000BC01882F90E08330910509F4EFC184302A
:10183000910544F48130910571F08230910509F4ED
:1018400075C192C38430910509F450C28C30910562
:1018500009F46BC389C310923401109232011092C3
:1018600033018091600190916101A0916201B0917A
:1018700063018093C6019093C701A093C801B09300
:10188000C9018091CA01813009F068C08091B80116
:10189000882309F063C081E080936A0182E080932D
:1018A000BC0181E080939F0180916B0190916C015C
:1018B0009C0140E050E08091600190916101A09115
:1018C0006201B0916301820F931FA41FB51F809323
:1018D000C2019093C301A093C401B093C50180914C
:1018E000600190916101A0916201B0916301019644
:1018F000A11DB11D8093A0019093A101A093A2010D
:10190000B093A3018091C2019091C301A091C40141
:10191000B091C5018093D7019093D801A093D901CC
:10192000B093DA018091600190916101A091620110
:10193000B09163018093D1019093D201A093D30120
:10194000B093D4018FEF9FEFDC018093C601909399
:10195000C701A093C801B093C901E7C08091B80145
:10196000813009F06DC08091CA01882309F068C0F8
:1019700081E080936A0183E08093BC0181E08093E1
:101980009F0120916B0130916C01C901880F991F53
:10199000820F931F9C0140E050E080916001909184
:1019A0006101A0916201B0916301820F931FA41F96
:1019B000B51F8093C2019093C301A093C401B0935B
:1019C000C5018091600190916101A0916201B09187
:1019D00063010196A11DB11D8093A0019093A10107
:1019E000A093A201B093A3018091C2019091C30181
:1019F000A091C401B091C5018093D7019093D80103
:101A0000A093D901B093DA018091600190916101B6
:101A1000A0916201B09163018093D1019093D201B2
:101A2000A093D301B093D4018FEF9FEFDC0180939B
:101A3000C6019093C701A093C801B093C90175C0B6
:101A40008091CA01813009F06DC08091B801813068
:101A500009F068C080919F01813009F063C081E086
:101A600080936A0182E08093BC0183E080939F01B0
:101A700080916B0190916C019C0140E050E080915D
:101A8000600190916101A0916201B0916301820FA8
:101A9000931FA41FB51F8093C2019093C301A0930D
:101AA000C401B093C5018091600190916101A09142
:101AB0006201B09163010196A11DB11D8093A00147
:101AC0009093A101A093A201B093A3018091C201C0
:101AD0009091C301A091C401B091C5018093D70139
:101AE0009093D801A093D901B093DA01809160015D
:101AF00090916101A0916201B09163018093D10145
:101B00009093D201A093D301B093D4018FEF9FEFB4
:101B1000DC018093C6019093C701A093C801B093E4
:101B2000C90103C081E08093BC011FC281E08093A2
:101B3000340181E08093320181E080933301209170
:101B40006001309161014091620150916301809187
:101B5000C2019091C301A091C401B091C501821747
:101B60009307A407B50708F045C082E080936A0197
:101B700084E08093BC0180916B0190916C019C0189
:101B800040E050E08091600190916101A09162017C
:101B9000B0916301820F931FA41FB51F8093C201F0
:101BA0009093C301A093C401B093C50180916001DB
:101BB00090916101A0916201B09163018093D10184
:101BC0009093D201A093D301B093D4018091C2012C
:101BD0009091C301A091C401B091C5018C599F4F50
:101BE000AF4FBF4F8093C6019093C701A093C80128
:101BF000B093C9018091B801813039F480919F017F
:101C0000813019F483E080939F01AFC1209160017E
:101C10003091610140916201509163018091C20154
:101C20009091C301A091C401B091C501821793079F
:101C3000A407B50708F045C083E080936A0184E0FB
:101C40008093BC0180916B0190916C019C0140E0FC
:101C500050E08091600190916101A0916201B0918A
:101C60006301820F931FA41FB51F8093C20190933D
:101C7000C301A093C401B093C5018091600190910C
:101C80006101A0916201B09163018093D1019093B1
:101C9000D201A093D301B093D4018091C20190915D
:101CA000C301A091C401B091C5018C599F4FAF4FA2
:101CB000BF4F8093C6019093C701A093C801B09312
:101CC000C9018091CA01813039F480919F0181302E
:101CD00019F482E080939F0181E08093340181E0D8
:101CE0008093320181E0809333013FC120916001F4
:101CF0003091610140916201509163018091C20174
:101D00009091C301A091C401B091C50182179307BE
:101D1000A407B50708F0E2C080919F01823009F066
:101D20005DC082E08093BC0180916B0190916C0159
:101D30009C0140E050E08091600190916101A09190
:101D40006201B0916301820F931FA41FB51F80939E
:101D5000C2019093C301A093C401B093C5018091C7
:101D6000600190916101A0916201B09163010196BF
:101D7000A11DB11D8093A0019093A101A093A20188
:101D8000B093A3018091C2019091C301A091C401BD
:101D9000B091C5018093D7019093D801A093D90148
:101DA000B093DA018091600190916101A09162018C
:101DB000B09163018093D1019093D201A093D3019C
:101DC000B093D4018FEF9FEFDC018093C601909315
:101DD000C701A093C801B093C9017AC080919F0147
:101DE000833009F062C083E08093BC0120916B01D5
:101DF00030916C01C901880F991F820F931F9C01BC
:101E000040E050E08091600190916101A0916201F9
:101E1000B0916301820F931FA41FB51F8093C2016D
:101E20009093C301A093C401B093C5018091600158
:101E300090916101A0916201B09163010196A11D91
:101E4000B11D8093A0019093A101A093A201B09332
:101E5000A3018091C2019091C301A091C401B091EE
:101E6000C5018093D7019093D801A093D901B09375
:101E7000DA018091600190916101A0916201B091BD
:101E800063018093D1019093D201A093D301B093C9
:101E9000D4018FEF9FEFDC018093C6019093C701BF
:101EA000A093C801B093C90113C081E08093BC0125
:101EB0008091600190916101A0916201B0916301F4
:101EC0008093C2019093C301A093C401B093C50154
:101ED00084E080936A0181E080939F018091CA0130
:101EE000813061F480916A01833041F480919F01D7
:101EF000813021F482E080939F010FC08091B8016E
:101F0000813059F480916A01823039F480919F01C7
:101F1000813019F483E080939F0110923401109274
:101F2000320181E08093330120C01092340110927D
:101F30003201109233012091600130916101409192
:101F40006201509163018091C2019091C301A091FF
:101F5000C401B091C50182179307A407B50718F40F
:101F600081E08093BC0101C000000C94591A80915B
:101F7000BC01882F90E08430910544F482309105B3
:101F80000CF049C18130910531F0A1C18730910534
:101F90000CF09DC17CC120913601309137018091B8
:101FA000D5019091D60128173907C9F480913A01DB
:101FB0008823A9F48091360190913701FC0180813A
:101FC000882F90E0809788599F4F9B838A838A81CE
:101FD0009B81FC0114911C838C8180933A01809138
:101FE0003A01882309F4CEC080913A01803829F063
:101FF00080913A018F3F09F079C080913A01803891
:1020000021F520916B0130916C01C901880F991F56
:10201000820F931F9C0140E050E0809160019091FD
:102020006101A0916201B0916301820F931FA41F0F
:10203000B51F8093C2019093C301A093C401B093D4
:10204000C50185E08093BC0127C020916B013091D0
:102050006C01C901880F991F880F991F880F991F5C
:10206000821B930B9C0140E050E0809160019091B5
:102070006101A0916201B0916301820F931FA41FBF
:10208000B51F8093C2019093C301A093C401B09384
:10209000C50185E08093BC018091360190913701A4
:1020A000019690933701809336018091360190918B
:1020B0003701FC018081882319F410923A0115C080
:1020C0008091360190913701FC018081882F90E04A
:1020D000809788599F4F9E838D838D819E81FC01BF
:1020E00014911F838F8180933A014BC080913A01F4
:1020F000882324F520916B0130916C01C901880F70
:10210000991F820F931F9C0140E050E08091600175
:1021100090916101A0916201B0916301820F931FC0
:10212000A41FB51F8093C2019093C301A093C40163
:10213000B093C50183E08093BC011EC080916B0108
:1021400090916C019C0140E050E080916001909181
:102150006101A0916201B0916301820F931FA41FDE
:10216000B51F8093C2019093C301A093C401B093A3
:10217000C50182E08093BC0180913A01880F809371
:102180003A0148C08091D5019091D60120E231E01A
:10219000B90141E050E00E94F61B8091D501909179
:1021A000D601909337018093360110923A018091C5
:1021B000BF019091C0019093B3018093B2018091CF
:1021C000B2019091B301CC01A0E0B0E0BC01CD011F
:1021D0000E948C0A8091DD018093D0018091D00112
:1021E0000E9401048091B00180939A0180916A015C
:1021F0008093BC018091AC019091AD01A091AE01A2
:10220000B091AF018093C2019093C301A093C40128
:10221000B093C5015DC02091600130916101409192
:102220006201509163018091C2019091C301A0911C
:10223000C401B091C50182179307A407B507F0F454
:1022400080916B0190916C019C0140E050E0809185
:10225000600190916101A0916201B0916301820FD0
:10226000931FA41FB51F8093C2019093C301A09335
:10227000C401B093C50184E08093BC011092340185
:1022800081E08093320181E08093330121C020916D
:102290006001309161014091620150916301809130
:1022A000C2019091C301A091C401B091C5018217F0
:1022B0009307A407B50718F481E08093BC0110923E
:1022C00034011092320181E08093330101C000009B
:1022D0000C94591A8091BC01882F90E087309105A9
:1022E00009F450C08830910509F48DC08130910502
:1022F00009F0AFC08091600190916101A0916201ED
:10230000B09163010196A11DB11D8093A00190932E
:10231000A101A093A201B093A3018FEF9FEFDC0175
:102320008093D7019093D801A093D901B093DA019B
:102330008FEF9FEFDC018093C2019093C301A093C4
:10234000C401B093C5018091600190916101A09199
:102350006201B09163018093D1019093D201A09367
:10236000D301B093D4018FEF9FEFDC018093C601BE
:102370009093C701A093C801B093C90187E08093EF
:10238000BC0167C081E08093340181E08093320119
:1023900081E0809333018091CA01813061F08091A6
:1023A000B801813041F08091BB01813021F08091F2
:1023B000B901813039F588E08093BC0180916001DA
:1023C00090916101A0916201B09163018C599F4F7E
:1023D000AF4FBF4F8093C2019093C301A093C4013C
:1023E000B093C5018091600190916101A09162015B
:1023F000B09163018093D7019093D801A093D90144
:10240000B093DA0126C0109234011092320181E0BB
:10241000809333012091600130916101409162010C
:10242000509163018091C2019091C301A091C401B8
:10243000B091C501281739074A075B0748F0109289
:10244000330181E08093BC018091650180939A0102
:1024500000000C94591A8091BC01882F90E08930BB
:10246000910591F08A30910509F458C081309105A9
:1024700009F08EC180E091E090933C0180933B0194
:1024800089E08093BC018CC182E090E00E94C31A75
:1024900090933E0180933D0180913D0190913E01DA
:1024A00060E070E042E050E00E94FF1B80913D013F
:1024B00090913E0120913B0130913C01B90141E0F6
:1024C00050E00E94F61B8091600190916101A09103
:1024D0006201B09163018056904FAF4FBF4F809320
:1024E000C2019093C301A093C401B093C5018AE0D7
:1024F0008093BC0180913D0190913E012091B201F9
:102500003091B3014091D001B9010E946C068091D5
:102510003D0190913E010E945D1B42C184E190E02B
:102520000E94C31A90933901809338018091380139
:102530009091390160E070E044E150E00E94FF1B9F
:1025400020916001309161014091620150916301DD
:102550008091C2019091C301A091C401B091C501C5
:10256000281739074A075B0708F0F9C08091BB01BB
:10257000813049F581E00E94190480913B019091DE
:102580003C01019690933C0180933B0180913B017B
:1025900090913C01FC018081882389F481E0809343
:1025A000BC018091650180939A012091D00181E264
:1025B00091E060E971E0422F0E946C06E2C089E080
:1025C0008093BC01DEC08091B901813009F0D8C090
:1025D00081E00E94190480913B0190913C01FC0133
:1025E0008081882F90E083359105A1F08435910595
:1025F0004CF48B34910509F483C08235910509F4BC
:1026000064C0BFC08635910509F470C08735910557
:1026100021F1B7C08091600190916101A0916201A8
:10262000B09163018056904FAF4FBF4F8093C2016E
:102630009093C301A093C401B093C50185E080933A
:102640009A012091B2013091B3014091D00183E20F
:1026500091E0B9010E946C0694C081E08093BC01B6
:102660008091650180939A01409138015091390120
:102670008091D001282F30E000D000D000D08DB75D
:102680009EB70196FC015183408345E251E0FC0175
:1026900053834283FC01358324830E94221C8DB71F
:1026A0009EB706960FB6F8949EBF0FBE8DBF809161
:1026B0003801909139012091B2013091B3014091DC
:1026C000D001B9010E946C065CC01092BC0187E089
:1026D00080939A012091B2013091B3014091D001D1
:1026E00083E291E0B9010E946C064BC081E08093C7
:1026F000BC018091650180939A010E94CF0641C080
:10270000809165018823B1F481E08093650181E0C7
:102710008093BC018091650180939A012091B20160
:102720003091B3014091D0018BE191E0B9010E9459
:102730006C0627C01092650181E08093BC018091F6
:10274000650180939A012091B2013091B3014091CB
:10275000D00188E291E0B9010E946C0612C081E0CC
:102760008093BC018091650180939A012091D001F2
:1027700081E291E060E971E0422F0E946C0601C0A5
:10278000000080913801909139010E945D1B08C0C2
:1027900081E08093BC018091650180939A010000E3
:1027A00088C6209160013091610140916201509191
:1027B00063018091C2019091C301A091C401B091C5
:1027C000C501281739074A075B0708F063C08091E5
:1027D000BB01813069F58091D001883228F4809165
:1027E000D0018F5F8093D0018091D0010E940104BD
:1027F0008091600190916101A0916201B0916301AB
:102800008056904FAF4FBF4F8093C2019093C3014A
:10281000A093C401B093C5012091B2013091B301DE
:102820004091D0018AE291E0B9010E946C0670C02B
:102830008091B901813009F06BC08091D001863060
:1028400028F08091D00181508093D0018091D001F7
:102850000E9401048091600190916101A091620148
:10286000B09163018056904FAF4FBF4F8093C2012C
:102870009093C301A093C401B093C5012091B2010C
:102880003091B3014091D0018AE291E0B9010E94F8
:102890006C063EC02091D00180E090E0622F0E9443
:1028A000661E81E08093BC018091650180939A014E
:1028B00040913801509139018091D001282F30E0AA
:1028C00000D000D000D08DB79EB70196FC01518397
:1028D000408345E251E0FC0153834283FC01358390
:1028E00024830E94221C8DB79EB706960FB6F894DB
:1028F0009EBF0FBE8DBF809138019091390120910C
:10290000B2013091B3014091D001B9010E946C062F
:10291000D0C58091CA01813061F08091B8018130C9
:1029200041F08091BB01813021F08091B90181306B
:10293000E9F58091D5019091D60120E231E0B9010D
:1029400041E050E00E94F61B8091D5019091D601A4
:10295000909337018093360110923A018091600183
:1029600090916101A0916201B09163018093C601D1
:102970009093C701A093C801B093C9018091B001A1
:1029800080939A0180916A018093BC018091AC018F
:102990009091AD01A091AE01B091AF018093C201C1
:1029A0009093C301A093C401B093C5018091BC0171
:1029B000882F90E08430910544F4823091050CF02A
:1029C000BBC18130910531F014C2873091050CF004
:1029D00010C2EFC120913601309137018091D501AD
:1029E0009091D60128173907C9F480913A018823BC
:1029F000A9F48091360190913701FC018081882FE4
:102A000090E0809788599F4F998788878885998516
:102A1000FC0114911A878A8580933A0180913A01CA
:102A2000882309F44BC180913A01803829F08091C4
:102A30003A018F3F09F079C080913A01803821F541
:102A400020916B0130916C01C901880F991F820F91
:102A5000931F9C0140E050E08091600190916101E2
:102A6000A0916201B0916301820F931FA41FB51F53
:102A70008093C2019093C301A093C401B093C50198
:102A800085E08093BC0127C020916B0130916C01DF
:102A9000C901880F991F880F991F880F991F821BE2
:102AA000930B9C0140E050E08091600190916101A6
:102AB000A0916201B0916301820F931FA41FB51F03
:102AC0008093C2019093C301A093C401B093C50148
:102AD00085E08093BC018091360190913701019689
:102AE00090933701809336018091360190913701A0
:102AF000FC018081882319F410923A0115C080915D
:102B0000360190913701FC018081882F90E08097F9
:102B100088599F4F9C878B878B859C85FC011491DE
:102B20001D878D8580933A01C8C080913A01882322
:102B30000CF062C020916B0130916C01C901880FCB
:102B4000991F820F931F9C0140E050E0809160012B
:102B500090916101A0916201B0916301820F931F76
:102B6000A41FB51F8093C2019093C301A093C40119
:102B7000B093C50183E08093BC0180916001909186
:102B80006101A0916201B09163010196A11DB11D87
:102B90008093A0019093A101A093A201B093A301FF
:102BA0008091C2019091C301A091C401B091C5016F
:102BB0008093D7019093D801A093D901B093DA0103
:102BC0008091600190916101A0916201B0916301D7
:102BD0008093D1019093D201A093D301B093D401FB
:102BE0008FEF9FEFDC018093C6019093C701A09304
:102BF000C801B093C9015CC080916B0190916C01D8
:102C00009C0140E050E08091600190916101A091B1
:102C10006201B0916301820F931FA41FB51F8093BF
:102C2000C2019093C301A093C401B093C50182E097
:102C30008093BC018091600190916101A09162013B
:102C4000B09163010196A11DB11D8093A0019093E5
:102C5000A101A093A201B093A3018091C201909120
:102C6000C301A091C401B091C5018093D701909395
:102C7000D801A093D901B093DA01809160019091BD
:102C80006101A0916201B09163018093D1019093A1
:102C9000D201A093D301B093D4018FEF9FEFDC0159
:102CA0008093C6019093C701A093C801B093C90156
:102CB00080913A01880F80933A013DC08091D501FF
:102CC0009091D60120E231E0B90141E050E00E944C
:102CD000F61B8091D5019091D60190933701809396
:102CE000360110923A018091600190916101A091AA
:102CF0006201B09163018093C6019093C701A093D4
:102D0000C801B093C9018091B00180939A0180916C
:102D10006A018093BC018091AC019091AD01A091BA
:102D2000AE01B091AF018093C2019093C301A09313
:102D3000C401B093C5015EC0209160013091610172
:102D400040916201509163018091C2019091C30151
:102D5000A091C401B091C50182179307A407B507DC
:102D6000F0F480916B0190916C019C0140E050E087
:102D70008091600190916101A0916201B091630125
:102D8000820F931FA41FB51F8093C2019093C301AC
:102D9000A093C401B093C50184E08093BC0181E09D
:102DA0008093340181E08093320181E0809333018C
:102DB00021C02091600130916101409162015091E8
:102DC00063018091C2019091C301A091C401B091AF
:102DD000C50182179307A407B50718F481E0809313
:102DE000BC01109234011092320181E080933301D2
:102DF00001C000005EC38091BC01882F90E0833049
:102E0000910509F4E3C1843091055CF481309105AA
:102E100009F44CC0823091050CF08EC1009771F01E
:102E200045C38B30910509F4B4C28C30910509F487
:102E30000FC38430910509F413C238C38091600137
:102E400090916101A0916201B09163018093D101E1
:102E50009093D201A093D301B093D4018FEF9FEF51
:102E6000DC018093C6019093C701A093C801B09381
:102E7000C90110923F01109240018FEF9FEFDC01DA
:102E80008093410190934201A0934301B093440188
:102E9000809138019091390160E070E049E250E0A2
:102EA0000E94FF1B81E08093BC0101C38091CA0195
:102EB000813009F04BC08091B801882309F046C0E9
:102EC00081E080936A0182E08093BC0181E080937D
:102ED0009F0180916B0190916C019C0140E050E05A
:102EE0008091600190916101A0916201B0916301B4
:102EF000820F931FA41FB51F8093C2019093C3013B
:102F0000A093C401B093C5018091600190916101CB
:102F1000A0916201B091630188519C4FAF4FBF4FA8
:102F20008093410190934201A0934301B0934401E7
:102F3000809140018F5F80934001809140018630F5
:102F400008F4D3C08BE080939F01CFC08091B8017B
:102F5000813009F062C08091CA01882309F05DC008
:102F600081E080936A0183E08093BC0181E08093DB
:102F70009F0120916B0130916C01C901880F991F4D
:102F8000820F931F9C0140E050E08091600190917E
:102F90006101A0916201B0916301820F931FA41F90
:102FA000B51F8093C2019093C301A093C401B09355
:102FB000C5018091600190916101A0916201B09181
:102FC000630188519C4FAF4FBF4F80934101909355
:102FD0004201A0934301B093440180914001282F06
:102FE00030E080E890E0022E02C0959587950A9423
:102FF000E2F7982F80913F01890F80933F018091E4
:1030000040018F5F8093400180914001863008F439
:103010006CC08BE080939F0168C08091CA018130B1
:1030200009F063C08091B801813009F05EC08091E1
:103030009F01813009F059C081E080936A0182E0EC
:103040008093BC0183E080939F0180916B019091FC
:103050006C019C0140E050E0809160019091610121
:10306000A0916201B0916301820F931FA41FB51F4D
:103070008093C2019093C301A093C401B093C50192
:103080008091600190916101A0916201B091630112
:1030900088519C4FAF4FBF4F8093410190934201A5
:1030A000A0934301B093440180914001882F90E0A8
:1030B0009C012F5F3F4F80E890E0022E02C0959563
:1030C00087950A94E2F7982F80913F01890F8093AA
:1030D0003F01809140018E5F8093400180914001CB
:1030E000863018F08BE080939F0120916001309131
:1030F0006101409162015091630180914101909181
:103100004201A0914301B091440182179307A407A3
:10311000B50718F48BE08093BC018091BB0181302E
:1031200019F48CE08093BC011092340110923201AA
:1031300081E080933301BBC1209160013091610136
:1031400040916201509163018091C2019091C3014D
:10315000A091C401B091C50182179307A407B507D8
:1031600008F582E080936A0184E08093BC0180913D
:103170006B0190916C019C0140E050E080916001F6
:1031800090916101A0916201B0916301820F931F40
:10319000A41FB51F8093C2019093C301A093C401E3
:1031A000B093C5018091B801813039F480919F01BD
:1031B000813019F483E080939F011092340181E003
:1031C0008093320181E08093330171C120916001CD
:1031D0003091610140916201509163018091C2017F
:1031E0009091C301A091C401B091C50182179307CA
:1031F000A407B50708F583E080936A0184E0809313
:10320000BC0180916B0190916C019C0140E050E009
:103210008091600190916101A0916201B091630180
:10322000820F931FA41FB51F8093C2019093C30107
:10323000A093C401B093C5018091CA01813039F4D3
:1032400080919F01813019F482E080939F01109258
:10325000340181E08093320181E08093330127C102
:1032600020916001309161014091620150916301B0
:103270008091C2019091C301A091C401B091C50198
:1032800082179307A407B50708F05CC080919F01DF
:103290008230F9F482E08093BC0180916B019091BF
:1032A0006C019C0140E050E08091600190916101CF
:1032B000A0916201B0916301820F931FA41FB51FFB
:1032C0008093C2019093C301A093C401B093C50140
:1032D00033C080919F01833021F583E08093BC014E
:1032E00020916B0130916C01C901880F991F820FE9
:1032F000931F9C0140E050E080916001909161013A
:10330000A0916201B0916301820F931FA41FB51FAA
:103310008093C2019093C301A093C401B093C501EF
:103320000BC080919F018B3021F48BE08093BC0116
:1033300003C081E08093BC0184E080936A0181E056
:1033400080939F018091CA01813061F480916A016C
:10335000833041F480919F01813021F482E0809399
:103360009F010FC08091B801813059F480916A01AA
:10337000823039F480919F01813019F483E0809389
:103380009F01109234011092320181E08093330149
:103390008EC080914001282F30E080E890E0022E1E
:1033A00002C0959587950A94E2F7982F80913F0186
:1033B000890F80933F0180E2809345012CC080916A
:1033C0004501882F90E088599F4F9F878E878E8573
:1033D0009F85FC011491188B988980913F01981763
:1033E000A9F480914501898B1A8A809138019091C6
:1033F00039019E012F5E3F4FB9010E94061C1092B9
:103400003F011092400181E08093BC018091450111
:103410008F5F80934501809145018B3580F28091CB
:103420003F01882389F080E880933F01109240019A
:1034300081E08093BC012091D00181E291E060E9BC
:1034400071E0422F0E946C0681E08093BC012FC086
:1034500088E391E021E030E0B90148E250E00E94C9
:10346000441E8091600190916101A0916201B09130
:1034700063018093C6019093C701A093C801B093E4
:10348000C9011092330181E08093BC0180916501F4
:1034900080939A012091B2013091B3014091D00103
:1034A00083E291E0B9010E946C0601C0000001C0F6
:1034B00000000C940F0B629FD001739FF001829F5C
:1034C000E00DF11D649FE00DF11D929FF00D839FB3
:1034D000F00D749FF00D659FF00D9927729FB00D50
:1034E000E11DF91F639FB00DE11DF91FBD01CF0163
:1034F00011240895AA1BBB1B51E107C0AA1FBB1FC3
:10350000A617B70710F0A61BB70B881F991F5A956F
:10351000A9F780959095BC01CD01089597FB092EE0
:1035200007260AD077FD04D0E5DF06D000201AF484
:10353000709561957F4F0895F6F7909581959F4F0F
:103540000895A1E21A2EAA1BBB1BFD010DC0AA1FE4
:10355000BB1FEE1FFF1FA217B307E407F50720F0FC
:10356000A21BB30BE40BF50B661F771F881F991F77
:103570001A9469F760957095809590959B01AC01C0
:10358000BD01CF010895CF93DF938230910510F4F0
:1035900082E090E0E091E001F091E10140E050E054
:1035A00020E030E026C06081718168177907E0F083
:1035B0006817790781F4828193812115310531F0F3
:1035C000D90113969C938E9312972BC09093E1018F
:1035D0008093E00126C04115510519F06417750765
:1035E00018F4AB01E901DF019F0172816381E72FCC
:1035F000F62F3097C1F64115510501F1481B590BC3
:103600004430510580F412968D919C911397209728
:1036100019F09B838A8304C09093E1018093E001B9
:10362000FD01329646C0FD01E40FF51F8193919391
:103630004250504011965C934E933BC02091DE0166
:103640003091DF012115310541F420912E01309197
:103650002F013093DF012093DE0120913001309162
:1036600031012115310541F42DB73EB740912C01B0
:1036700050912D01241B350BE091DE01F091DF010B
:10368000E217F307A0F42E1B3F0B2817390778F039
:10369000AC014E5F5F4F2417350748F04E0F5F1F98
:1036A0005093DF014093DE018193919302C0E0E0EB
:1036B000F0E0CF01DF91CF910895CF93DF93009792
:1036C00009F491C0FC013297138212826091E001EB
:1036D0007091E1016115710581F420813181280F1C
:1036E000391F8091DE019091DF018217930799F5D0
:1036F000F093DF01E093DE0176C0DB0180E090E033
:1037000002C0CD01D901AE17BF0748F412962D9122
:103710003C91139721153105A1F7CD0121C0B38349
:10372000A283EF01499159919E01240F351FA217E1
:10373000B30779F42D913C911197240F351F2E5F1B
:103740003F4F3183208312962D913C911397338301
:103750002283009729F4F093E101E093E00143C054
:10376000DC011396FC93EE9312974D915D91A40F9B
:10377000B51FEA17FB0769F420813181240F351F3B
:103780002E5F3F4FEC0139832883228133813B83B5
:103790002A83E0E0F0E002C0FB01BC01DB011296ED
:1037A0008D919C9113970097B9F79B012E5F3F4F26
:1037B0008D919C911197820F931F4091DE01509142
:1037C000DF014817590779F4309729F41092E10185
:1037D0001092E00102C013821282225030403093D6
:1037E000DF012093DE01DF91CF910895FB01DC0121
:1037F00002C001900D9241505040D8F70895DC016D
:1038000001C06D9341505040E0F70895FB01DC0189
:103810000D900020E9F7119701900D920020E1F73B
:103820000895FB01DC0101900D920020E1F708955D
:10383000DC016C9161566A3108F0605E6F5B6D93DC
:10384000C1F70895AEE0B0E0E8E2FCE10C94221F7D
:103850000D891E8986E08C831A8309838FEF9FE789
:103860009E838D839E01275E3F4FCE0101966F8917
:10387000788DA9010E94451CEF81F885E00FF11FAA
:1038800010822E96E4E00C943E1FACE0B0E0EBE436
:10389000FCE10C94141F6C011B018A01FC011782CE
:1038A0001682838181FFD1C12E010894411C511CD5
:1038B000F6019381F10193FD859193FF81911F01A1
:1038C000882309F4BEC1853239F493FD859193FFB5
:1038D00081911F01853229F490E0B6010E948A1E71
:1038E000E7CFEE24FF2420E02032B0F48B3269F0E1
:1038F0008C3228F4803251F0833271F40BC08D3257
:1039000039F0803349F421602CC02260246029C042
:10391000286027C0206125C027FD2CC0382F3053D8
:103920003A3098F426FF08C08E2D880FE82EEE0C52
:10393000EE0CE80EE30E15C08F2D880FF82EFF0C4D
:10394000FF0CF80EF30E20620CC08E3221F426FD1F
:1039500078C1206406C08C3611F4206802C0883615
:1039600049F4F10193FD859193FF81911F01882313
:1039700009F0BACF982F9554933018F090529330A5
:1039800028F40C5F1F4FFFE3F9830DC0833631F03D
:10399000833771F0833509F060C022C0F80180815F
:1039A00089830E5F1F4F420171E0A72EB12C16C014
:1039B00062E0662E712C600E711EF801808091808D
:1039C00026FF03C06E2D70E002C06FEF7FEFC401D1
:1039D0002C870E947F1E5C0183012C852F7717C0E6
:1039E00052E0652E712C600E711EF801808091806E
:1039F00026FF03C06E2D70E002C06FEF7FEFC401A1
:103A00002C870E94741E5C012C852068830123FD95
:103A100020C008C080E290E0B6012C870E948A1E78
:103A2000FA942C858F2D90E0A816B90698F311C052
:103A3000F40127FD859127FF81914F0190E0B601A8
:103A40002C870E948A1E2C85F110FA940894A108F4
:103A5000B108A114B10461F7F1C0843611F08936C0
:103A600049F527FF08C0F801608171818281938147
:103A70000C5F1F4F09C0F80160817181882777FDB5
:103A80008095982F0E5F1F4F4FE6B42EB22297FFFE
:103A900009C090958095709561957F4F8F4F9F4F8E
:103AA000F0E8BF2AA2012AE030E00E94B61E782E7C
:103AB000741845C0853731F43FEEB32EB2222AE0A8
:103AC00030E025C099EFB92EB2228F36C1F0803791
:103AD00020F4883509F0B5C00DC0803721F0883753
:103AE00009F0AFC002C020E1B22AB4FE0BC084E0EE
:103AF000B82A08C0B4FE09C0E6E0BE2A06C028E025
:103B000030E005C020E130E002C020E132E0B7FE45
:103B100008C0F80160817181828193810C5F1F4F21
:103B200007C0F8016081718180E090E00E5F1F4F57
:103B3000A2010E94B61E782E7418FFE7BF22B6FEBF
:103B40000BC02EEFB2227E1438F4B4FE07C0B2FCD4
:103B500005C08FEEB82202C0A72C01C0AE2C8B2D61
:103B600090E0B4FE0DC0FE01E70DF11D2081203371
:103B700019F4E9EEBE2209C0A394B2FE06C004C047
:103B800086789070009709F0A3948B2C9924B3FC4D
:103B900014C0B0FE0FC0AF1428F4E72CEF0CEA18E5
:103BA000AF2C08C0E72C06C080E290E0B6010E946E
:103BB0008A1EA394AF14C0F304C0AF1410F4FA1813
:103BC00001C0FF2484FE0FC080E390E0B6010E9494
:103BD0008A1E82FE1FC081FE03C088E590E010C0EF
:103BE00088E790E00DC0C40186789070009791F04E
:103BF00081FC02C080E201C08BE2B7FC8DE290E064
:103C0000B6010E948A1E06C080E390E0B6010E94C1
:103C10008A1EEA947E14C0F37A94F201E70DF11D36
:103C2000808190E0B6010E948A1E7720A9F706C025
:103C300080E290E0B6010E948A1EFA94FF20C1F74C
:103C400037CEF6012681378102C02FEF3FEFC90141
:103C50002C96E2E10C94301FDC01CB01FC01F999B8
:103C6000FECF06C0F2BDE1BDF89A319600B40D92C8
:103C700041505040B8F70895F999FECF92BD81BDEB
:103C8000F89A992780B50895DC01A40FB51F41501B
:103C9000504048F0CB01840F951F2E910E94551E75
:103CA00041505040D0F70895262FF999FECF92BD8C
:103CB00081BDF89A019700B4021639F01FBA20BDF1
:103CC0000FB6F894FA9AF99A0FBE0895262FF9992B
:103CD000FECF1FBA92BD81BD20BD0FB6F894FA9AEF
:103CE000F99A0FBE01960895FC010590615070404D
:103CF0000110D8F7809590958E0F9F1F0895FC01B5
:103D00006150704001900110D8F7809590958E0F0A
:103D10009F1F08950F931F93CF93DF938C01EB01A7
:103D20008B8181FF1BC082FF0DC02E813F818C8162
:103D30009D812817390764F4E881F9810193F9839B
:103D4000E88306C0E885F985802F0995009731F44E
:103D50008E819F8101969F838E8302C00FEF1FEF9C
:103D6000C801DF91CF911F910F910895FA01AA2701
:103D7000283051F1203181F1E8946F936E7F6E5FAE
:103D80007F4F8F4F9F4FAF4FB1E03ED0B4E03CD05C
:103D9000670F781F891F9A1FA11D680F791F8A1F3F
:103DA000911DA11D6A0F711D811D911DA11D20D0A6
:103DB00009F468943F912AE0269F11243019305D60
:103DC0003193DEF6CF010895462F4770405D419351
:103DD000B3E00FD0C9F7F6CF462F4F70405D4A339E
:103DE00018F0495D31FD4052419302D0A9F7EACF66
:103DF000B4E0A6959795879577956795BA95C9F795
:103E000000976105710508959B01AC010A2E069487
:103E10005795479537952795BA95C9F7620F731F40
:103E2000841F951FA01D08952F923F924F925F927D
:103E30006F927F928F929F92AF92BF92CF92DF92BA
:103E4000EF92FF920F931F93CF93DF93CDB7DEB71F
:103E5000CA1BDB0B0FB6F894DEBF0FBECDBF0994B3
:103E60002A88398848885F846E847D848C849B840A
:103E7000AA84B984C884DF80EE80FD800C811B8118
:103E8000AA81B981CE0FD11D0FB6F894DEBF0FBE47
:0A3E9000CDBFED010895F894FFCFB7
:103E9A00535752564B00010C0119012564522564EF
:103EAA0000253032755225303275005300434300E5
:103EBA000058005200256400500049002000E20129
:023ECA000000F6
:00000001FF
