:100000000C94D2000C94EF000C94EF000C94EF00D1
:100010000C94EF000C9451020C94EF000C945D01D1
:100020000C94EF000C94EF000C94EF000C94F10092
:100030000C94EF000C94EF000C94EF000C94EF0084
:100040000C94EF000C94EF000C94EF000C94EF0074
:100050000C94EF000C94EF000C94EF000C94EF0064
:100060000C94EF000C94EF00FF80808080808080F3
:100070008080808080808094FC7C3C1C0C0484C444
:10008000E4F48080808C8032806088A8904028D002
:10009000082078B048E0A0F068D85010C030187040
:1000A00098B8C8808386898C8F9295989C9FA2A5CA
:1000B000A8ABAEB0B3B6B9BCBFC1C4C7C9CCCED172
:1000C000D3D5D8DADCDEE0E2E4E6E8EAECEDEFF006
:1000D000F2F3F5F6F7F8F9FAFBFCFCFDFEFEFFFF84
:1000E000FFFFFFFFFFFFFFFFFFFEFEFDFCFCFBFA33
:1000F000F9F8F7F6F5F3F2F0EFEDECEAE8E6E4E212
:10010000E0DEDCDAD8D5D3D1CECCC9C7C4C1BFBC00
:10011000B9B6B3B0AEABA8A5A29F9C9895928F8CB0
:10012000898683807C797673706D6A6763605D5AB7
:100130005754514F4C494643403E3B383633312E9D
:100140002C2A272523211F1D1B1917151312100FE9
:100150000D0C0A090807060504030302010100004B
:10016000000000000000000000010102030304057C
:10017000060708090A0C0D0F1012131517191B1D7D
:100180001F212325272A2C2E313336383B3E40436E
:1001900046494C4F5154575A5D6063676A6D70739E
:1001A00076797C0011241FBECFEFD4E0DEBFCDBF37
:1001B00011E0A0E0B1E0ECE1FDE302C005900D929A
:1001C000AA33B107D9F711E0AAE3B1E001C01D924B
:1001D000A73FB107E1F70E94AF0C0C948C1E0C9462
:1001E00000001F920F920FB60F9211241F932F93AE
:1001F0003F934F935F938F939F93AF93BF93EF93EF
:10020000FF93DF93CF9300D00F92CDB7DEB78091ED
:100210003A01813009F03CC020919E0130919F014C
:100220004091A0015091A1018091B0019091B10144
:10023000A091B201B091B301820F931FA41FB51F0B
:1002400080939E0190939F01A093A001B093A10180
:1002500080919E0190919F01A091A001B091A10178
:100260008B2F9927AA27BB2780936C0187E490E006
:1002700020916C01222F30E02D553F4F3A83298386
:1002800029813A81F90114911B832B81FC01208380
:100290002396DEBFCDBFCF91DF91FF91EF91BF914C
:1002A000AF919F918F915F914F913F912F911F91AE
:1002B0000F900FBE0F901F9018951F920F920FB6C0
:1002C0000F9211242F933F934F935F936F937F93DC
:1002D0008F939F93AF93BF93EF93FF93DF93CF934E
:1002E000CDB7DEB780913B01813051F488E290E0D8
:1002F00028E230E0F90120812062FC01208309C05E
:1003000088E290E028E230E0F90120812F7DFC01B5
:10031000208380913C01813009F043C020916E011F
:1003200030916F0140917001509171018091ED0108
:100330009091EE01A091EF01B091F00128173907DB
:100340004A075B0770F520916E0130916F01409173
:100350007001509171018091A8019091A901A09123
:10036000AA01B091AB0182179307A407B507C8F49F
:100370008091D201813021F08091D201823021F42C
:1003800081E00E94720C03C080E00E94720C88E23F
:1003900090E028E230E0F90120812061FC01208317
:1003A0000DC08091D1010E94720C88E290E028E299
:1003B00030E0F90120812F7EFC0120838091D20161
:1003C000882309F445C08091D201813051F488E23C
:1003D00090E028E230E0F90120812260FC012083D6
:1003E00037C08091D201823099F520916801309117
:1003F000690140916A0150916B018091DD019091FA
:10040000DE01A091DF01B091E00182179307A407FC
:10041000B507F0F488E290E028E230E0F90130819D
:1004200022E02327FC0120838091680190916901DB
:10043000A0916A01B0916B018C509E4FAF4FBF4F9E
:100440008093DD019093DE01A093DF01B093E00182
:1004500080E00E94680480916E0190916F01A091EC
:100460007001B09171010196A11DB11D80936E01C3
:1004700090936F01A0937001B0937101CF91DF91C0
:10048000FF91EF91BF91AF919F918F917F916F916C
:100490005F914F913F912F910F900FBE0F901F9042
:1004A00018951F920F920FB60F9211248F939F935E
:1004B000AF93BF93EF93FF93DF93CF93CDB7DEB7A7
:1004C00088E690E0FC01108280916D018093A2018A
:1004D00081E08093C8018091680190916901A091A9
:1004E0006A01B0916B018C599F4FAF4FBF4F809302
:1004F000D4019093D501A093D601B093D7018091F8
:10050000680190916901A0916A01B0916B01845DCD
:100510009E4FAF4FBF4F8093CD019093CE01A093DC
:10052000CF01B093D001CF91DF91FF91EF91BF91B7
:10053000AF919F918F910F900FBE0F901F901895C4
:10054000DF93CF930F92CDB7DEB7F89481E690E0BA
:1005500020E8FC01208381E690E0FC01108284E425
:1005600090E021E8FC01208385E490E021E0FC019B
:10057000208381E890E029E0FC01208380E890E07E
:10058000FC01108288E890E028EE33E0FC01318322
:1005900020838FE690E022E0FC01208380EB90E056
:1005A00022E0FC01208381EB90E024E0FC01208329
:1005B00080E790E020E730E0F90120812260FC0133
:1005C000208383EB90E029EFFC0120838AE790E011
:1005D0002AE730E0F90120812468FC0120838CE7C0
:1005E00090E020E6FC0120838BE690E021E0FC0116
:1005F00020838DE690E02FE9FC0120838AE290E0E1
:100600002AE230E0F90120812064FC01208387E2A6
:1006100090E027E230E0F90120812062FC01208394
:1006200087E290E027E230E0F90120812061FC01BF
:10063000208387E290E027E230E0F90120812D7FDE
:10064000FC01208388E290E028E230E0F90120817B
:100650002D7FFC0120838AE290E02AE230E0F9015C
:100660002081277FFC0120838BE290E02BE230E0A9
:10067000F90120812860FC0120838AE290E02AE2CF
:1006800030E0F90120812F7EFC0120838BE290E095
:100690002BE230E0F90120812061FC0120838AE215
:1006A00090E02AE230E0F90120812B7FFC012083D9
:1006B0008BE290E02BE230E0F90120812460FC0124
:1006C00020838AE290E02AE230E0F90120812D7F48
:1006D000FC0120838BE290E02BE230E0F9012081E5
:1006E0002260FC01208384E290E024E230E0F90102
:1006F00020812E7FFC01208385E290E025E230E01E
:10070000F90120812160FC0120838AE290E02AE245
:1007100030E0F90120812F77FC0120838BE290E00B
:100720002BE230E0F90120812068FC0120838AE27D
:1007300090E02AE230E0F90120812E7FFC01208345
:100740008BE290E02BE230E0F90120812160FC0196
:10075000208384E290E024E230E0F90120812E62DF
:10076000FC0120838CE490E029E5FC0120838DE4EA
:1007700090E0FC01808189838EE490E0FC0180811F
:10078000898384E690E024E630E0F9012081206846
:10079000FC01208384E690E024E630E0F90120812A
:1007A0002260FC01208383E590E023E530E0F9013D
:1007B0002081217F2C60FC01208381E080937201E5
:1007C00081E08093C80181E08093A70110926E01BF
:1007D00010926F0110927001109271018FE390E0FE
:1007E000FC018081882F90E0827090700097B1F7B3
:1007F00080E090E00E949F1D8093E6018091E601D9
:100800000E9450048CE09FE1A1E1B5E08093AC012F
:100810009093AD01A093AE01B093AF0180EE99E843
:10082000A6EDB0E08093E2019093E301A093E40190
:10083000B093E5018091AC019091AD01A091AE0122
:10084000B091AF01BC01CD0140E021E00E94D20B8C
:100850008091AC019091AD01A091AE01B091AF013A
:10086000BC01CD0141E020E00E94D20B84EF91E079
:100870009093BB018093BA018091BA019091BB0122
:10088000CC01A0E0B0E0BC01CD010E94880C109228
:10089000D2011092D10178940F90CF91DF910895F9
:1008A000DF93CF930F92CDB7DEB789838981282F4D
:1008B00030E080EB94E0B9010E94FC199B01C90172
:1008C00090937401809373010F90CF91DF910895FD
:1008D000DF93CF930F92CDB7DEB7898389818130C3
:1008E00041F51092500110924F0110925201109256
:1008F000510110925401109253011092560110921E
:100900005501109258011092570110925A011092FD
:10091000590110925C0110925B0110925E011092DD
:100920005D011092600110925F01109262011092BD
:10093000610189E290E0FC018081882F90E088705D
:1009400090700097A9F480914F01909150018530EB
:10095000910548F480914F01909150010196909338
:10096000500180934F01109254011092530114C012
:1009700080915301909154018530910548F4809104
:100980005301909154010196909354018093530127
:100990001092500110924F0189E290E0FC01808199
:1009A000882F90E0807190700097A9F48091510198
:1009B000909152018530910548F4809151019091B8
:1009C0005201019690935201809351011092560169
:1009D0001092550114C080915501909156018530B7
:1009E000910548F48091550190915601019690939C
:1009F000560180935501109252011092510180913D
:100A00004F01909150018530910518F081E080935D
:100A1000DC0180915301909154018530910510F0D3
:100A20001092DC0180915101909152018530910525
:100A300018F081E08093C00180915501909156019A
:100A40008530910510F01092C00189E290E0FC0120
:100A50008081882F90E0847090700097A1F489E2E3
:100A600090E0FC018081882F90E082709070009768
:100A700051F480915B0190915C01019690935C012F
:100A800080935B0125C080915B0190915C01853072
:100A9000910560F080915B0190915C01F1E0843FF1
:100AA0009F0720F481E08093C6010EC080915B0116
:100AB00090915C0121E0843F920720F082E08093D6
:100AC000C60102C01092C60110925C0110925B0137
:100AD00089E290E0FC018081882F90E08470907022
:100AE000009751F48091570190915801019690938D
:100AF00058018093570125C080915701909158016A
:100B00008530910560F08091570190915801F1E096
:100B1000843F9F0720F481E08093C7010EC080913D
:100B200057019091580121E0843F920720F082E024
:100B30008093C70102C01092C70110925801109211
:100B4000570189E290E0FC018081882F90E082705B
:100B50009070009751F48091590190915A0101963B
:100B600090935A018093590125C080915901909129
:100B70005A018530910560F08091590190915A0198
:100B8000F1E0843F9F0720F481E08093C5010EC00F
:100B90008091590190915A0121E0843F920720F001
:100BA00082E08093C50102C01092C50110925A01E3
:100BB0001092590189E290E0FC018081882F90E039
:100BC00081709070009751F480915D0190915E0169
:100BD000019690935E0180935D0125C080915D0137
:100BE00090915E018530910560F080915D0190915A
:100BF0005E01F1E0843F9F0720F481E08093D30100
:100C00000EC080915D0190915E0121E0843F9207CA
:100C100020F082E08093D30102C01092D3011092A1
:100C20005E0110925D0183E290E0FC018081882FDB
:100C300090E0817090700097A9F480915F0190918D
:100C400060018530910548F480915F0190916001C9
:100C500001969093600180935F011092640110925D
:100C6000630114C080916301909164018530910506
:100C700048F480916301909164010196909364011E
:100C8000809363011092600110925F0189E290E00D
:100C9000FC0180818823ACF0809161019091620118
:100CA0008530910548F4809161019091620101962F
:100CB0009093620180936101109266011092650128
:100CC00014C080916501909166018530910548F4CA
:100CD00080916501909166010196909366018093E1
:100CE0006501109262011092610180915F01909103
:100CF00060018530910518F081E080936701809153
:100D00006301909164018530910510F010926701A4
:100D100080916101909162018530910518F081E028
:100D20008093F10180916501909166018530910574
:100D300010F01092F1010F90CF91DF910895DF93A1
:100D4000CF9300D000D00F92CDB7DEB79A838983BE
:100D50007C836B834D8389819A810E947B1B809168
:100D6000EB019091EC0129813A81B9010E94741B39
:100D70008091C801809372018091D4019091D50136
:100D8000A091D601B091D7018093B4019093B501A1
:100D9000A093B601B093B7018091A2018093B801EE
:100DA0008091BA019091BB019093CC018093CB01CB
:100DB0008B819C819093BB018093BA018091E60165
:100DC0008093F2018D818093E6018091BA01909128
:100DD000BB01CC01A0E0B0E0BC01CD010E94880CB9
:100DE0008091E6010E94500481E08093C80182E076
:100DF0008093A2010F900F900F900F900F90CF91C2
:100E0000DF910895DF93CF9300D000D000D0CDB70D
:100E1000DEB78AE090E00E94311A9A8389838AE7DC
:100E200090E02AE730E0D9012C912064FC01208376
:100E30008AE790E0DC018C91882F90E080749070BC
:100E40000097B1F789E790E0FC018081882F90E05E
:100E50009C838B834B815C8121EA30E0429FC001FF
:100E6000439F900D529F900D1124892F99279E83A7
:100E70008D838D819E812AE030E0B9010E94E819BE
:100E80009B01F9018D819E812AE030E0B9010E9429
:100E9000E8199C018DB79EB708970FB6F8949EBFCE
:100EA0000FBE8DBF8DB79EB7019649815A81DC0177
:100EB0004D935C934BE051E0DC0113965C934E93B1
:100EC0001297DC011596FC93EE931497FC0137837F
:100ED00026830E94851B8DB79EB708960FB6F8949F
:100EE0009EBF0FBE8DBF2091BA013091BB014091D2
:100EF000E60189819A81B9010E949F0689819A81C0
:100F00000E94CB1A26960FB6F894DEBF0FBECDBF57
:100F1000CF91DF9108950F931F93DF93CF9300D06C
:100F2000CDB7DEB78FE090E00E94311A9A838983B3
:100F30008091E2019091E301A091E401B091E5017B
:100F400028EE33E040E050E0BC01CD010E940F1AD2
:100F5000DA01C90124E630E040E050E0BC01CD01F7
:100F60000E940F1ADC01CB018C018091E20190916B
:100F7000E301A091E401B091E50128EE33E040E007
:100F800050E0BC01CD010E940F1ADC01CB012AE028
:100F900030E040E050E0BC01CD010E940F1ADA01C0
:100FA000C9019C018DB79EB708970FB6F8949EBFF4
:100FB0000FBE8DBF8DB79EB7019649815A81FC0146
:100FC0005183408341E151E0FC0153834283FC01A2
:100FD00015830483FC01378326830E94851B8DB70C
:100FE0009EB708960FB6F8949EBF0FBE8DBF209196
:100FF000BA013091BB014091E60189819A81B90122
:101000000E949F0689819A810E94CB1A0F900F90AF
:10101000CF91DF911F910F910895EF92FF920F935F
:101020001F93DF93CF930F92CDB7DEB78091C601A8
:101030008230F9F481E08093C8018091A20180930D
:10104000B80183E08093A2018091680190916901C9
:10105000A0916A01B0916B01845D9E4FAF4FBF4F6D
:101060008093CD019093CE01A093CF01B093D00196
:1010700072C08091C7018130F9F48091A201809300
:10108000B80184E08093A20181E08093C80180913F
:10109000680190916901A0916A01B0916B01845D32
:1010A0009E4FAF4FBF4F8093CD019093CE01A09341
:1010B000CF01B093D0014FC08091C5018130B9F408
:1010C0000E948B078091680190916901A0916A014B
:1010D000B0916B01845D9E4FAF4FBF4F8093CD01A8
:1010E0009093CE01A093CF01B093D00134C08091F2
:1010F000C501823081F585E791E022E030E0B90159
:1011000048E250E00E948F1D8091EB019091EC012C
:1011100025E731E0B9010E94741B81E08093C8018A
:101120008091A2018093B80186E08093A201809112
:10113000680190916901A0916A01B0916B01845D91
:101140009E4FAF4FBF4F8093CD019093CE01A093A0
:10115000CF01B093D0018091D301813009F077C0E5
:101160008091D201882309F059C080910601813015
:1011700051F51092060184E390E09093080180936A
:10118000070185E0809309018091680190916901D0
:10119000A0916A01B0916B01845D9E4FAF4FBF4F2C
:1011A0008093CD019093CE01A093CF01B093D00155
:1011B00081E00E9468048BE191E060E971E049E11F
:1011C0000E949F06A9C181E0809306018CE091E016
:1011D000909308018093070189E180930901809130
:1011E000680190916901A0916A01B0916B01845DE1
:1011F0009E4FAF4FBF4F8093CD019093CE01A093F0
:10120000CF01B093D00181E00E9468048BE191E0AE
:1012100064E873E049E10E949F067EC18091D1019C
:10122000882359F481E08093D1018DE191E060E958
:1012300071E049E10E949F066FC11092D1018FE1D8
:1012400091E060E971E049E10E949F0665C18091EB
:10125000D301823009F060C18091D2018F5F809309
:10126000D2018091D201833010F01092D20180918E
:10127000D201882F90E08130910529F082309105CC
:1012800009F460C0DAC087E290E027E230E0F901BB
:1012900020812260FC0120831092060184E390E00B
:1012A000909308018093070185E080930901809164
:1012B000AC019091AD01A091AE01B091AF018093CE
:1012C000BC019093BD01A093BE01B093BF0180917A
:1012D000BC019091BD01A091BE01B091BF01BC01C4
:1012E000CD0140E020E00E94D20B8091BC019091A2
:1012F000BD01A091BE01B091BF01BC01CD0141E093
:1013000020E00E94D20B81E00E9468048091680175
:1013100090916901A0916A01B0916B01845D9E4F2B
:10132000AF4FBF4F8093CD019093CE01A093CF01DB
:10133000B093D0018FE191E064E873E049E10E944D
:101340009F06EAC087E290E027E230E0F9012081C1
:101350002260FC0120838091680190916901A09135
:101360006A01B0916B018C509E4FAF4FBF4F80937D
:10137000DD019093DE01A093DF01B093E00181E0F5
:10138000809306018CE091E090930801809307011F
:1013900089E1809309018091BC019091BD01A091E8
:1013A000BE01B091BF018093C1019093C201A0938F
:1013B000C301B093C4018091C1019091C201A09179
:1013C000C301B091C401BC01CD0140E020E00E9406
:1013D000D20B8091C1019091C201A091C301B09143
:1013E000C401BC01CD0141E020E00E94D20B81E0AC
:1013F0008093D1018091D1010E94720C81E00E9402
:1014000068048091680190916901A0916A01B0918E
:101410006B01845D9E4FAF4FBF4F8093CD01909382
:10142000CE01A093CF01B093D00181E291E064E8B6
:1014300073E049E10E949F066FC087E290E027E2D7
:1014400030E0F90120812D7FFC01208388E290E0CB
:1014500028E230E0F90120812D7FFC01208381E02A
:10146000809306018CE091E090930801809307013E
:1014700089E1809309018091C1019091C201A091FD
:10148000C301B091C4018093AC019093AD01A093CE
:10149000AE01B093AF018091AC019091AD01A091EC
:1014A000AE01B091AF01BC01CD0140E020E00E944F
:1014B000D20B8091AC019091AD01A091AE01B091A1
:1014C000AF01BC01CD0141E020E00E94D20B10929F
:1014D000D1018091D1010E94720C81E00E946804C8
:1014E0008091680190916901A0916A01B0916B01AE
:1014F000845D9E4FAF4FBF4F8093CD019093CE013F
:10150000A093CF01B093D00183E291E064E873E04F
:1015100049E10E949F06000019828091670188239B
:1015200019F089818E5F89838091F101882319F0F8
:1015300089818F5F898380914E019981981709F481
:1015400026C180914E018695817080934E018091D5
:10155000680190916901A0916A01B0916B01845D6D
:101560009E4FAF4FBF4F8093CD019093CE01A0937C
:10157000CF01B093D00180914E01282F30E08981B6
:10158000882F90E081709070822793278130910599
:1015900009F083C08091D201813021F48091D10182
:1015A000882369F08091D201823021F48091D101A9
:1015B000813029F08091D201882309F0E8C0809120
:1015C000E2019091E301A091E401B091E50181383D
:1015D000FFE99F07F5EDAF07F0E0BF0708F452C041
:1015E0002091AC013091AD014091AE015091AF011D
:1015F0008091070190910801CC01A0E0B0E0790151
:101600008A01E81AF90A0A0B1B0BD801C70180935B
:10161000AC019093AD01A093AE01B093AF012091C6
:10162000E2013091E3014091E4015091E5018091A4
:101630000901882F90E0A0E0B0E079018A01E81A62
:10164000F90A0A0B1B0BD801C7018093E2019093A2
:10165000E301A093E401B093E5018091AC01909186
:10166000AD01A091AE01B091AF012091D101BC01BB
:10167000CD01422F20E00E94D20B8091D1010E9427
:10168000720C85C085E291E064E873E049E10E9454
:101690009F0681E00E9468047AC08091D201813067
:1016A00021F48091D101882369F08091D2018230A8
:1016B00021F48091D101813029F08091D2018823D9
:1016C00009F065C08091E2019091E301A091E401ED
:1016D000B091E501803B06EF90070AEDA00700E01E
:1016E000B00708F04AC080910701909108019C0161
:1016F00040E050E08091AC019091AD01A091AE012D
:10170000B091AF01820F931FA41FB51F8093AC014E
:101710009093AD01A093AE01B093AF018091090108
:10172000282F30E040E050E08091E2019091E30109
:10173000A091E401B091E501820F931FA41FB51F92
:101740008093E2019093E301A093E401B093E5015B
:101750008091AC019091AD01A091AE01B091AF012B
:101760002091D101BC01CD01422F20E00E94D20B7B
:101770008091D1010E94720C0AC087E291E064E876
:1017800073E049E10E949F0681E00E94680489811C
:1017900080934E010F90CF91DF911F910F91FF9099
:1017A000EF900895DF93CF93CDB7DEB72C970FB6A8
:1017B000F894DEBF0FBECDBF6F83788789879A8785
:1017C0004B872C878B85813029F480E090E89A83C1
:1017D000898304C080E090E49A8389838F8198850F
:1017E0009C013F7389819A81820F931F9C838B8315
:1017F0008F819885A985BA85072E7EE0B695A79535
:10180000979587957A95D1F7702D9C013F738981C3
:101810009A81820F931F9E838D838C85813021F462
:1018200080E091E20E94300C8B819C810E94300C00
:101830008D819E810E94300C8C85813041F480E046
:1018400090EC0E94300C80E090E20E94300C2C96CC
:101850000FB6F894DEBF0FBECDBFCF91DF910895D4
:10186000DF93CF9300D0CDB7DEB79A83898385E22B
:1018700090E025E230E0F90120812062FC01208324
:1018800085E290E025E230E0F90120812D7FFC0126
:1018900020838EE490E029813A81232F3327FC01B5
:1018A000208300008DE490E0FC0180818823D4F740
:1018B0008EE490E02981FC01208300008DE490E01B
:1018C000FC0180818823D4F785E290E025E230E0B6
:1018D000F90120812260FC0120830F900F90CF91AD
:1018E000DF910895DF93CF930F92CDB7DEB7898351
:1018F0008981813029F480E098E20E94300C04C094
:1019000080E090E20E94300C0F90CF91DF9108951B
:10191000DF93CF9300D000D0CDB7DEB769837A8351
:101920008B839C8389819A81AB81BC8123E938E1D7
:1019300044E050E0BC01CD010E94C919DC01CB019B
:101940008093B0019093B101A093B201B093B30121
:101950000F900F900F900F90CF91DF9108951F93EC
:10196000DF93CF93CDB7DEB72D970FB6F894DEBFD8
:101970000FBECDBF89E290E00E94311A9093EC0136
:101980008093EB018091EB019091EC0160E070E0BD
:1019900049E250E00E946D1B8091EB019091EC01B7
:1019A00090933F0180933E0189E290E00E94311ABA
:1019B00090934101809340018091400190914101B9
:1019C00060E070E049E250E00E946D1B0E94A002BE
:1019D000198206C080E00E94680489818F5F898334
:1019E00089818F30B8F381E090E00E949F1D8823A9
:1019F00021F481E08093A20102C01092A2018091A3
:101A0000C001813039F48091DC01882319F481E030
:101A10008093A2012091BA013091BB0189E291E04B
:101A2000B9014FE00E949F06F89480916E01909159
:101A30006F01A0917001B091710180936801909342
:101A40006901A0936A01B0936B0178948091A2011F
:101A5000882F90E08330910509F4FEC6843091050B
:101A600064F481309105C9F0823091050CF042C5D3
:101A7000009709F40FC10C94C6198530910511F433
:101A80000C949C16853091050CF4A6C78630910500
:101A900011F40C9454170C94C61981E080936D01D5
:101AA0000E940D088091C801882F90E08730910531
:101AB00009F443C08C30910509F4A7C08130910529
:101AC00009F0E6C010923C0110923A0110923B01DD
:101AD0008091DC01813069F5809168019091690104
:101AE000A0916A01B0916B010196A11DB11D809377
:101AF000A8019093A901A093AA01B093AB018FEF25
:101B00009FEFDC018093ED019093EE01A093EF0134
:101B1000B093F0018FEF9FEFDC018093D40190939D
:101B2000D501A093D601B093D70187E08093C80177
:101B300003C081E08093C801ABC08091E201909125
:101B4000E301A091E401B091E501813B26EF92070A
:101B50002AEDA20720E0B20780F48091E201909183
:101B6000E301A091E401B091E5018038EFE99E071F
:101B7000E5EDAE07E0E0BE0738F410923C011092AC
:101B80003A0110923B0109C081E080933C0181E061
:101B900080933A0181E080933B018091DC018823AE
:101BA00041F58CE08093C8018091680190916901B2
:101BB000A0916A01B0916B018C599F4FAF4FBF4FFD
:101BC0008093D4019093D501A093D601B093D7010F
:101BD0008091680190916901A0916A01B0916B01B7
:101BE0008093ED019093EE01A093EF01B093F0018B
:101BF0000BC08FEF9FEFDC018093ED019093EE011E
:101C0000A093EF01B093F00143C010923C011092F9
:101C10003A018091E2019091E301A091E401B09139
:101C2000E501813BF6EF9F07FAEDAF07F0E0BF0754
:101C300080F48091E2019091E301A091E401B091E0
:101C4000E50180382FE9920725EDA20720E0B207D1
:101C500018F410923B0103C081E080933B01209176
:101C600068013091690140916A0150916B01809146
:101C7000D4019091D501A091D601B091D701281738
:101C800039074A075B0718F081E08093C80100001C
:101C90000C94C71910926D010E940D088091C80123
:101CA000882F90E08330910509F416C284309105A5
:101CB00044F48130910571F08230910509F475C1C9
:101CC00017C48430910509F49EC28C30910509F443
:101CD000DCC30EC410923C0110923A0110923B01F9
:101CE0008091680190916901A0916A01B0916B01A6
:101CF0008093D8019093D901A093DA01B093DB01CE
:101D00008091DC01813009F068C08091C001882396
:101D100009F063C081E08093720182E08093C80182
:101D200081E08093A70180917301909174019C01DF
:101D300040E050E08091680190916901A0916A01B2
:101D4000B0916B01820F931FA41FB51F8093D40124
:101D50009093D501A093D601B093D70180916801EB
:101D600090916901A0916A01B0916B010196A11D4A
:101D7000B11D8093A8019093A901A093AA01B093EB
:101D8000AB018091D4019091D501A091D601B09181
:101D9000D7018093ED019093EE01A093EF01B093F2
:101DA000F0018091680190916901A0916A01B09160
:101DB0006B018093E7019093E801A093E901B09350
:101DC000EA018FEF9FEFDC018093D8019093D90156
:101DD000A093DA01B093DB01E7C08091C0018130AC
:101DE00009F06DC08091DC01882309F068C081E0B2
:101DF0008093720183E08093C80181E08093A70102
:101E00002091730130917401C901880F991F820FCD
:101E1000931F9C0140E050E080916801909169011E
:101E2000A0916A01B0916B01820F931FA41FB51F8F
:101E30008093D4019093D501A093D601B093D7019C
:101E40008091680190916901A0916A01B0916B0144
:101E50000196A11DB11D8093A8019093A901A093A3
:101E6000AA01B093AB018091D4019091D501A091CA
:101E7000D601B091D7018093ED019093EE01A0932C
:101E8000EF01B093F0018091680190916901A091F8
:101E90006A01B0916B018093E7019093E801A093F0
:101EA000E901B093EA018FEF9FEFDC018093D80145
:101EB0009093D901A093DA01B093DB0175C08091B2
:101EC000DC01813009F06DC08091C001813009F0E2
:101ED00068C08091A701813009F063C081E08093E0
:101EE000720182E08093C80183E08093A701809112
:101EF0007301909174019C0140E050E08091680171
:101F000090916901A0916A01B0916B01820F931FBA
:101F1000A41FB51F8093D4019093D501A093D6013F
:101F2000B093D7018091680190916901A0916A01F5
:101F3000B0916B010196A11DB11D8093A8019093F2
:101F4000A901A093AA01B093AB018091D401909113
:101F5000D501A091D601B091D7018093ED01909366
:101F6000EE01A093EF01B093F00180916801909190
:101F70006901A0916A01B0916B018093E701909390
:101F8000E801A093E901B093EA018FEF9FEFDC0134
:101F90008093D8019093D901A093DA01B093DB012B
:101FA00003C081E08093C801A4C28091E2019091B6
:101FB000E301A091E401B091E501813BE6EF9E07CA
:101FC000EAEDAE07E0E0BE0780F48091E201909177
:101FD000E301A091E401B091E5018038FFE99F079A
:101FE000F5EDAF07F0E0BF0738F410923C01109216
:101FF0003A0110923B0109C081E080933C0181E0ED
:1020000080933A0181E080933B01209168013091F7
:10201000690140916A0150916B018091D4019091C6
:10202000D501A091D601B091D70182179307A407DB
:10203000B50708F045C082E08093720184E0809388
:10204000C80180917301909174019C0140E050E0BF
:102050008091680190916901A0916A01B0916B0132
:10206000820F931FA41FB51F8093D4019093D501B5
:10207000A093D601B093D701809168019091690136
:10208000A0916A01B0916B018093E7019093E80100
:10209000A093E901B093EA018091D4019091D50118
:1020A000A091D601B091D7018C599F4FAF4FBF4F30
:1020B0008093D8019093D901A093DA01B093DB010A
:1020C0008091C001813039F48091A701813019F4E9
:1020D00083E08093A7010DC28091E2019091E3011A
:1020E000A091E401B091E501813B26EF92072AED32
:1020F000A20720E0B20780F48091E2019091E30111
:10210000A091E401B091E5018038EFE99E07E5ED8B
:10211000AE07E0E0BE0738F410923C0110923A019D
:1021200010923B0109C081E080933C0181E08093E3
:102130003A0181E080933B0120916801309169016F
:1021400040916A0150916B018091D4019091D50129
:10215000A091D601B091D70182179307A407B507C4
:1021600008F045C083E08093720184E08093C80149
:1021700080917301909174019C0140E050E0809146
:10218000680190916901A0916A01B0916B01820F81
:10219000931FA41FB51F8093D4019093D501A093E2
:1021A000D601B093D7018091680190916901A09107
:1021B0006A01B0916B018093E7019093E801A093CD
:1021C000E901B093EA018091D4019091D501A091E9
:1021D000D601B091D7018C599F4FAF4FBF4F80931D
:1021E000D8019093D901A093DA01B093DB018091DB
:1021F000DC01813039F48091A701813019F482E04B
:102200008093A70176C120916801309169014091C6
:102210006A0150916B018091D4019091D501A091F8
:10222000D601B091D70182179307A407B50708F02C
:10223000E2C08091A701823009F05DC082E0809306
:10224000C80180917301909174019C0140E050E0BD
:102250008091680190916901A0916A01B0916B0130
:10226000820F931FA41FB51F8093D4019093D501B3
:10227000A093D601B093D701809168019091690134
:10228000A0916A01B0916B010196A11DB11D8093CF
:10229000A8019093A901A093AA01B093AB018091EA
:1022A000D4019091D501A091D601B091D70180932E
:1022B000ED019093EE01A093EF01B093F0018091B6
:1022C000680190916901A0916A01B0916B018093BE
:1022D000E7019093E801A093E901B093EA018FEF41
:1022E0009FEFDC018093D8019093D901A093DA018C
:1022F000B093DB017AC08091A701833009F062C0FE
:1023000083E08093C8012091730130917401C90169
:10231000880F991F820F931F9C0140E050E080912D
:10232000680190916901A0916A01B0916B01820FDF
:10233000931FA41FB51F8093D4019093D501A09340
:10234000D601B093D7018091680190916901A09165
:102350006A01B0916B010196A11DB11D8093A80186
:102360009093A901A093AA01B093AB018091D401ED
:102370009091D501A091D601B091D7018093ED0144
:102380009093EE01A093EF01B093F001809168016A
:1023900090916901A0916A01B0916B018093E7016E
:1023A0009093E801A093E901B093EA018FEF9FEFCA
:1023B000DC018093D8019093D901A093DA01B09306
:1023C000DB0113C081E08093C80180916801909186
:1023D0006901A0916A01B0916B018093D40190933F
:1023E000D501A093D601B093D70184E08093720108
:1023F00081E08093A7018091DC01813061F48091BC
:102400007201833041F48091A701813021F482E090
:102410008093A7010FC08091C001813059F4809151
:102420007201823039F48091A701813019F483E080
:102430008093A70110923C0110923A018091E20131
:102440009091E301A091E401B091E501813BF6EFA9
:102450009F07FAEDAF07F0E0BF0780F48091E2013B
:102460009091E301A091E401B091E50180382FE95A
:10247000920725EDA20720E0B20718F410923B0165
:1024800003C081E080933B0134C010923C01109264
:102490003A0110923B01209168013091690140910D
:1024A0006A0150916B018091D4019091D501A09166
:1024B000D601B091D70182179307A407B50718F486
:1024C00081E08093C8018091680190916901A09199
:1024D0006A01B0916B01845D9E4FAF4FBF4F8093F7
:1024E000CD019093CE01A093CF01B093D00101C054
:1024F00000004DC78091C801882F90E0843091057D
:1025000044F4823091050CF049C18130910531F0DD
:10251000A1C1873091050CF09DC17CC120913E0185
:1025200030913F018091EB019091EC012817390720
:10253000C9F4809142018823A9F480913E019091D1
:102540003F01FC018081882F90E0809788599F4F40
:102550009B838A838A819B81FC0114911C838C81DB
:102560008093420180914201882309F4CEC080917A
:102570004201803829F0809142018F3F09F079C0F3
:1025800080914201803821F52091730130917401CE
:10259000C901880F991F820F931F9C0140E050E0F2
:1025A0008091680190916901A0916A01B0916B01DD
:1025B000820F931FA41FB51F8093D4019093D50160
:1025C000A093D601B093D70185E08093C80127C0BE
:1025D0002091730130917401C901880F991F880FF0
:1025E000991F880F991F821B930B9C0140E050E0BC
:1025F0008091680190916901A0916A01B0916B018D
:10260000820F931FA41FB51F8093D4019093D5010F
:10261000A093D601B093D70185E08093C801809143
:102620003E0190913F01019690933F0180933E01BE
:1026300080913E0190913F01FC018081882319F433
:102640001092420115C080913E0190913F01FC0122
:102650008081882F90E0809788599F4F9E838D833B
:102660008D819E81FC0114911F838F818093420193
:102670004BC080914201882324F520917301309151
:102680007401C901880F991F820F931F9C0140E0BC
:1026900050E08091680190916901A0916A01B09128
:1026A0006B01820F931FA41FB51F8093D4019093D9
:1026B000D501A093D601B093D70183E08093C801E0
:1026C0001EC080917301909174019C0140E050E024
:1026D0008091680190916901A0916A01B0916B01AC
:1026E000820F931FA41FB51F8093D4019093D5012F
:1026F000A093D601B093D70182E08093C801809166
:102700004201880F8093420148C08091EB01909173
:10271000EC012CE231E0B90141E050E00E94641B81
:102720008091EB019091EC0190933F0180933E01E9
:10273000109242018091CB019091CC019093BB010A
:102740008093BA018091BA019091BB01CC01A0E0C5
:10275000B0E0BC01CD010E94880C8091F201809311
:10276000E6018091E6010E9450048091B8018093B7
:10277000A201809172018093C8018091B40190916F
:10278000B501A091B601B091B7018093D4019093A7
:10279000D501A093D601B093D7015DC02091680107
:1027A0003091690140916A0150916B018091D4018F
:1027B0009091D501A091D601B091D70182179307CE
:1027C000A407B507F0F480917301909174019C0106
:1027D00040E050E08091680190916901A0916A0108
:1027E000B0916B01820F931FA41FB51F8093D4017A
:1027F0009093D501A093D601B093D70184E0809344
:10280000C80110923C0181E080933A0181E08093FD
:102810003B0121C0209168013091690140916A011A
:1028200050916B018091D4019091D501A091D60176
:10283000B091D70182179307A407B50718F481E078
:102840008093C80110923C0110923A0181E080937C
:102850003B0101C000009BC58091C801882F90E01A
:102860008730910509F450C08830910509F48DC076
:102870008130910509F0AFC08091680190916901A4
:10288000A0916A01B0916B010196A11DB11D8093C9
:10289000A8019093A901A093AA01B093AB018FEF77
:1028A0009FEFDC018093ED019093EE01A093EF0187
:1028B000B093F0018FEF9FEFDC018093D4019093F0
:1028C000D501A093D601B093D70180916801909172
:1028D0006901A0916A01B0916B018093E701909327
:1028E000E801A093E901B093EA018FEF9FEFDC01CB
:1028F0008093D8019093D901A093DA01B093DB01C2
:1029000087E08093C80167C081E080933C0181E04B
:1029100080933A0181E080933B018091DC0181301A
:1029200061F08091C001813041F08091C701813018
:1029300021F08091C501813039F588E08093C8018C
:102940008091680190916901A0916A01B0916B0139
:102950008C599F4FAF4FBF4F8093D4019093D501B7
:10296000A093D601B093D70180916801909169013D
:10297000A0916A01B0916B018093ED019093EE01FB
:10298000A093EF01B093F00126C010923C01109289
:102990003A0181E080933B01209168013091690107
:1029A00040916A0150916B018091D4019091D501C1
:1029B000A091D601B091D701281739074A075B07C4
:1029C00048F010923B0181E08093C80180916D0135
:1029D0008093A2010000DBC48091C801882F90E0A1
:1029E0008930910591F08A30910509F458C0813001
:1029F000910509F098C180E091E0909344018093A3
:102A0000430189E08093C80196C182E090E00E9472
:102A1000311A909346018093450180914501909130
:102A2000460160E070E042E050E00E946D1B809142
:102A30004501909146012091430130914401B90133
:102A400041E050E00E94641B80916801909169010F
:102A5000A0916A01B0916B018056904FAF4FBF4F6C
:102A60008093D4019093D501A093D601B093D70160
:102A70008AE08093C80180914501909146012091A0
:102A8000BA013091BB014091E601B9010E949F0655
:102A900080914501909146010E94CB1A4CC184E17E
:102AA00090E00E94311A90934101809340018091FF
:102AB00040019091410160E070E044E150E00E94EB
:102AC0006D1B209168013091690140916A0150911C
:102AD0006B018091D4019091D501A091D601B09164
:102AE000D701281739074A075B0708F003C180910F
:102AF000C701813049F581E00E946804809143015B
:102B000090914401019690934401809343018091F8
:102B1000430190914401FC018081882389F481E084
:102B20008093C80180916D018093A2012091E601FC
:102B300081E291E060E971E0422F0E949F06ECC0C3
:102B400089E08093C801E8C08091C501813009F017
:102B5000E2C081E00E9468048091430190914401A9
:102B6000FC018081882F90E083359105A1F08435A8
:102B700091054CF48B34910509F483C0823591059D
:102B800009F464C0C9C08635910509F470C0873561
:102B9000910521F1C1C08091680190916901A091D6
:102BA0006A01B0916B018056904FAF4FBF4F809339
:102BB000D4019093D501A093D601B093D70185E0BD
:102BC0008093A2012091BA013091BB014091E601AE
:102BD0008FE191E0B9010E949F069EC081E0809341
:102BE000C80180916D018093A201409140015091F4
:102BF00041018091E601282F30E000D000D000D0C4
:102C00008DB79EB70196FC01518340834DE251E0A0
:102C1000FC0153834283FC01358324830E94851B7E
:102C20008DB79EB706960FB6F8949EBF0FBE8DBFA8
:102C300080914001909141012091BA013091BB01F6
:102C40004091E601B9010E949F0666C01092C8013A
:102C500087E08093A2012091BA013091BB0140919D
:102C6000E6018FE191E0B9010E949F0655C081E025
:102C70008093C80180916D018093A2010E94020798
:102C80004BC080916D018823D9F481E080936D0160
:102C900081E08093C80180916D018093A20181E061
:102CA00090E060E00E94A71D2091BA013091BB0125
:102CB0004091E6018BE191E0B9010E949F062CC092
:102CC00010926D0181E08093C80180916D01809325
:102CD000A20181E090E061E00E94A71D2091BA016D
:102CE0003091BB014091E60180E391E0B9010E947F
:102CF0009F0612C081E08093C80180916D0180938E
:102D0000A2012091E60181E291E060E971E0422FA9
:102D10000E949F0601C000008091400190914101F6
:102D20000E94CB1A08C081E08093C80180916D0198
:102D30008093A20100002BC32091680130916901AA
:102D400040916A0150916B018091D4019091D5011D
:102D5000A091D601B091D701281739074A075B0720
:102D600008F063C08091C701813069F58091E60168
:102D7000883228F48091E6018F5F8093E60180918C
:102D8000E6010E9450048091680190916901A09130
:102D90006A01B0916B018056904FAF4FBF4F809347
:102DA000D4019093D501A093D601B093D70120917F
:102DB000BA013091BB014091E60182E391E0B90193
:102DC0000E949F0670C08091C501813009F06BC0E0
:102DD0008091E601863028F08091E6018150809351
:102DE000E6018091E6010E94500480916801909173
:102DF0006901A0916A01B0916B018056904FAF4F6D
:102E0000BF4F8093D4019093D501A093D601B09386
:102E1000D7012091BA013091BB014091E60182E3D4
:102E200091E0B9010E949F063EC02091E60180E03A
:102E300090E0622F0E94A71D81E08093C8018091DD
:102E40006D018093A2014091400150914101809118
:102E5000E601282F30E000D000D000D08DB79EB71B
:102E60000196FC01518340834DE251E0FC01538304
:102E70004283FC01358324830E94851B8DB79EB756
:102E800006960FB6F8949EBF0FBE8DBF809140018D
:102E9000909141012091BA013091BB014091E6012E
:102EA000B9010E949F0673C28091DC01813061F0FC
:102EB0008091C001813041F08091C701813021F0C3
:102EC0008091C5018130E9F58091EB019091EC0191
:102ED0002CE231E0B90141E050E00E94641B809196
:102EE000EB019091EC0190933F0180933E01109291
:102EF00042018091680190916901A0916A01B091AD
:102F00006B018093D8019093D901A093DA01B0931B
:102F1000DB018091B8018093A201809172018093BE
:102F2000C8018091B4019091B501A091B601B09112
:102F3000B7018093D4019093D501A093D601B093AB
:102F4000D7018091C801882F90E08430910544F426
:102F5000823091050CF0BBC18130910531F014C273
:102F6000873091050CF010C2EFC120913E013091E5
:102F70003F018091EB019091EC0128173907C9F4CA
:102F8000809142018823A9F480913E0190913F01F4
:102F9000FC018081882F90E0809788599F4F998706
:102FA000888788859985FC0114911A878A85809382
:102FB000420180914201882309F44BC18091420172
:102FC000803829F0809142018F3F09F079C08091CB
:102FD0004201803821F52091730130917401C901BB
:102FE000880F991F820F931F9C0140E050E0809151
:102FF000680190916901A0916A01B0916B01820F03
:10300000931FA41FB51F8093D4019093D501A09363
:10301000D601B093D70185E08093C80127C02091E5
:10302000730130917401C901880F991F880F991F8E
:10303000880F991F821B930B9C0140E050E0809108
:10304000680190916901A0916A01B0916B01820FB2
:10305000931FA41FB51F8093D4019093D501A09313
:10306000D601B093D70185E08093C80180913E01DD
:1030700090913F01019690933F0180933E01809192
:103080003E0190913F01FC018081882319F4109248
:10309000420115C080913E0190913F01FC01808169
:1030A000882F90E0809788599F4F9C878B878B85CE
:1030B0009C85FC0114911D878D8580934201C8C0B9
:1030C0008091420188230CF062C0209173013091FD
:1030D0007401C901880F991F820F931F9C0140E062
:1030E00050E08091680190916901A0916A01B091CE
:1030F0006B01820F931FA41FB51F8093D40190937F
:10310000D501A093D601B093D70183E08093C80185
:103110008091680190916901A0916A01B0916B0161
:103120000196A11DB11D8093A8019093A901A093C0
:10313000AA01B093AB018091D4019091D501A091E7
:10314000D601B091D7018093ED019093EE01A09349
:10315000EF01B093F0018091680190916901A09115
:103160006A01B0916B018093E7019093E801A0930D
:10317000E901B093EA018FEF9FEFDC018093D80162
:103180009093D901A093DA01B093DB015CC08091E8
:103190007301909174019C0140E050E080916801BE
:1031A00090916901A0916A01B0916B01820F931F08
:1031B000A41FB51F8093D4019093D501A093D6018D
:1031C000B093D70182E08093C8018091680190910B
:1031D0006901A0916A01B0916B010196A11DB11D19
:1031E0008093A8019093A901A093AA01B093AB0189
:1031F0008091D4019091D501A091D601B091D701D1
:103200008093ED019093EE01A093EF01B093F00154
:103210008091680190916901A0916A01B0916B0160
:103220008093E7019093E801A093E901B093EA014C
:103230008FEF9FEFDC018093D8019093D901A09389
:10324000DA01B093DB0180914201880F8093420143
:103250003DC08091EB019091EC012CE231E0B9018D
:1032600041E050E00E94641B8091EB019091EC01E1
:1032700090933F0180933E0110924201809168013A
:1032800090916901A0916A01B0916B018093D8017E
:103290009093D901A093DA01B093DB018091B8013A
:1032A0008093A201809172018093C8018091B40142
:1032B0009091B501A091B601B091B7018093D4016E
:1032C0009093D501A093D601B093D7015EC0209111
:1032D00068013091690140916A0150916B018091C0
:1032E000D4019091D501A091D601B091D701821758
:1032F0009307A407B507F0F48091730190917401CE
:103300009C0140E050E08091680190916901A0919A
:103310006A01B0916B01820F931FA41FB51F8093A8
:10332000D4019093D501A093D601B093D70184E046
:103330008093C80181E080933C0181E080933A0151
:1033400081E080933B0121C02091680130916901A7
:1033500040916A0150916B018091D4019091D50107
:10336000A091D601B091D70182179307A407B507A2
:1033700018F481E08093C80110923C0110923A0148
:1033800081E080933B0101C0000001C000000C946B
:10339000140D629FD001739FF001829FE00DF11D1B
:1033A000649FE00DF11D929FF00D839FF00D749FBF
:1033B000F00D659FF00D9927729FB00DE11DF91F6B
:1033C000639FB00DE11DF91FBD01CF0111240895C8
:1033D000AA1BBB1B51E107C0AA1FBB1FA617B7073B
:1033E00010F0A61BB70B881F991F5A95A9F7809557
:1033F0009095BC01CD01089597FB092E07260AD0B0
:1034000077FD04D0E5DF06D000201AF470956195B1
:103410007F4F0895F6F7909581959F4F0895A1E20B
:103420001A2EAA1BBB1BFD010DC0AA1FBB1FEE1F3E
:10343000FF1FA217B307E407F50720F0A21BB30B89
:10344000E40BF50B661F771F881F991F1A9469F705
:1034500060957095809590959B01AC01BD01CF0161
:103460000895CF93DF938230910510F482E090E0CD
:10347000E091F501F091F60140E050E020E030E00D
:1034800026C06081718168177907E0F068177907B5
:1034900081F4828193812115310531F0D901139690
:1034A0009C938E9312972BC09093F6018093F50115
:1034B00026C04115510519F06417750718F4AB01C2
:1034C000E901DF019F0172816381E72FF62F3097B9
:1034D000C1F64115510501F1481B590B4430510506
:1034E00080F412968D919C911397209719F09B83ED
:1034F0008A8304C09093F6018093F501FD01329612
:1035000046C0FD01E40FF51F819391934250504056
:1035100011965C934E933BC02091F3013091F401DE
:103520002115310541F42091360130913701309356
:10353000F4012093F30120913801309139012115D4
:10354000310541F42DB73EB740913401509135011A
:10355000241B350BE091F301F091F401E217F3071E
:10356000A0F42E1B3F0B2817390778F0AC014E5FF3
:103570005F4F2417350748F04E0F5F1F5093F4013B
:103580004093F3018193919302C0E0E0F0E0CF011A
:10359000DF91CF910895CF93DF93009709F491C005
:1035A000FC013297138212826091F5017091F6014D
:1035B0006115710581F420813181280F391F8091B7
:1035C000F3019091F4018217930799F5F093F401B8
:1035D000E093F30176C0DB0180E090E002C0CD0112
:1035E000D901AE17BF0748F412962D913C9113975D
:1035F00021153105A1F7CD0121C0B383A283EF01CD
:10360000499159919E01240F351FA217B30779F4F0
:103610002D913C911197240F351F2E5F3F4F318321
:10362000208312962D913C91139733832283009728
:1036300029F4F093F601E093F50143C0DC01139601
:10364000FC93EE9312974D915D91A40FB51FEA176D
:10365000FB0769F420813181240F351F2E5F3F4F16
:10366000EC0139832883228133813B832A83E0E084
:10367000F0E002C0FB01BC01DB0112968D919C9130
:1036800013970097B9F79B012E5F3F4F8D919C9147
:103690001197820F931F4091F3015091F401481745
:1036A000590779F4309729F41092F6011092F50138
:1036B00002C013821282225030403093F4012093D2
:1036C000F301DF91CF910895FB01DC0102C001906D
:1036D0000D9241505040D8F70895DC0101C06D9320
:1036E00041505040E0F70895FB01DC0101900D923C
:1036F0000020E1F70895DC016C9161566A3108F011
:10370000605E6F5B6D93C1F70895AEE0B0E0EBE8EB
:10371000FBE10C94631E0D891E8986E08C831A835D
:1037200009838FEF9FE79E838D839E01275E3F4F26
:10373000CE0101966F89788DA9010E94A81BEF81A7
:10374000F885E00FF11F10822E96E4E00C947F1EA6
:10375000ACE0B0E0EEEAFBE10C94551E6C011B01FD
:103760008A01FC0117821682838181FFD1C12E015B
:103770000894411C511CF6019381F10193FD859140
:1037800093FF81911F01882309F4BEC1853239F46A
:1037900093FD859193FF81911F01853229F490E07B
:1037A000B6010E94CB1DE7CFEE24FF2420E020329B
:1037B000B0F48B3269F08C3228F4803251F08332CD
:1037C00071F40BC08D3239F0803349F421602CC084
:1037D0002260246029C0286027C0206125C027FD01
:1037E0002CC0382F30533A3098F426FF08C08E2D65
:1037F000880FE82EEE0CEE0CE80EE30E15C08F2DB0
:10380000880FF82EFF0CFF0CF80EF30E20620CC090
:103810008E3221F426FD78C1206406C08C3611F466
:10382000206802C0883649F4F10193FD859193FF29
:1038300081911F01882309F0BACF982F95549330B6
:1038400018F09052933028F40C5F1F4FFFE3F98378
:103850000DC0833631F0833771F0833509F060C0D5
:1038600022C0F801808189830E5F1F4F420171E001
:10387000A72EB12C16C062E0662E712C600E711E50
:10388000F8018080918026FF03C06E2D70E002C099
:103890006FEF7FEFC4012C870E94C01D5C01830184
:1038A0002C852F7717C052E0652E712C600E711E8B
:1038B000F8018080918026FF03C06E2D70E002C069
:1038C0006FEF7FEFC4012C870E94B51D5C012C8532
:1038D0002068830123FD20C008C080E290E0B6018B
:1038E0002C870E94CB1DFA942C858F2D90E0A81672
:1038F000B90698F311C0F40127FD859127FF819146
:103900004F0190E0B6012C870E94CB1D2C85F11051
:10391000FA940894A108B108A114B10461F7F1C0A8
:10392000843611F0893649F527FF08C0F801608117
:103930007181828193810C5F1F4F09C0F801608102
:103940007181882777FD8095982F0E5F1F4F4FE676
:10395000B42EB22297FF09C090958095709561951D
:103960007F4F8F4F9F4FF0E8BF2AA2012AE030E03F
:103970000E94F71D782E741845C0853731F43FEE4C
:10398000B32EB2222AE030E025C099EFB92EB22240
:103990008F36C1F0803720F4883509F0B5C00DC0EE
:1039A000803721F0883709F0AFC002C020E1B22A89
:1039B000B4FE0BC084E0B82A08C0B4FE09C0E6E03B
:1039C000BE2A06C028E030E005C020E130E002C099
:1039D00020E132E0B7FE08C0F80160817181828188
:1039E00093810C5F1F4F07C0F8016081718180E0F7
:1039F00090E00E5F1F4FA2010E94F71D782E7418F1
:103A0000FFE7BF22B6FE0BC02EEFB2227E1438F4C1
:103A1000B4FE07C0B2FC05C08FEEB82202C0A72CCE
:103A200001C0AE2C8B2D90E0B4FE0DC0FE01E70D61
:103A3000F11D2081203319F4E9EEBE2209C0A394C0
:103A4000B2FE06C004C086789070009709F0A39477
:103A50008B2C9924B3FC14C0B0FE0FC0AF1428F413
:103A6000E72CEF0CEA18AF2C08C0E72C06C080E268
:103A700090E0B6010E94CB1DA394AF14C0F304C024
:103A8000AF1410F4FA1801C0FF2484FE0FC080E3C5
:103A900090E0B6010E94CB1D82FE1FC081FE03C0D4
:103AA00088E590E010C088E790E00DC0C4018678FA
:103AB0009070009791F081FC02C080E201C08BE21F
:103AC000B7FC8DE290E0B6010E94CB1D06C080E3FA
:103AD00090E0B6010E94CB1DEA947E14C0F37A9464
:103AE000F201E70DF11D808190E0B6010E94CB1D2F
:103AF0007720A9F706C080E290E0B6010E94CB1DB6
:103B0000FA94FF20C1F737CEF6012681378102C033
:103B10002FEF3FEFC9012C96E2E10C94711EDC01FE
:103B2000CB01FC01F999FECF06C0F2BDE1BDF89AC8
:103B3000319600B40D9241505040B8F70895F9996C
:103B4000FECF92BD81BDF89A992780B50895262FA2
:103B5000F999FECF1FBA92BD81BD20BD0FB6F89472
:103B6000FA9AF99A0FBE01960895FC0105906150EA
:103B700070400110D8F7809590958E0F9F1F089583
:103B8000FC016150704001900110D8F7809590952C
:103B90008E0F9F1F08950F931F93CF93DF938C0178
:103BA000EB018B8181FF1BC082FF0DC02E813F8105
:103BB0008C819D812817390764F4E881F98101938C
:103BC000F983E88306C0E885F985802F0995009779
:103BD00031F48E819F8101969F838E8302C00FEF07
:103BE0001FEFC801DF91CF911F910F910895FA0146
:103BF000AA27283051F1203181F1E8946F936E7F2C
:103C00006E5F7F4F8F4F9F4FAF4FB1E03ED0B4E01C
:103C10003CD0670F781F891F9A1FA11D680F791F5D
:103C20008A1F911DA11D6A0F711D811D911DA11D6E
:103C300020D009F468943F912AE0269F112430197E
:103C4000305D3193DEF6CF010895462F4770405D19
:103C50004193B3E00FD0C9F7F6CF462F4F70405DC8
:103C60004A3318F0495D31FD4052419302D0A9F723
:103C7000EACFB4E0A6959795879577956795BA951D
:103C8000C9F700976105710508959B01AC010A2EE3
:103C900006945795479537952795BA95C9F7620FBA
:103CA000731F841F951FA01D08952F923F924F925E
:103CB0005F926F927F928F929F92AF92BF92CF92BC
:103CC000DF92EF92FF920F931F93CF93DF93CDB7C5
:103CD000DEB7CA1BDB0B0FB6F894DEBF0FBECDBF3D
:103CE00009942A88398848885F846E847D848C840E
:103CF0009B84AA84B984C884DF80EE80FD800C8117
:103D00001B81AA81B981CE0FD11D0FB6F894DEBFF9
:0C3D10000FBECDBFED010895F894FFCF69
:103D1C00535752564B00010C01190125645225646E
:103D2C000025303275522530327500530054005244
:103D3C000058004F004C0055004343000025640020
:0A3D4C004B0049002000F7010000C1
:00000001FF
