:100000000C94D2000C94EF000C94EF000C94EF00D1
:100010000C94EF000C9451020C94EF000C945D01D1
:100020000C94EF000C94EF000C94EF000C94F10092
:100030000C94EF000C94EF000C94EF000C94EF0084
:100040000C94EF000C94EF000C94EF000C94EF0074
:100050000C94EF000C94EF000C94EF000C94EF0064
:100060000C94EF000C94EF00FF80808080808080F3
:100070008080808080808094FC7C3C1C0C0484C444
:10008000E4F48080808C8032806088A8904028D002
:10009000082078B048E0A0F068D85010C030187040
:1000A00098B8C8808386898C8F9295989C9FA2A5CA
:1000B000A8ABAEB0B3B6B9BCBFC1C4C7C9CCCED172
:1000C000D3D5D8DADCDEE0E2E4E6E8EAECEDEFF006
:1000D000F2F3F5F6F7F8F9FAFBFCFCFDFEFEFFFF84
:1000E000FFFFFFFFFFFFFFFFFFFEFEFDFCFCFBFA33
:1000F000F9F8F7F6F5F3F2F0EFEDECEAE8E6E4E212
:10010000E0DEDCDAD8D5D3D1CECCC9C7C4C1BFBC00
:10011000B9B6B3B0AEABA8A5A29F9C9895928F8CB0
:10012000898683807C797673706D6A6763605D5AB7
:100130005754514F4C494643403E3B383633312E9D
:100140002C2A272523211F1D1B1917151312100FE9
:100150000D0C0A090807060504030302010100004B
:10016000000000000000000000010102030304057C
:10017000060708090A0C0D0F1012131517191B1D7D
:100180001F212325272A2C2E313336383B3E40436E
:1001900046494C4F5154575A5D6063676A6D70739E
:1001A00076797C0011241FBECFEFD4E0DEBFCDBF37
:1001B00011E0A0E0B1E0E2E4FDE302C005900D92A1
:1001C000AA33B107D9F711E0AAE3B1E001C01D924B
:1001D000A33FB107E1F70E94CC0C0C949F1E0C9436
:1001E00000001F920F920FB60F9211241F932F93AE
:1001F0003F934F935F938F939F93AF93BF93EF93EF
:10020000FF93DF93CF9300D00F92CDB7DEB78091ED
:100210003A01813009F03CC020919E0130919F014C
:100220004091A0015091A1018091B0019091B10144
:10023000A091B201B091B301820F931FA41FB51F0B
:1002400080939E0190939F01A093A001B093A10180
:1002500080919E0190919F01A091A001B091A10178
:100260008B2F9927AA27BB2780936C0187E490E006
:1002700020916C01222F30E02D553F4F3A83298386
:1002800029813A81F90114911B832B81FC01208380
:100290002396DEBFCDBFCF91DF91FF91EF91BF914C
:1002A000AF919F918F915F914F913F912F911F91AE
:1002B0000F900FBE0F901F9018951F920F920FB6C0
:1002C0000F9211242F933F934F935F936F937F93DC
:1002D0008F939F93AF93BF93EF93FF93DF93CF934E
:1002E000CDB7DEB780913B01813051F488E290E0D8
:1002F00028E230E0F90120812062FC01208309C05E
:1003000088E290E028E230E0F90120812F7DFC01B5
:10031000208380913C01813009F043C020916E011F
:1003200030916F0140917001509171018091E9010C
:100330009091EA01A091EB01B091EC0128173907E7
:100340004A075B0770F520916E0130916F01409173
:100350007001509171018091A8019091A901A09123
:10036000AA01B091AB0182179307A407B507C8F49F
:100370008091CA01813021F08091CA01823021F43C
:1003800081E00E948F0C03C080E00E948F0C88E205
:1003900090E028E230E0F90120812061FC01208317
:1003A0000DC08091C9010E948F0C88E290E028E284
:1003B00030E0F90120812F7EFC0120838091CA0169
:1003C000882309F445C08091CA01813051F488E244
:1003D00090E028E230E0F90120812260FC012083D6
:1003E00037C08091CA01823099F52091680130911F
:1003F000690140916A0150916B018091D501909102
:10040000D601A091D701B091D80182179307A40714
:10041000B507F0F488E290E028E230E0F90130819D
:1004200022E02327FC0120838091680190916901DB
:10043000A0916A01B0916B018C509E4FAF4FBF4F9E
:100440008093D5019093D601A093D701B093D801A2
:1004500080E00E94950480916E0190916F01A091BF
:100460007001B09171010196A11DB11D80936E01C3
:1004700090936F01A0937001B0937101CF91DF91C0
:10048000FF91EF91BF91AF919F918F917F916F916C
:100490005F914F913F912F910F900FBE0F901F9042
:1004A00018951F920F920FB60F9211248F939F935E
:1004B000AF93BF93EF93FF93DF93CF93CDB7DEB7A7
:1004C00088E690E0FC01108280916D018093A2018A
:1004D00081E08093C0018091680190916901A091B1
:1004E0006A01B0916B018C599F4FAF4FBF4F809302
:1004F000CC019093CD01A093CE01B093CF01809118
:10050000680190916901A0916A01B0916B01845DCD
:100510009E4FAF4FBF4F8093C5019093C601A093EC
:10052000C701B093C801CF91DF91FF91EF91BF91C7
:10053000AF919F918F910F900FBE0F901F901895C4
:10054000DF93CF9300D0CDB7DEB7F89481E690E08B
:1005500020E8FC01208381E690E0FC01108284E425
:1005600090E021E8FC01208385E490E021E0FC019B
:10057000208381E890E029E0FC01208380E890E07E
:10058000FC01108288E890E028EE33E0FC01318322
:1005900020838FE690E022E0FC01208380EB90E056
:1005A00022E0FC01208381EB90E024E0FC01208329
:1005B00080E790E020E730E0F90120812260FC0133
:1005C000208383EB90E029EFFC0120838AE790E011
:1005D0002AE730E0F90120812468FC0120838CE7C0
:1005E00090E020E6FC0120838BE690E021E0FC0116
:1005F00020838DE690E02FE9FC0120838AE290E0E1
:100600002AE230E0F90120812064FC01208387E2A6
:1006100090E027E230E0F90120812062FC01208394
:1006200087E290E027E230E0F90120812061FC01BF
:10063000208387E290E027E230E0F90120812D7FDE
:10064000FC01208388E290E028E230E0F90120817B
:100650002D7FFC0120838AE290E02AE230E0F9015C
:100660002081277FFC0120838BE290E02BE230E0A9
:10067000F90120812860FC0120838AE290E02AE2CF
:1006800030E0F90120812F7EFC0120838BE290E095
:100690002BE230E0F90120812061FC0120838AE215
:1006A00090E02AE230E0F90120812B7FFC012083D9
:1006B0008BE290E02BE230E0F90120812460FC0124
:1006C00020838AE290E02AE230E0F90120812D7F48
:1006D000FC0120838BE290E02BE230E0F9012081E5
:1006E0002260FC01208384E290E024E230E0F90102
:1006F00020812E7FFC01208385E290E025E230E01E
:10070000F90120812160FC0120838AE290E02AE245
:1007100030E0F90120812F77FC0120838BE290E00B
:100720002BE230E0F90120812068FC0120838AE27D
:1007300090E02AE230E0F90120812E7FFC01208345
:100740008BE290E02BE230E0F90120812160FC0196
:10075000208384E290E024E230E0F90120812E62DF
:10076000FC0120838CE490E029E5FC0120838DE4EA
:1007700090E0FC0180818A838EE490E0FC0180811E
:100780008A8384E690E024E630E0F9012081206845
:10079000FC01208384E690E024E630E0F90120812A
:1007A0002260FC01208383E590E023E530E0F9013D
:1007B0002081217F2C60FC01208381E080937201E5
:1007C00081E08093C00181E08093A70110926E01C7
:1007D00010926F0110927001109271018CE09FE1F4
:1007E000A1E1B5E08093AC019093AD01A093AE017F
:1007F000B093AF0180EE99E8A6EDB0E08093DA0106
:100800009093DB01A093DC01B093DD018091AC01FA
:100810009091AD01A091AE01B091AF01BC01CD01AD
:1008200040E021E00E94EF0B8091AC019091AD017E
:10083000A091AE01B091AF01BC01CD0141E020E03B
:100840000E94EF0B84EF91E09093BB018093BA017B
:100850008091BA019091BB01CC01A0E0B0E0BC0155
:10086000CD010E94A50C1092CA011092C9011982F3
:1008700006C080E00E94950489818F5F8983898109
:100880008F30B8F38FE390E0FC018081882F90E0F7
:10089000827090700097B1F780E090E00E94B21DE6
:1008A0008093DE018091DE010E947D048FE390E061
:1008B000FC018081882F90E0827090700097B1F7E2
:1008C00081E090E00E94B21D882321F481E08093B2
:1008D000A20102C01092A2018091BC01813039F4C2
:1008E0008091D401882319F481E08093A201789447
:1008F0000F900F90CF91DF910895DF93CF930F92D8
:10090000CDB7DEB789838981282F30E080EB94E072
:10091000B9010E940F1A9B01C90190937401809341
:1009200073010F90CF91DF910895DF93CF930F92D2
:10093000CDB7DEB789838981813041F510925001AE
:1009400010924F01109252011092510110925401D5
:1009500010925301109256011092550110925801B5
:100960001092570110925A011092590110925C0195
:1009700010925B0110925E0110925D011092600175
:1009800010925F01109262011092610189E290E081
:10099000FC018081882F90E0887090700097A9F406
:1009A00080914F01909150018530910548F48091DC
:1009B0004F019091500101969093500180934F0107
:1009C000109254011092530114C0809153019091E0
:1009D00054018530910548F4809153019091540160
:1009E00001969093540180935301109250011092FC
:1009F0004F0189E290E0FC018081882F90E08071B6
:100A000090700097A9F48091510190915201853026
:100A1000910548F480915101909152010196909373
:100A2000520180935101109256011092550114C049
:100A300080915501909156018530910548F480913F
:100A4000550190915601019690935601809355015E
:100A5000109252011092510180914F0190915001DA
:100A60008530910518F081E08093D4018091530185
:100A7000909154018530910510F01092D40180912D
:100A80005101909152018530910518F081E08093D9
:100A9000BC0180915501909156018530910510F06F
:100AA0001092BC0189E290E0FC018081882F90E0E7
:100AB000847090700097A1F489E290E0FC0180813D
:100AC000882F90E082709070009751F480915B01C4
:100AD00090915C01019690935C0180935B0125C02D
:100AE00080915B0190915C018530910560F080916F
:100AF0005B0190915C01F1E0843F9F0720F481E06D
:100B00008093BE010EC080915B0190915C0121E059
:100B1000843F920720F082E08093BE0102C01092D1
:100B2000BE0110925C0110925B0189E290E0FC0131
:100B30008081882F90E084709070009751F48091AC
:100B40005701909158010196909358018093570155
:100B500025C080915701909158018530910560F032
:100B60008091570190915801F1E0843F9F0720F454
:100B700081E08093BF010EC0809157019091580190
:100B800021E0843F920720F082E08093BF0102C001
:100B90001092BF01109258011092570189E290E023
:100BA000FC018081882F90E082709070009751F452
:100BB0008091590190915A01019690935A01809326
:100BC000590125C08091590190915A0185309105B4
:100BD00060F08091590190915A01F1E0843F9F07A4
:100BE00020F481E08093BD010EC080915901909165
:100BF0005A0121E0843F920720F082E08093BD01FA
:100C000002C01092BD0110925A011092590189E25E
:100C100090E0FC018081882F90E0817090700097B7
:100C200051F480915D0190915E01019690935E0177
:100C300080935D0125C080915D0190915E018530BA
:100C4000910560F080915D0190915E01F1E0843F3B
:100C50009F0720F481E08093CB010EC080915D015D
:100C600090915E0121E0843F920720F082E0809322
:100C7000CB0102C01092CB0110925E0110925D0177
:100C800083E290E0FC018081882F90E08170907079
:100C90000097A9F480915F019091600185309105E2
:100CA00048F480915F0190916001019690936001FA
:100CB00080935F01109264011092630114C08091CF
:100CC0006301909164018530910548F4809163013E
:100CD0009091640101969093640180936301109256
:100CE000600110925F0189E290E0FC01808188231D
:100CF000ACF080916101909162018530910548F4DA
:100D000080916101909162010196909362018093BC
:100D10006101109266011092650114C08091650115
:100D2000909166018530910548F48091650190911C
:100D300066010196909366018093650110926201AD
:100D40001092610180915F01909160018530910561
:100D500018F081E0809367018091630190916401B4
:100D60008530910510F0109267018091610190919A
:100D700062018530910518F081E08093ED0180914A
:100D80006501909166018530910510F01092ED019A
:100D90000F90CF91DF910895DF93CF9300D000D0D3
:100DA0000F92CDB7DEB79A8389837C836B834D83A3
:100DB00089819A810E948E1B8091E7019091E801C0
:100DC00029813A81B9010E94871B8091C0018093DB
:100DD00072018091CC019091CD01A091CE01B09192
:100DE000CF018093B4019093B501A093B601B09365
:100DF000B7018091A2018093B8018091BA019091CE
:100E0000BB019093C4018093C3018B819C8190931B
:100E1000BB018093BA018091DE018093EE018D8148
:100E20008093DE018091BA019091BB01CC01A0E0DA
:100E3000B0E0BC01CD010E94A50C8091DE010E94B2
:100E40007D0481E08093C00182E08093A2010F9035
:100E50000F900F900F900F90CF91DF910895DF9337
:100E6000CF9300D000D000D0CDB7DEB78AE090E0BD
:100E70000E94441A9A8389838AE790E02AE730E047
:100E8000D9012C912064FC0120838AE790E0DC01E9
:100E90008C91882F90E0807490700097B1F789E76B
:100EA00090E0FC018081882F90E09C838B834B81B4
:100EB0005C8121EA30E0429FC001439F900D529F28
:100EC000900D1124892F99279E838D838D819E817A
:100ED0002AE030E0B9010E94FB199B01F9018D81E4
:100EE0009E812AE030E0B9010E94FB199C018DB778
:100EF0009EB708970FB6F8949EBF0FBE8DBF8DB7F3
:100F00009EB7019649815A81DC014D935C934BE079
:100F100051E0DC0113965C934E931297DC01159619
:100F2000FC93EE931497FC01378326830E94981B51
:100F30008DB79EB708960FB6F8949EBF0FBE8DBFB3
:100F40002091BA013091BB014091DE0189819A81E3
:100F5000B9010E94CC0689819A810E94DE1A2696E8
:100F60000FB6F894DEBF0FBECDBFCF91DF910895CD
:100F70000F931F93DF93CF9300D0CDB7DEB78FE0F1
:100F800090E00E94441A9A8389838091DA019091BB
:100F9000DB01A091DC01B091DD0128EE33E040E0FF
:100FA00050E0BC01CD010E94221ADA01C90124E6F9
:100FB00030E040E050E0BC01CD010E94221ADC018B
:100FC000CB018C018091DA019091DB01A091DC01D1
:100FD000B091DD0128EE33E040E050E0BC01CD01EE
:100FE0000E94221ADC01CB012AE030E040E050E010
:100FF000BC01CD010E94221ADA01C9019C018DB702
:101000009EB708970FB6F8949EBF0FBE8DBF8DB7E1
:101010009EB7019649815A81FC015183408341E189
:1010200051E0FC0153834283FC0115830483FC01DE
:10103000378326830E94981B8DB79EB708960FB6FC
:10104000F8949EBF0FBE8DBF2091BA013091BB01B5
:101050004091DE0189819A81B9010E94CC06898183
:101060009A810E94DE1A0F900F90CF91DF911F910D
:101070000F910895EF92FF920F931F93DF93CF93F9
:101080000F92CDB7DEB78091BE018230F9F481E0D6
:101090008093C0018091A2018093B80183E0809386
:1010A000A2018091680190916901A0916A01B091BB
:1010B0006B01845D9E4FAF4FBF4F8093C5019093EE
:1010C000C601A093C701B093C80172C08091BF014F
:1010D0008130F9F48091A2018093B80184E080937B
:1010E000A20181E08093C001809168019091690123
:1010F000A0916A01B0916B01845D9E4FAF4FBF4FCD
:101100008093C5019093C601A093C701B093C80115
:101110004FC08091BD018130B9F40E94B807809121
:10112000680190916901A0916A01B0916B01845DA1
:101130009E4FAF4FBF4F8093C5019093C601A093C0
:10114000C701B093C80134C08091BD01823081F5E0
:1011500085E791E022E030E0B90148E250E00E94EA
:10116000A21D8091E7019091E80125E731E0B901E6
:101170000E94871B81E08093C0018091A20180932F
:10118000B80186E08093A201809168019091690185
:10119000A0916A01B0916B01845D9E4FAF4FBF4F2C
:1011A0008093C5019093C601A093C701B093C80175
:1011B0008091CB01813009F077C08091CA018823EA
:1011C00009F059C080910601813051F51092060155
:1011D00084E390E0909308018093070185E0809379
:1011E00009018091680190916901A0916A01B09113
:1011F0006B01845D9E4FAF4FBF4F8093C5019093AD
:10120000C601A093C701B093C80181E00E94950474
:101210008BE191E060E971E049E10E94CC0699C15F
:1012200081E0809306018CE091E090930801809327
:10123000070189E18093090180916801909169011A
:10124000A0916A01B0916B01845D9E4FAF4FBF4F7B
:101250008093C5019093C601A093C701B093C801C4
:1012600081E00E9495048BE191E064E873E049E13C
:101270000E94CC066EC18091C901882359F481E097
:101280008093C9018DE191E060E971E049E10E943C
:10129000CC065FC11092C9018FE191E060E971E075
:1012A00049E10E94CC0655C18091CB01823009F002
:1012B00050C18091CA018F5F8093CA018091CA0199
:1012C000833010F01092CA018091CA01882F90E0FB
:1012D0008130910529F08230910509F460C0CAC0BF
:1012E00087E290E027E230E0F90120812260FC01F2
:1012F00020831092060184E390E09093080180938C
:10130000070185E0809309018091AC019091AD01C6
:10131000A091AE01B091AF018093DF019093E00105
:10132000A093E101B093E2018091DF019091E0018F
:10133000A091E101B091E201BC01CD0140E020E0CB
:101340000E94EF0B8091DF019091E001A091E101FB
:10135000B091E201BC01CD0141E020E00E94EF0B21
:1013600081E00E9495048091680190916901A091AB
:101370006A01B0916B01845D9E4FAF4FBF4F809368
:10138000C5019093C601A093C701B093C8018FE136
:1013900091E064E873E049E10E94CC06DAC087E29C
:1013A00090E027E230E0F90120812260FC012083F7
:1013B0008091680190916901A0916A01B0916B01DF
:1013C0008C509E4FAF4FBF4F8093D5019093D60165
:1013D000A093D701B093D80181E0809306018CE0FF
:1013E00091E0909308018093070189E180930901BE
:1013F0008091DF019091E001A091E101B091E201C3
:10140000BC01CD0140E020E00E94EF0B8091DF01A4
:101410009091E001A091E101B091E201BC01CD0108
:1014200041E020E00E94EF0B81E08093C9018091B0
:10143000C9010E948F0C81E00E949504809168018F
:1014400090916901A0916A01B0916B01845D9E4FFA
:10145000AF4FBF4F8093C5019093C601A093C701C2
:10146000B093C80181E291E064E873E049E10E9431
:10147000CC066FC087E290E027E230E0F9012081DE
:101480002D7FFC01208388E290E028E230E0F90122
:1014900020812D7FFC01208381E0809306018CE078
:1014A00091E0909308018093070189E180930901FD
:1014B0008091DF019091E001A091E101B091E20102
:1014C0008093AC019093AD01A093AE01B093AF01B6
:1014D0008091AC019091AD01A091AE01B091AF01AE
:1014E000BC01CD0140E020E00E94EF0B8091AC01F7
:1014F0009091AD01A091AE01B091AF01BC01CD01C1
:1015000041E020E00E94EF0B1092C9018091C901D7
:101510000E948F0C81E00E94950480916801909157
:101520006901A0916A01B0916B01845D9E4FAF4F3C
:10153000BF4F8093C5019093C601A093C701B0939C
:10154000C80183E291E064E873E049E10E94CC06BF
:101550000000198280916701882319F089818E5FCC
:1015600089838091ED01882319F089818F5F8983B8
:1015700080914E019981981709F426C180914E01FE
:101580008695817080934E018091680190916901E8
:10159000A0916A01B0916B01845D9E4FAF4FBF4F28
:1015A0008093C5019093C601A093C701B093C80171
:1015B00080914E01282F30E08981882F90E0817042
:1015C0009070822793278130910509F083C0809124
:1015D000CA01813021F48091C901882369F080918A
:1015E000CA01823021F48091C901813029F08091B3
:1015F000CA01882309F0E8C08091DA019091DB01EB
:10160000A091DC01B091DD018138FFE99F07F5ED84
:10161000AF07F0E0BF0708F452C02091AC01309151
:10162000AD014091AE015091AF01809107019091C1
:101630000801CC01A0E0B0E079018A01E81AF90ABA
:101640000A0B1B0BD801C7018093AC019093AD012D
:10165000A093AE01B093AF012091DA013091DB018C
:101660004091DC015091DD0180910901882F90E0CB
:10167000A0E0B0E079018A01E81AF90A0A0B1B0B15
:10168000D801C7018093DA019093DB01A093DC01BC
:10169000B093DD018091AC019091AD01A091AE01BC
:1016A000B091AF012091C901BC01CD01422F20E0D2
:1016B0000E94EF0B8091C9010E948F0C85C085E2CA
:1016C00091E064E873E049E10E94CC0681E00E9469
:1016D00095047AC08091CA01813021F48091C901BA
:1016E000882369F08091CA01823021F48091C90178
:1016F000813029F08091CA01882309F065C080916A
:10170000DA019091DB01A091DC01B091DD01803B19
:1017100006EF90070AEDA00700E0B00708F04AC006
:1017200080910701909108019C0140E050E0809178
:10173000AC019091AD01A091AE01B091AF01820FCB
:10174000931FA41FB51F8093AC019093AD01A0938C
:10175000AE01B093AF0180910901282F30E040E045
:1017600050E08091DA019091DB01A091DC01B09111
:10177000DD01820F931FA41FB51F8093DA019093A0
:10178000DB01A093DC01B093DD018091AC0190916D
:10179000AD01A091AE01B091AF012091C901BC0192
:1017A000CD01422F20E00E94EF0B8091C9010E94E1
:1017B0008F0C0AC087E291E064E873E049E10E947F
:1017C000CC0681E00E949504898180934E010F90A0
:1017D000CF91DF911F910F91FF90EF900895DF93CC
:1017E000CF93CDB7DEB72C970FB6F894DEBF0FBE00
:1017F000CDBF6F83788789879A874B872C878B85A6
:10180000813029F480E090E89A83898304C080E0E5
:1018100090E49A8389838F8198859C013F738981A5
:101820009A81820F931F9C838B838F819885A985D2
:10183000BA85072E7EE0B695A795979587957A95F8
:10184000D1F7702D9C013F7389819A81820F931F7C
:101850009E838D838C85813021F480E091E20E940B
:101860004D0C8B819C810E944D0C8D819E810E942C
:101870004D0C8C85813041F480E090EC0E944D0C41
:1018800080E090E20E944D0C2C960FB6F894DEBFDB
:101890000FBECDBFCF91DF910895DF93CF9300D0DE
:1018A000CDB7DEB79A83898385E290E025E230E008
:1018B000F90120812062FC01208385E290E025E28D
:1018C00030E0F90120812D7FFC0120838EE490E03F
:1018D00029813A81232F3327FC01208300008DE4E6
:1018E00090E0FC0180818823D4F78EE490E0298188
:1018F000FC01208300008DE490E0FC0180818823BE
:10190000D4F785E290E025E230E0F9012081226001
:10191000FC0120830F900F90CF91DF910895DF930A
:10192000CF930F92CDB7DEB789838981813029F4B7
:1019300080E098E20E944D0C04C080E090E20E949A
:101940004D0C0F90CF91DF910895DF93CF9300D08E
:1019500000D0CDB7DEB769837A838B839C8389817E
:101960009A81AB81BC8123E938E144E050E0BC01BD
:10197000CD010E94DC19DC01CB018093B001909372
:10198000B101A093B201B093B3010F900F900F90EB
:101990000F90CF91DF9108951F93DF93CF93CDB731
:1019A000DEB72C970FB6F894DEBF0FBECDBF89E22D
:1019B00090E00E94441A9093E8018093E70180919F
:1019C000E7019091E80160E070E049E250E00E9498
:1019D000801B8091E7019091E80190933F018093F3
:1019E0003E0189E290E00E94441A90934101809365
:1019F0004001809140019091410160E070E049E236
:101A000050E00E94801B0E94A0022091BA013091F8
:101A1000BB0189E291E0B9014FE00E94CC06F89445
:101A200080916E0190916F01A0917001B091710150
:101A30008093680190936901A0936A01B0936B0150
:101A400078948091A201882F90E08330910509F469
:101A5000F9C68430910564F481309105C9F0823073
:101A600091050CF03DC5009709F40BC10C94D919F0
:101A70008530910511F40C94A516853091050CF470
:101A8000A0C78630910511F40C9467170C94D919EE
:101A900081E080936D010E943A088091C001882FF7
:101AA00090E08730910509F440C08C30910509F42D
:101AB000A3C08130910509F0E2C010923C01109260
:101AC0003A0110923B018091D401813051F580910F
:101AD000680190916901A0916A01B0916B018093B6
:101AE000A8019093A901A093AA01B093AB018FEF35
:101AF0009FEFDC018093E9019093EA01A093EB0151
:101B0000B093EC018FEF9FEFDC018093CC019093B9
:101B1000CD01A093CE01B093CF0187E08093C001A7
:101B200003C081E08093C001AAC08091DA01909146
:101B3000DB01A091DC01B091DD01813B26EF920732
:101B40002AEDA20720E0B20780F48091DA0190919B
:101B5000DB01A091DC01B091DD018038EFE99E0747
:101B6000E5EDAE07E0E0BE0738F410923C011092BC
:101B70003A0110923B0109C081E080933C0181E071
:101B800080933A0181E080933B018091D4018823C6
:101B900039F58CE08093C0018091680190916901D2
:101BA000A0916A01B0916B01C296A11DB11D8093F5
:101BB000CC019093CD01A093CE01B093CF01809141
:101BC000680190916901A0916A01B0916B018093C5
:101BD000E9019093EA01A093EB01B093EC010BC0F3
:101BE0008FEF9FEFDC018093E9019093EA01A093CE
:101BF000EB01B093EC0143C010923C0110923A010A
:101C00008091DA019091DB01A091DC01B091DD01BE
:101C1000813BF6EF9F07FAEDAF07F0E0BF0780F4D6
:101C20008091DA019091DB01A091DC01B091DD019E
:101C300080382FE9920725EDA20720E0B20718F4BB
:101C400010923B0103C081E080933B012091680129
:101C50003091690140916A0150916B018091CC01F2
:101C60009091CD01A091CE01B091CF0128173907F5
:101C70004A075B0718F081E08093C00100000C94D4
:101C8000DA1910926D010E943A088091C001882FE4
:101C900090E08330910509F415C28430910544F435
:101CA0008130910571F08230910509F475C115C438
:101CB0008430910509F49CC28C30910509F4DAC393
:101CC0000CC410923C0110923A0110923B01809199
:101CD000680190916901A0916A01B0916B018093B4
:101CE000D0019093D101A093D201B093D301809100
:101CF000D401813009F068C08091BC01882309F0CB
:101D000063C081E08093720182E08093C00181E032
:101D10008093A70180917301909174019C0140E030
:101D200050E08091680190916901A0916A01B091A1
:101D30006B01820F931FA41FB51F8093CC0190935A
:101D4000CD01A093CE01B093CF0180916801909115
:101D50006901A0916A01B0916B010196A11DB11DAD
:101D60008093A8019093A901A093AA01B093AB011D
:101D70008091CC019091CD01A091CE01B091CF0185
:101D80008093E9019093EA01A093EB01B093EC01F9
:101D90008091680190916901A0916A01B0916B01F5
:101DA0008093E3019093E401A093E501B093E601F1
:101DB0008FEF9FEFDC018093D0019093D101A0932E
:101DC000D201B093D301E7C08091BC01813009F00A
:101DD0006DC08091D401882309F068C081E08093B0
:101DE000720183E08093C00181E08093A70120917C
:101DF000730130917401C901880F991F820F931FDD
:101E00009C0140E050E08091680190916901A091AF
:101E10006A01B0916B01820F931FA41FB51F8093BD
:101E2000CC019093CD01A093CE01B093CF018091CE
:101E3000680190916901A0916A01B0916B010196CE
:101E4000A11DB11D8093A8019093A901A093AA019F
:101E5000B093AB018091CC019091CD01A091CE01C6
:101E6000B091CF018093E9019093EA01A093EB0137
:101E7000B093EC018091680190916901A0916A0191
:101E8000B0916B018093E3019093E401A093E5018D
:101E9000B093E6018FEF9FEFDC018093D001909328
:101EA000D101A093D201B093D30175C08091D40128
:101EB000813009F06DC08091BC01813009F068C0AB
:101EC0008091A701813009F063C081E080937201A5
:101ED00082E08093C00183E08093A7018091730129
:101EE000909174019C0140E050E0809168019091D4
:101EF0006901A0916A01B0916B01820F931FA41F29
:101F0000B51F8093CC019093CD01A093CE01B093E7
:101F1000CF018091680190916901A0916A01B0910F
:101F20006B010196A11DB11D8093A8019093A90199
:101F3000A093AA01B093AB018091CC019091CD0107
:101F4000A091CE01B091CF018093E9019093EA0175
:101F5000A093EB01B093EC0180916801909169012D
:101F6000A0916A01B0916B018093E3019093E40129
:101F7000A093E501B093E6018FEF9FEFDC01809322
:101F8000D0019093D101A093D201B093D30103C0AB
:101F900081E08093C001A2C28091DA019091DB01BF
:101FA000A091DC01B091DD01813BE6EF9E07EAEDF7
:101FB000AE07E0E0BE0780F48091DA019091DB018A
:101FC000A091DC01B091DD018038FFE99F07F5EDBC
:101FD000AF07F0E0BF0738F410923C0110923A01CD
:101FE00010923B0109C081E080933C0181E0809325
:101FF0003A0181E080933B012091680130916901B1
:1020000040916A0150916B018091CC019091CD017A
:10201000A091CE01B091CF0182179307A407B50715
:1020200008F044C082E08093720184E08093C00194
:1020300080917301909174019C0140E050E0809187
:10204000680190916901A0916A01B0916B01820FC2
:10205000931FA41FB51F8093CC019093CD01A09333
:10206000CE01B093CF018091680190916901A09158
:102070006A01B0916B018093E3019093E401A09316
:10208000E501B093E6018091CC019091CD01A09142
:10209000CE01B091CF01C296A11DB11D8093D00198
:1020A0009093D101A093D201B093D3018091BC0150
:1020B000813039F48091A701813019F483E0809355
:1020C000A7010CC28091DA019091DB01A091DC01A3
:1020D000B091DD01813B26EF92072AEDA20720E0B7
:1020E000B20780F48091DA019091DB01A091DC01CC
:1020F000B091DD018038EFE99E07E5EDAE07E0E045
:10210000BE0738F410923C0110923A0110923B0144
:1021100009C081E080933C0181E080933A0181E035
:1021200080933B01209168013091690140916A01DF
:1021300050916B018091CC019091CD01A091CE0185
:10214000B091CF0182179307A407B50708F044C0E8
:1021500083E08093720184E08093C00180917301D9
:10216000909174019C0140E050E080916801909151
:102170006901A0916A01B0916B01820F931FA41FA6
:10218000B51F8093CC019093CD01A093CE01B09365
:10219000CF018091680190916901A0916A01B0918D
:1021A0006B018093E3019093E401A093E501B09368
:1021B000E6018091CC019091CD01A091CE01B0912A
:1021C000CF01C296A11DB11D8093D0019093D10182
:1021D000A093D201B093D3018091D401813039F41E
:1021E0008091A701813019F482E08093A70176C124
:1021F000209168013091690140916A0150916B0111
:102200008091CC019091CD01A091CE01B091CF01F0
:1022100082179307A407B50708F0E2C08091A701D1
:10222000823009F05DC082E08093C001809173012B
:10223000909174019C0140E050E080916801909180
:102240006901A0916A01B0916B01820F931FA41FD5
:10225000B51F8093CC019093CD01A093CE01B09394
:10226000CF018091680190916901A0916A01B091BC
:102270006B010196A11DB11D8093A8019093A90146
:10228000A093AA01B093AB018091CC019091CD01B4
:10229000A091CE01B091CF018093E9019093EA0122
:1022A000A093EB01B093EC018091680190916901DA
:1022B000A0916A01B0916B018093E3019093E401D6
:1022C000A093E501B093E6018FEF9FEFDC018093CF
:1022D000D0019093D101A093D201B093D3017AC0E1
:1022E0008091A701833009F062C083E08093C00130
:1022F0002091730130917401C901880F991F820FD9
:10230000931F9C0140E050E0809168019091690129
:10231000A0916A01B0916B01820F931FA41FB51F9A
:102320008093CC019093CD01A093CE01B093CF01C7
:102330008091680190916901A0916A01B0916B014F
:102340000196A11DB11D8093A8019093A901A093AE
:10235000AA01B093AB018091CC019091CD01A091E5
:10236000CE01B091CF018093E9019093EA01A0934F
:10237000EB01B093EC018091680190916901A0910B
:102380006A01B0916B018093E3019093E401A09303
:10239000E501B093E6018FEF9FEFDC018093D00160
:1023A0009093D101A093D201B093D30113C081E0E7
:1023B0008093C0018091680190916901A0916A01A8
:1023C000B0916B018093CC019093CD01A093CE018D
:1023D000B093CF0184E08093720181E08093A701E4
:1023E0008091D401813061F480917201833041F495
:1023F0008091A701813021F482E08093A7010FC072
:102400008091BC01813059F480917201823039F49D
:102410008091A701813019F483E08093A701109285
:102420003C0110923A018091DA019091DB01A09178
:10243000DC01B091DD01813BF6EF9F07FAEDAF07BC
:10244000F0E0BF0780F48091DA019091DB01A09168
:10245000DC01B091DD0180382FE9920725EDA2075C
:1024600020E0B20718F410923B0103C081E0809392
:102470003B0134C010923C0110923A0110923B0192
:10248000209168013091690140916A0150916B017E
:102490008091CC019091CD01A091CE01B091CF015E
:1024A00082179307A407B50718F481E08093C00151
:1024B0008091680190916901A0916A01B0916B01CE
:1024C000845D9E4FAF4FBF4F8093C5019093C6016F
:1024D000A093C701B093C80101C000000C94DA19A1
:1024E0008091C001882F90E08430910544F48230BF
:1024F00091050CF049C18130910531F0A1C18730BF
:1025000091050CF09DC17CC120913E0130913F01AD
:102510008091E7019091E80128173907C9F480916B
:1025200042018823A9F480913E0190913F01FC0172
:102530008081882F90E0809788599F4F9A83898364
:1025400089819A81FC0114911B838B8180934201C4
:1025500080914201882309F4CEC0809142018038E5
:1025600029F0809142018F3F09F079C080914201AA
:10257000803821F52091730130917401C901880FD1
:10258000991F820F931F9C0140E050E080916801E9
:1025900090916901A0916A01B0916B01820F931F24
:1025A000A41FB51F8093CC019093CD01A093CE01C1
:1025B000B093CF0185E08093C00127C020917301C3
:1025C00030917401C901880F991F880F991F880FD6
:1025D000991F821B930B9C0140E050E080916801A1
:1025E00090916901A0916A01B0916B01820F931FD4
:1025F000A41FB51F8093CC019093CD01A093CE0171
:10260000B093CF0185E08093C00180913E0190910D
:102610003F01019690933F0180933E0180913E01DE
:1026200090913F01FC018081882319F410924201AE
:1026300015C080913E0190913F01FC018081882F5F
:1026400090E0809788599F4F9D838C838C819D81DA
:10265000FC0114911E838E81809342014BC08091B6
:102660004201882324F52091730130917401C9013E
:10267000880F991F820F931F9C0140E050E08091CA
:10268000680190916901A0916A01B0916B01820F7C
:10269000931FA41FB51F8093CC019093CD01A093ED
:1026A000CE01B093CF0183E08093C0011EC0809122
:1026B0007301909174019C0140E050E080916801A9
:1026C00090916901A0916A01B0916B01820F931FF3
:1026D000A41FB51F8093CC019093CD01A093CE0190
:1026E000B093CF0182E08093C00180914201880FB6
:1026F0008093420148C08091E7019091E8012CE26B
:1027000031E0B90141E050E00E94771B8091E70180
:102710009091E80190933F0180933E011092420115
:102720008091C3019091C4019093BB018093BA0141
:102730008091BA019091BB01CC01A0E0B0E0BC0156
:10274000CD010E94A50C8091EE018093DE01809165
:10275000DE010E947D048091B8018093A2018091E6
:1027600072018093C0018091B4019091B501A09154
:10277000B601B091B7018093CC019093CD01A093A5
:10278000CE01B093CF015DC0209168013091690105
:1027900040916A0150916B018091CC019091CD01E3
:1027A000A091CE01B091CF0182179307A407B5077E
:1027B000F0F480917301909174019C0140E050E02D
:1027C0008091680190916901A0916A01B0916B01BB
:1027D000820F931FA41FB51F8093CC019093CD014E
:1027E000A093CE01B093CF0184E08093C0011092FA
:1027F0003C0181E080933A0181E080933B0121C05C
:10280000209168013091690140916A0150916B01FA
:102810008091CC019091CD01A091CE01B091CF01DA
:1028200082179307A407B50718F481E08093C001CD
:1028300010923C0110923A0181E080933B0101C06B
:102840000000B8C58091C001882F90E087309105C5
:1028500009F450C08830910509F48CC0813091058D
:1028600009F0AEC08091680190916901A0916A0160
:10287000B0916B010196A11DB11D8093A8019093A9
:10288000A901A093AA01B093AB018FEF9FEFDC01E8
:102890008093E9019093EA01A093EB01B093EC01DE
:1028A0008FEF9FEFDC018093CC019093CD01A0933B
:1028B000CE01B093CF018091680190916901A09100
:1028C0006A01B0916B018093E3019093E401A093BE
:1028D000E501B093E6018FEF9FEFDC018093D0011B
:1028E0009093D101A093D201B093D30187E080935C
:1028F000C00166C081E080933C0181E080933A0191
:1029000081E080933B018091D401813061F080911E
:10291000BC01813041F08091BF01813021F0809174
:10292000BD01813031F588E08093C001809168015C
:1029300090916901A0916A01B0916B01C296A11DAD
:10294000B11D8093CC019093CD01A093CE01B093A3
:10295000CF018091680190916901A0916A01B091C5
:102960006B018093E9019093EA01A093EB01B0938E
:10297000EC0126C010923C0110923A0181E0809354
:102980003B01209168013091690140916A015091A9
:102990006B018091CC019091CD01A091CE01B091BD
:1029A000CF01281739074A075B0748F010923B010F
:1029B00081E08093C00180916D018093A2010000AD
:1029C000F9C48091C001882F90E08930910591F081
:1029D0008A30910509F458C08130910509F0ACC1E5
:1029E00080E091E0909344018093430189E08093DB
:1029F000C001AAC182E090E00E94441A909346016F
:102A000080934501809145019091460160E070E01E
:102A100042E050E00E94801B809145019091460168
:102A20002091430130914401B90141E050E00E94FE
:102A3000771B8091680190916901A0916A01B09122
:102A40006B018056904FAF4FBF4F8093CC01909356
:102A5000CD01A093CE01B093CF018AE08093C00155
:102A600080914501909146012091BA013091BB01BE
:102A70004091DE01B9010E94CC0680914501909100
:102A800046010E94DE1A60C184E190E00E94441A6F
:102A900090934101809340018091400190914101C8
:102AA00060E070E044E150E00E94801B20916801EA
:102AB0003091690140916A0150916B018091CC0184
:102AC0009091CD01A091CE01B091CF012817390787
:102AD0004A075B0708F017C18091BF01813049F5B3
:102AE00081E00E94950480914301909144010196F8
:102AF000909344018093430180914301909144015C
:102B0000FC018081882389F481E08093C001809159
:102B10006D018093A2012091DE0181E291E060E9E4
:102B200071E0422F0E94CC0600C189E08093C00171
:102B3000FCC08091BD01813009F0F6C081E00E94A7
:102B400095048091430190914401FC018081882F7C
:102B500090E083359105A1F0843591054CF48B34D8
:102B6000910509F483C08235910509F464C0DDC084
:102B70008635910509F470C08735910521F1D5C0DE
:102B80008091680190916901A0916A01B0916B01F7
:102B90008056904FAF4FBF4F8093CC019093CD01A3
:102BA000A093CE01B093CF0185E08093A201209144
:102BB000BA013091BB014091DE018FE191E0B90192
:102BC0000E94CC06B2C081E08093C00180916D016B
:102BD0008093A20140914001509141018091DE011A
:102BE000282F30E000D000D000D08DB79EB70196DE
:102BF000FC01518340834DE251E0FC015383428349
:102C0000FC01358324830E94981B8DB79EB70696DE
:102C10000FB6F8949EBF0FBE8DBF8091400190917A
:102C200041012091BA013091BB014091DE01B9010F
:102C30000E94CC067AC01092C00187E08093A20166
:102C40002091BA013091BB014091DE018FE191E00A
:102C5000B9010E94CC0669C081E08093C0018091D7
:102C60006D018093A2010E942F075FC080916D01CA
:102C7000882329F581E080936D0181E08093C00174
:102C800080916D018093A2018FE390E0FC0180812F
:102C9000882F90E0827090700097B1F781E090E00B
:102CA00060E00E94BA1D2091BA013091BB014091B1
:102CB000DE018BE191E0B9010E94CC0636C0109292
:102CC0006D0181E08093C00180916D018093A2012C
:102CD0008FE390E0FC018081882F90E082709070FB
:102CE0000097B1F781E090E061E00E94BA1D209169
:102CF000BA013091BB014091DE0180E391E0B9015E
:102D00000E94CC0612C081E08093C00180916D01C9
:102D10008093A2012091DE0181E291E060E971E0FF
:102D2000422F0E94CC0601C000008091400190918A
:102D300041010E94DE1A08C081E08093C0018091A9
:102D40006D018093A201000035C32091680130918C
:102D5000690140916A0150916B018091CC01909181
:102D6000CD01A091CE01B091CF01281739074A07B4
:102D70005B0708F063C08091BF01813069F58091E5
:102D8000DE01883228F48091DE018F5F8093DE01BE
:102D90008091DE010E947D0480916801909169011B
:102DA000A0916A01B0916B018056904FAF4FBF4F19
:102DB0008093CC019093CD01A093CE01B093CF012D
:102DC0002091BA013091BB014091DE0182E391E094
:102DD000B9010E94CC067AC08091BD01813009F012
:102DE00075C08091DE01863028F08091DE0181502F
:102DF0008093DE018091DE010E947D048091680154
:102E000090916901A0916A01B0916B018056904F39
:102E1000AF4FBF4F8093CC019093CD01A093CE01D3
:102E2000B093CF012091BA013091BB014091DE01F6
:102E300082E391E0B9010E94CC0648C08FE390E0A4
:102E4000FC018081882F90E0827090700097B1F72C
:102E50002091DE0180E090E0622F0E94BA1D81E0A7
:102E60008093C00180916D018093A2014091400147
:102E7000509141018091DE01282F30E000D000D038
:102E800000D08DB79EB70196FC01518340834DE27F
:102E900051E0FC0153834283FC01358324830E946B
:102EA000981B8DB79EB706960FB6F8949EBF0FBEBF
:102EB0008DBF80914001909141012091BA013091E4
:102EC000BB014091DE01B9010E94CC0673C2809122
:102ED000D401813061F08091BC01813041F080915A
:102EE000BF01813021F08091BD018130E9F58091F1
:102EF000E7019091E8012CE231E0B90141E050E0B6
:102F00000E94771B8091E7019091E80190933F0127
:102F100080933E0110924201809168019091690175
:102F2000A0916A01B0916B018093D0019093D1017F
:102F3000A093D201B093D3018091B8018093A201F4
:102F4000809172018093C0018091B4019091B5018C
:102F5000A091B601B091B7018093CC019093CD01BF
:102F6000A093CE01B093CF018091C001882F90E053
:102F70008430910544F4823091050CF0BBC181305E
:102F8000910531F014C2873091050CF010C2EFC1E9
:102F900020913E0130913F018091E7019091E8013D
:102FA00028173907C9F4809142018823A9F4809138
:102FB0003E0190913F01FC018081882F90E0809735
:102FC00088599F4F98878F838F819885FC01149132
:102FD000198789858093420180914201882309F4F1
:102FE0004BC180914201803829F0809142018F3F8E
:102FF00009F079C080914201803821F52091730158
:1030000030917401C901880F991F820F931F9C0191
:1030100040E050E08091680190916901A0916A01BF
:10302000B0916B01820F931FA41FB51F8093CC0139
:103030009093CD01A093CE01B093CF0185E0809312
:10304000C00127C02091730130917401C901880F1C
:10305000991F880F991F880F991F821B930B9C0142
:1030600040E050E08091680190916901A0916A016F
:10307000B0916B01820F931FA41FB51F8093CC01E9
:103080009093CD01A093CE01B093CF0185E08093C2
:10309000C00180913E0190913F01019690933F01C4
:1030A00080933E0180913E0190913F01FC0180811F
:1030B000882319F41092420115C080913E0190912D
:1030C0003F01FC018081882F90E0809788599F4FB5
:1030D0009B878A878A859B85FC0114911C878C8538
:1030E00080934201C8C08091420188230CF062C0E5
:1030F0002091730130917401C901880F991F820FCB
:10310000931F9C0140E050E080916801909169011B
:10311000A0916A01B0916B01820F931FA41FB51F8C
:103120008093CC019093CD01A093CE01B093CF01B9
:1031300083E08093C0018091680190916901A09122
:103140006A01B0916B010196A11DB11D8093A80188
:103150009093A901A093AA01B093AB018091CC01F7
:103160009091CD01A091CE01B091CF018093E90162
:103170009093EA01A093EB01B093EC018091680178
:1031800090916901A0916A01B0916B018093E30174
:103190009093E401A093E501B093E6018FEF9FEFD8
:1031A000DC018093D0019093D101A093D201B09320
:1031B000D3015CC080917301909174019C0140E047
:1031C00050E08091680190916901A0916A01B091ED
:1031D0006B01820F931FA41FB51F8093CC019093A6
:1031E000CD01A093CE01B093CF0182E08093C001C6
:1031F0008091680190916901A0916A01B0916B0181
:103200000196A11DB11D8093A8019093A901A093DF
:10321000AA01B093AB018091CC019091CD01A09116
:10322000CE01B091CF018093E9019093EA01A09380
:10323000EB01B093EC018091680190916901A0913C
:103240006A01B0916B018093E3019093E401A09334
:10325000E501B093E6018FEF9FEFDC018093D00191
:103260009093D101A093D201B093D30180914201F8
:10327000880F809342013DC08091E7019091E80161
:103280002CE231E0B90141E050E00E94771B8091CF
:10329000E7019091E80190933F0180933E011092E5
:1032A00042018091680190916901A0916A01B091F9
:1032B0006B018093D0019093D101A093D201B09380
:1032C000D3018091B8018093A20180917201809313
:1032D000C0018091B4019091B501A091B601B09167
:1032E000B7018093CC019093CD01A093CE01B09310
:1032F000CF015EC0209168013091690140916A015F
:1033000050916B018091CC019091CD01A091CE01A3
:10331000B091CF0182179307A407B507F0F480910D
:103320007301909174019C0140E050E0809168012C
:1033300090916901A0916A01B0916B01820F931F76
:10334000A41FB51F8093CC019093CD01A093CE0113
:10335000B093CF0184E08093C00181E080933C0171
:1033600081E080933A0181E080933B0121C020916C
:1033700068013091690140916A0150916B0180911F
:10338000CC019091CD01A091CE01B091CF018217D7
:103390009307A407B50718F481E08093C001109249
:1033A0003C0110923A0181E080933B0101C0000092
:1033B00001C000000C940F0D629FD001739FF001BB
:1033C000829FE00DF11D649FE00DF11D929FF00DB5
:1033D000839FF00D749FF00D659FF00D9927729FEC
:1033E000B00DE11DF91F639FB00DE11DF91FBD0177
:1033F000CF0111240895AA1BBB1B51E107C0AA1FCE
:10340000BB1FA617B70710F0A61BB70B881F991F85
:103410005A95A9F780959095BC01CD01089597FB29
:10342000092E07260AD077FD04D0E5DF06D000205C
:103430001AF4709561957F4F0895F6F790958195F0
:103440009F4F0895A1E21A2EAA1BBB1BFD010DC0C0
:10345000AA1FBB1FEE1FFF1FA217B307E407F50744
:1034600020F0A21BB30BE40BF50B661F771F881F20
:10347000991F1A9469F760957095809590959B01B6
:10348000AC01BD01CF010895CF93DF938230910548
:1034900010F482E090E0E091F101F091F20140E05F
:1034A00050E020E030E026C0608171816817790724
:1034B000E0F06817790781F4828193812115310545
:1034C00031F0D90113969C938E9312972BC0909351
:1034D000F2018093F10126C04115510519F06417DE
:1034E000750718F4AB01E901DF019F017281638167
:1034F000E72FF62F3097C1F64115510501F1481B12
:10350000590B4430510580F412968D919C9113977C
:10351000209719F09B838A8304C09093F2018093D3
:10352000F101FD01329646C0FD01E40FF51F8193C4
:1035300091934250504011965C934E933BC0209122
:10354000EF013091F0012115310541F42091360150
:10355000309137013093F0012093EF012091380131
:10356000309139012115310541F42DB73EB7409115
:10357000340150913501241B350BE091EF01F0919E
:10358000F001E217F307A0F42E1B3F0B28173907B1
:1035900078F0AC014E5F5F4F2417350748F04E0FAF
:1035A0005F1F5093F0014093EF018193919302C00C
:1035B000E0E0F0E0CF01DF91CF910895CF93DF936A
:1035C000009709F491C0FC01329713821282609136
:1035D000F1017091F2016115710581F42081318151
:1035E000280F391F8091EF019091F0018217930706
:1035F00099F5F093F001E093EF0176C0DB0180E0F4
:1036000090E002C0CD01D901AE17BF0748F4129671
:103610002D913C91139721153105A1F7CD0121C0C2
:10362000B383A283EF01499159919E01240F351F65
:10363000A217B30779F42D913C911197240F351FF0
:103640002E5F3F4F3183208312962D913C9113972B
:1036500033832283009729F4F093F201E093F10180
:1036600043C0DC011396FC93EE9312974D915D914C
:10367000A40FB51FEA17FB0769F420813181240FDD
:10368000351F2E5F3F4FEC01398328832281338120
:103690003B832A83E0E0F0E002C0FB01BC01DB01D8
:1036A00012968D919C9113970097B9F79B012E5F0D
:1036B0003F4F8D919C911197820F931F4091EF0185
:1036C0005091F0014817590779F4309729F4109276
:1036D000F2011092F10102C0138212822250304096
:1036E0003093F0012093EF01DF91CF910895FB011A
:1036F000DC0102C001900D9241505040D8F708956E
:10370000DC0101C06D9341505040E0F70895FB018A
:10371000DC0101900D920020E1F70895DC016C912D
:1037200061566A3108F0605E6F5B6D93C1F7089572
:10373000AEE0B0E0EEE9FBE10C94761E0D891E8947
:1037400086E08C831A8309838FEF9FE79E838D83A6
:103750009E01275E3F4FCE0101966F89788DA901AA
:103760000E94BB1BEF81F885E00FF11F10822E969F
:10377000E4E00C94921EACE0B0E0E1ECFBE10C94D0
:10378000681E6C011B018A01FC011782168283816D
:1037900081FFD1C12E010894411C511CF601938177
:1037A000F10193FD859193FF81911F01882309F415
:1037B000BEC1853239F493FD859193FF81911F013C
:1037C000853229F490E0B6010E94DE1DE7CFEE2499
:1037D000FF2420E02032B0F48B3269F08C3228F4E0
:1037E000803251F0833271F40BC08D3239F0803366
:1037F00049F421602CC02260246029C0286027C0C1
:10380000206125C027FD2CC0382F30533A3098F462
:1038100026FF08C08E2D880FE82EEE0CEE0CE80E69
:10382000E30E15C08F2D880FF82EFF0CFF0CF80E3D
:10383000F30E20620CC08E3221F426FD78C1206484
:1038400006C08C3611F4206802C0883649F4F101B4
:1038500093FD859193FF81911F01882309F0BACFD1
:10386000982F9554933018F09052933028F40C5FB1
:103870001F4FFFE3F9830DC0833631F0833771F0BA
:10388000833509F060C022C0F801808189830E5F12
:103890001F4F420171E0A72EB12C16C062E0662EC8
:1038A000712C600E711EF8018080918026FF03C08C
:1038B0006E2D70E002C06FEF7FEFC4012C870E9475
:1038C000D31D5C0183012C852F7717C052E0652E34
:1038D000712C600E711EF8018080918026FF03C05C
:1038E0006E2D70E002C06FEF7FEFC4012C870E9445
:1038F000C81D5C012C852068830123FD20C008C001
:1039000080E290E0B6012C870E94DE1DFA942C859F
:103910008F2D90E0A816B90698F311C0F40127FD89
:10392000859127FF81914F0190E0B6012C870E947D
:10393000DE1D2C85F110FA940894A108B108A11499
:10394000B10461F7F1C0843611F0893649F527FFDB
:1039500008C0F80160817181828193810C5F1F4FE3
:1039600009C0F80160817181882777FD8095982FC3
:103970000E5F1F4F4FE6B42EB22297FF09C09095FD
:103980008095709561957F4F8F4F9F4FF0E8BF2ACC
:10399000A2012AE030E00E940A1E782E741845C069
:1039A000853731F43FEEB32EB2222AE030E025C055
:1039B00099EFB92EB2228F36C1F0803720F48835C6
:1039C00009F0B5C00DC0803721F0883709F0AFC0CD
:1039D00002C020E1B22AB4FE0BC084E0B82A08C0BD
:1039E000B4FE09C0E6E0BE2A06C028E030E005C00B
:1039F00020E130E002C020E132E0B7FE08C0F8016B
:103A000060817181828193810C5F1F4F07C0F80133
:103A10006081718180E090E00E5F1F4FA2010E94E3
:103A20000A1E782E7418FFE7BF22B6FE0BC02EEFD9
:103A3000B2227E1438F4B4FE07C0B2FC05C08FEE8B
:103A4000B82202C0A72C01C0AE2C8B2D90E0B4FE92
:103A50000DC0FE01E70DF11D2081203319F4E9EEC0
:103A6000BE2209C0A394B2FE06C004C0867890703E
:103A7000009709F0A3948B2C9924B3FC14C0B0FEDA
:103A80000FC0AF1428F4E72CEF0CEA18AF2C08C0D5
:103A9000E72C06C080E290E0B6010E94DE1DA394F0
:103AA000AF14C0F304C0AF1410F4FA1801C0FF241F
:103AB00084FE0FC080E390E0B6010E94DE1D82FE0E
:103AC0001FC081FE03C088E590E010C088E790E049
:103AD0000DC0C40186789070009791F081FC02C0FF
:103AE00080E201C08BE2B7FC8DE290E0B6010E945B
:103AF000DE1D06C080E390E0B6010E94DE1DEA9460
:103B00007E14C0F37A94F201E70DF11D808190E0FC
:103B1000B6010E94DE1D7720A9F706C080E290E082
:103B2000B6010E94DE1DFA94FF20C1F737CEF601E0
:103B30002681378102C02FEF3FEFC9012C96E2E1C9
:103B40000C94841EDC01CB01FC01F999FECF06C068
:103B5000F2BDE1BDF89A319600B40D92415050404B
:103B6000B8F70895F999FECF92BD81BDF89A9927CB
:103B700080B50895262FF999FECF1FBA92BD81BD59
:103B800020BD0FB6F894FA9AF99A0FBE01960895DF
:103B9000FC010590615070400110D8F78095909518
:103BA0008E0F9F1F0895FC0161507040019001101D
:103BB000D8F7809590958E0F9F1F08950F931F93B0
:103BC000CF93DF938C01EB018B8181FF1BC082FFC0
:103BD0000DC02E813F818C819D812817390764F4A7
:103BE000E881F9810193F983E88306C0E885F985C6
:103BF000802F0995009731F48E819F8101969F83D4
:103C00008E8302C00FEF1FEFC801DF91CF911F918C
:103C10000F910895FA01AA27283051F1203181F13E
:103C2000E8946F936E7F6E5F7F4F8F4F9F4FAF4FC4
:103C3000B1E03ED0B4E03CD0670F781F891F9A1FD7
:103C4000A11D680F791F8A1F911DA11D6A0F711D8B
:103C5000811D911DA11D20D009F468943F912AE097
:103C6000269F11243019305D3193DEF6CF0108957F
:103C7000462F4770405D4193B3E00FD0C9F7F6CFB0
:103C8000462F4F70405D4A3318F0495D31FD405278
:103C9000419302D0A9F7EACFB4E0A695979587950E
:103CA00077956795BA95C9F70097610571050895ED
:103CB0009B01AC010A2E0694579547953795279599
:103CC000BA95C9F7620F731F841F951FA01D089531
:103CD0002F923F924F925F926F927F928F929F921C
:103CE000AF92BF92CF92DF92EF92FF920F931F930A
:103CF000CF93DF93CDB7DEB7CA1BDB0B0FB6F894BB
:103D0000DEBF0FBECDBF09942A88398848885F84FA
:103D10006E847D848C849B84AA84B984C884DF806B
:103D2000EE80FD800C811B81AA81B981CE0FD11D4F
:103D30000FB6F894DEBF0FBECDBFED010895F89425
:023D4000FFCFB3
:103D4200535752564B00010C011901256452256448
:103D5200002530327552253032750053005400521E
:103D62000058004F004C00550043430000256400FA
:0A3D72004B0049002000F30100009F
:00000001FF
