:100000000C94D2000C94EF000C94EF000C94EF00D1
:100010000C94EF000C94FD010C94EF000C945D0126
:100020000C94EF000C94EF000C94EF000C94F10092
:100030000C94EF000C94EF000C94EF000C94EF0084
:100040000C94EF000C94EF000C94EF000C94EF0074
:100050000C94EF000C94EF000C94EF000C94EF0064
:100060000C94EF000C94EF00FF80808080808080F3
:100070008080808080808094FC7C3C1C0C0484C444
:10008000E4F48080808C8032806088A8904028D002
:10009000082078B048E0A0F068D85010C030187040
:1000A00098B8C8808386898C8F9295989C9FA2A5CA
:1000B000A8ABAEB0B3B6B9BCBFC1C4C7C9CCCED172
:1000C000D3D5D8DADCDEE0E2E4E6E8EAECEDEFF006
:1000D000F2F3F5F6F7F8F9FAFBFCFCFDFEFEFFFF84
:1000E000FFFFFFFFFFFFFFFFFFFEFEFDFCFCFBFA33
:1000F000F9F8F7F6F5F3F2F0EFEDECEAE8E6E4E212
:10010000E0DEDCDAD8D5D3D1CECCC9C7C4C1BFBC00
:10011000B9B6B3B0AEABA8A5A29F9C9895928F8CB0
:10012000898683807C797673706D6A6763605D5AB7
:100130005754514F4C494643403E3B383633312E9D
:100140002C2A272523211F1D1B1917151312100FE9
:100150000D0C0A090807060504030302010100004B
:10016000000000000000000000010102030304057C
:10017000060708090A0C0D0F1012131517191B1D7D
:100180001F212325272A2C2E313336383B3E40436E
:1001900046494C4F5154575A5D6063676A6D70739E
:1001A00076797C0011241FBECFEFD4E0DEBFCDBF37
:1001B00011E0A0E0B1E0E2EBF8E302C005900D929F
:1001C000A633B107D9F711E0A6E3B1E001C01D9253
:1001D000A63EB107E1F70E948B0A0C94571C0C94C1
:1001E00000001F920F920FB60F9211241F932F93AE
:1001F0003F934F935F938F939F93AF93BF93EF93EF
:10020000FF93DF93CF9300D00F92CDB7DEB78091ED
:100210003601813009F03CC020919A0130919B0158
:1002200040919C0150919D018091AC019091AD0154
:10023000A091AE01B091AF01820F931FA41FB51F13
:1002400080939A0190939B01A0939C01B0939D0190
:1002500080919A0190919B01A0919C01B0919D0188
:100260008B2F9927AA27BB278093680187E490E00A
:1002700020916801222F30E02D553F4F3A8329838A
:1002800029813A81F90114911B832B81FC01208380
:100290002396DEBFCDBFCF91DF91FF91EF91BF914C
:1002A000AF919F918F915F914F913F912F911F91AE
:1002B0000F900FBE0F901F9018951F920F920FB6C0
:1002C0000F9211242F933F934F935F936F937F93DC
:1002D0008F939F93AF93BF93EF93FF93DF93CF934E
:1002E000CDB7DEB780913701813051F488E290E0DC
:1002F00028E230E0F90120812062FC01208309C05E
:1003000088E290E028E230E0F90120812F7DFC01B5
:100310002083809138018130D9F520916A01309194
:100320006B0140916C0150916D018091DB019091C6
:10033000DC01A091DD01B091DE01281739074A07E1
:100340005B0730F520916A0130916B0140916C019F
:1003500050916D018091A4019091A501A091A601F9
:10036000B091A70182179307A407B50788F480917D
:10037000E001813019F481E00E944E0A88E290E0A9
:1003800028E230E0F90120812061FC0120830CC0CB
:1003900080E00E944E0A88E290E028E230E0F90115
:1003A00020812F7EFC01208380E00E94F103809158
:1003B0006A0190916B01A0916C01B0916D01019661
:1003C000A11DB11D80936A0190936B01A0936C01F4
:1003D000B0936D01CF91DF91FF91EF91BF91AF91FC
:1003E0009F918F917F916F915F914F913F912F914D
:1003F0000F900FBE0F901F9018951F920F920FB67F
:100400000F9211248F939F93AF93BF93EF93FF931A
:10041000DF93CF93CDB7DEB788E690E0FC01108282
:100420008091690180939E0181E08093C001809159
:10043000640190916501A0916601B09167014496B5
:10044000A11DB11D8093C6019093C701A093C8015F
:10045000B093C901CF91DF91FF91EF91BF91AF911F
:100460009F918F910F900FBE0F901F901895DF9363
:10047000CF930F92CDB7DEB7F89481E690E020E8F5
:10048000FC01208381E690E0FC01108284E490E08E
:1004900021E8FC01208385E490E021E0FC01208339
:1004A00081E890E029E0FC01208380E890E0FC01F5
:1004B000108288E890E028EE33E0FC01318320834D
:1004C0008FE690E022E0FC01208380EB90E022E0C8
:1004D000FC01208381EB90E024E0FC01208380E795
:1004E00090E020E730E0F90120812260FC012083C8
:1004F00083EB90E029EFFC0120838AE790E02AE774
:1005000030E0F90120812468FC0120838CE790E031
:1005100020E6FC0120838BE690E021E0FC012083B3
:100520008DE690E02FE9FC0120838AE290E02AE248
:1005300030E0F90120812064FC01208387E290E013
:1005400027E230E0F90120812062FC01208387E26C
:1005500090E027E230E0F90120812061FC01208356
:1005600087E290E027E230E0F90120812D7FFC0155
:10057000208388E290E028E230E0F90120812D7F9D
:10058000FC0120838AE290E02AE230E0F901208138
:10059000277FFC0120838BE290E02BE230E0F90121
:1005A00020812860FC0120838AE290E02AE230E08A
:1005B000F90120812F7EFC0120838BE290E02BE269
:1005C00030E0F90120812061FC0120838AE290E083
:1005D0002AE230E0F90120812B7FFC0120838BE2AD
:1005E00090E02BE230E0F90120812460FC012083BF
:1005F0008AE290E02AE230E0F90120812D7FFC01BF
:1006000020838BE290E02BE230E0F9012081226030
:10061000FC01208384E290E024E230E0F9012081B3
:100620002E7FFC01208385E290E025E230E0F90195
:1006300020812160FC0120838AE290E02AE230E000
:10064000F90120812F77FC0120838BE290E02BE2DF
:1006500030E0F90120812068FC0120838AE290E0EB
:100660002AE230E0F90120812E7FFC0120838BE219
:1006700090E02BE230E0F90120812160FC01208331
:1006800084E290E024E230E0F90120812E62FC0156
:1006900020838CE490E029E5FC0120838DE490E048
:1006A000FC01808189838EE490E0FC018081898354
:1006B00084E690E024E630E0F90120812068FC0126
:1006C000208384E690E024E630E0F9012081226076
:1006D000FC01208381E080936E0181E08093C00162
:1006E00081E08093A30110926A0110926B01109235
:1006F0006C0110926D018FE390E0FC018081882FE6
:1007000090E0827090700097B1F780E090E00E94D6
:100710006A1B8093D4018091D4010E94D9038CE09C
:100720009FE1A1E1B5E08093A8019093A901A09376
:10073000AA01B093AB0180EE99E8A6EDB0E08093FA
:10074000D0019093D101A093D201B093D3018091B5
:10075000A8019091A901A091AA01B091AB01BC019F
:10076000CD0140E021E00E94AE098091A801909166
:10077000A901A091AA01B091AB01BC01CD0141E05A
:1007800020E00E94AE0988E592E09093B701809343
:10079000B6018091B6019091B701CC01A0E0B0E024
:1007A000BC01CD010E94640A78940F90CF91DF9133
:1007B0000895DF93CF930F92CDB7DEB789838981F8
:1007C000282F30E080EB94E0B9010E94C7179B010D
:1007D000C9019093700180936F010F90CF91DF91C9
:1007E0000895DF93CF930F92CDB7DEB789838981C8
:1007F000813041F510924C0110924B0110924E0144
:1008000010924D011092500110924F01109252011E
:1008100010925101109254011092530110925601FE
:1008200010925501109258011092570110925A01DE
:100830001092590110925C0110925B0110925E01BE
:1008400010925D0189E290E0FC018081882F90E0A8
:10085000887090700097A9F480914B0190914C01A1
:100860008530910548F480914B0190914C0101969F
:1008700090934C0180934B011092500110924F01C4
:1008800014C080914F01909150018530910548F43A
:1008900080914F0190915001019690935001809367
:1008A0004F0110924C0110924B0189E290E0FC0143
:1008B0008081882F90E0807190700097A9F48091DA
:1008C0004D0190914E018530910548F480914D0184
:1008D00090914E01019690934E0180934D0110929C
:1008E00052011092510114C0809151019091520116
:1008F0008530910548F48091510190915201019603
:10090000909352018093510110924E0110924D012B
:1009100080914B0190914C018530910518F081E058
:100920008093CE0180914F019091500185309105C7
:1009300010F01092CE0180914D0190914E018530C2
:10094000910518F081E08093BC0180915101909154
:1009500052018530910510F01092BC0189E290E0BF
:10096000FC018081882F90E0847090700097A1F442
:1009700089E290E0FC018081882F90E08270907085
:10098000009751F4809157019091580101969093EE
:1009900058018093570125C08091570190915801CB
:1009A0008530910560F08091570190915801F1E0F8
:1009B000843F9F0720F481E08093BE010EC08091A8
:1009C00057019091580121E0843F920720F082E086
:1009D0008093BE0102C01092BE0110925801109285
:1009E000570189E290E0FC018081882F90E08470BB
:1009F0009070009751F480915301909154010196A9
:100A0000909354018093530125C08091530190919C
:100A100054018530910560F080915301909154010B
:100A2000F1E0843F9F0720F481E08093BF010EC076
:100A3000809153019091540121E0843F920720F06E
:100A400082E08093BF0102C01092BF011092540156
:100A50001092530189E290E0FC018081882F90E0A0
:100A600082709070009751F48091550190915601D9
:100A70000196909356018093550125C080915501B0
:100A8000909156018530910560F0809155019091CB
:100A90005601F1E0843F9F0720F481E08093BD017F
:100AA0000EC0809155019091560121E0843F92073C
:100AB00020F082E08093BD0102C01092BD0110922F
:100AC00056011092550189E290E0FC018081882F47
:100AD00090E081709070009751F48091590190914D
:100AE0005A01019690935A018093590125C0809133
:100AF000590190915A018530910560F0809159011A
:100B000090915A01F1E0843F9F0720F481E08093A7
:100B1000C5010EC08091590190915A0121E0843F96
:100B2000920720F082E08093C50102C01092C501B7
:100B300010925A011092590183E290E0FC018081E9
:100B4000882F90E0817090700097A9F480915B01EC
:100B500090915C018530910548F480915B01909102
:100B60005C01019690935C0180935B01109260019F
:100B700010925F0114C080915F01909160018530F7
:100B8000910548F480915F019091600101969093E6
:100B9000600180935F0110925C0110925B0189E219
:100BA00090E0FC0180818823ACF080915D01909100
:100BB0005E018530910548F480915D0190915E0160
:100BC000019690935E0180935D01109262011092F4
:100BD000610114C08091610190916201853091059D
:100BE00048F48091610190916201019690936201B5
:100BF0008093610110925E0110925D0180915B0112
:100C000090915C018530910518F081E0809363013B
:100C100080915F01909160018530910510F01092F4
:100C2000630180915D0190915E018530910518F01E
:100C300081E08093DF0180916101909162018530B4
:100C4000910510F01092DF0180914B0190914C01C1
:100C50000097C1F480914D0190914E01009791F45D
:100C60008091530190915401009761F48091550156
:100C700090915601009731F480915701909158015D
:100C8000009719F010920A0103C081E080930A01D5
:100C90000F90CF91DF910895DF93CF9300D000D0D4
:100CA0000F92CDB7DEB79A8389837C836B834D83A4
:100CB00089819A810E9446198091D9019091DA0127
:100CC00029813A81B9010E943F198091C001809326
:100CD0006E018091C6019091C701A091C801B091A9
:100CE000C9018093B0019093B101A093B201B09378
:100CF000B30180919E018093B4018091B6019091DF
:100D0000B7019093C4018093C3018B819C81909320
:100D1000B7018093B6018091D4018093E1018D8168
:100D20008093D4018091B6019091B701CC01A0E0ED
:100D3000B0E0BC01CD010E94640A8091D4010E9400
:100D4000D90381E08093C00182E080939E010F90DF
:100D50000F900F900F900F90CF91DF910895DF9338
:100D6000CF9300D000D000D0CDB7DEB78AE090E0BE
:100D70000E94FC179A8389838AE790E02AE730E093
:100D8000D9012C912064FC0120838AE790E0DC01EA
:100D90008C91882F90E0807490700097B1F789E76C
:100DA00090E0FC018081882F90E09C838B834B81B5
:100DB0005C812EE930E0429FC001439F900D529F1D
:100DC000900D1124892F99279E838D838D819E817B
:100DD0002AE030E0B9010E94B3179B01F9018D812F
:100DE0009E812AE030E0B9010E94B3179C018DB7C3
:100DF0009EB708970FB6F8949EBF0FBE8DBF8DB7F4
:100E00009EB7019649815A81DC014D935C934BE07A
:100E100051E0DC0113965C934E931297DC0115961A
:100E2000FC93EE931497FC01378326830E9450199C
:100E30008DB79EB708960FB6F8949EBF0FBE8DBFB4
:100E40002091B6013091B7014091D40189819A81F6
:100E5000B9010E944C0689819A810E9496182696B3
:100E60000FB6F894DEBF0FBECDBFCF91DF910895CE
:100E70000F931F93DF93CF9300D0CDB7DEB78FE0F2
:100E800090E00E94FC179A8389838091D001909111
:100E9000D101A091D201B091D30128EE33E040E01E
:100EA00050E0BC01CD010E94DA17DA01C90124E645
:100EB00030E040E050E0BC01CD010E94DA17DC01D7
:100EC000CB018C018091D0019091D101A091D201F0
:100ED000B091D30128EE33E040E050E0BC01CD01F9
:100EE0000E94DA17DC01CB012AE030E040E050E05C
:100EF000BC01CD010E94DA17DA01C9019C018DB74E
:100F00009EB708970FB6F8949EBF0FBE8DBF8DB7E2
:100F10009EB7019649815A81FC015183408341E18A
:100F200051E0FC0153834283FC0115830483FC01DF
:100F3000378326830E9450198DB79EB708960FB647
:100F4000F8949EBF0FBE8DBF2091B6013091B701BE
:100F50004091D40189819A81B9010E944C0689810E
:100F60009A810E9496180F900F90CF91DF911F9158
:100F70000F910895EF92FF920F931F93DF93CF93FA
:100F80000F92CDB7DEB78091BE01823059F481E077
:100F90008093C00180919E018093B40183E080938F
:100FA0009E0136C08091BF01813059F480919E012D
:100FB0008093B40184E080939E0181E08093C0011E
:100FC00027C08091BD01813019F40E94380720C0EC
:100FD0008091BD018230E1F481E791E022E030E0D0
:100FE000B90148E250E00E945A1B8091D9019091CA
:100FF000DA0121E731E0B9010E943F1981E08093D5
:10100000C00180919E018093B40186E080939E018F
:101010008091C501813089F5809106018130B1F45C
:101020001092060184E390E09093080180930701F9
:1010300085E08093090181E00E94F1038BE191E05A
:1010400060E971E049E10E944C068CC081E0809328
:1010500006018CE091E0909308018093070189E1FB
:101060008093090181E00E94F1038BE191E064E843
:1010700073E049E10E944C0675C08091C501823041
:1010800009F070C08091E0018823B9F587E290E013
:1010900027E230E0F90120812260FC01208388E210
:1010A00090E028E230E0F90120812260FC012083F9
:1010B00081E08093E0018091A8019091A901A09125
:1010C000AA01B091AB018093B8019093B901A093AC
:1010D000BA01B093BB018091B8019091B901A09180
:1010E000BA01B091BB01BC01CD0141E020E00E94FA
:1010F000AE0981E00E94F10335C087E290E027E26B
:1011000030E0F90120812D7FFC01208388E290E00E
:1011100028E230E0F90120812D7FFC01208310922C
:10112000E0018091B8019091B901A091BA01B0910C
:10113000BB018093A8019093A901A093AA01B09349
:10114000AB018091A8019091A901A091AA01B09151
:10115000AB01BC01CD0140E020E00E94AE0981E07E
:101160000E94F103198280916301882319F089811B
:101170008E5F89838091DF01882319F089818F5FD9
:10118000898380914A019981981709F4DCC0809184
:101190004A018695817080934A0180914A01282FE7
:1011A00030E08981882F90E08170907082279327AA
:1011B0008130910509F068C08091D0019091D101F2
:1011C000A091D201B091D3018138FFE99F07F5EDDD
:1011D000AF07F0E0BF0708F44CC02091A8013091A0
:1011E000A9014091AA015091AB0180910701909112
:1011F0000801CC01A0E0B0E079018A01E81AF90AFF
:101200000A0B1B0BD801C7018093A8019093A90179
:10121000A093AA01B093AB012091D0013091D101EC
:101220004091D2015091D30180910901882F90E023
:10123000A0E0B0E079018A01E81AF90A0A0B1B0B59
:10124000D801C7018093D0019093D101A093D2011E
:10125000B093D3018091A8019091A901A091AA0116
:10126000B091AB01BC01CD0140E020E00E94AE098D
:101270006AC08DE191E064E873E047E10E944C06AA
:1012800081E00E94F1035FC08091D0019091D10173
:10129000A091D201B091D301803B06EF90070AEDF7
:1012A000A00700E0B00708F044C0809107019091CA
:1012B00008019C0140E050E08091A8019091A901B3
:1012C000A091AA01B091AB01820F931FA41FB51F7B
:1012D0008093A8019093A901A093AA01B093AB01B8
:1012E00080910901282F30E040E050E08091D0014A
:1012F0009091D101A091D201B091D301820F931F9F
:10130000A41FB51F8093D0019093D101A093D20167
:10131000B093D3018091A8019091A901A091AA0155
:10132000B091AB01BC01CD0140E020E00E94AE09CC
:101330000AC08FE191E064E873E047E10E944C0647
:1013400081E00E94F103898180934A010F90CF913F
:10135000DF911F910F91FF90EF900895DF93CF934E
:10136000CDB7DEB72C970FB6F894DEBF0FBECDBF5A
:101370006F83788789879A874B872C878B85813005
:1013800029F480E090E89A83898304C080E090E4A7
:101390009A8389838F8198859C013F7389819A8183
:1013A000820F931F9C838B838F819885A985BA8533
:1013B000072E7EE0B695A795979587957A95D1F7F4
:1013C000702D9C013F7389819A81820F931F9E83A8
:1013D0008D838C85813021F480E091E20E940C0A9B
:1013E0008B819C810E940C0A8D819E810E940C0A37
:1013F0008C85813041F480E090EC0E940C0A80E002
:1014000090E20E940C0A2C960FB6F894DEBF0FBE35
:10141000CDBFCF91DF910895DF93CF9300D0CDB7AB
:10142000DEB79A83898385E290E025E230E0F90116
:1014300020812062FC01208385E290E025E230E0FB
:10144000F90120812D7FFC0120838EE490E0298129
:101450003A81232F3327FC01208300008DE490E0A4
:10146000FC0180818823D4F78EE490E02981FC017F
:10147000208300008DE490E0FC0180818823D4F774
:1014800085E290E025E230E0F90120812260FC0154
:1014900020830F900F90CF91DF910895DF93CF932A
:1014A0000F92CDB7DEB789838981813029F480E03E
:1014B00098E20E940C0A04C080E090E20E940C0AAC
:1014C0000F90CF91DF910895DF93CF9300D000D09C
:1014D000CDB7DEB769837A838B839C8389819A81B8
:1014E000AB81BC8123E938E144E050E0BC01CD018F
:1014F0000E949417DC01CB018093AC019093AD0165
:10150000A093AE01B093AF010F900F900F900F908A
:10151000CF91DF9108951F93DF93CF93CDB7DEB7BF
:101520002D970FB6F894DEBF0FBECDBF89E290E0D5
:101530000E94FC179093DA018093D9018091D90120
:101540009091DA0160E070E049E250E00E943819C1
:101550008091D9019091DA0190933B0180933A01F7
:1015600089E290E00E94FC1790933D0180933C013A
:1015700080913C0190913D0160E070E049E250E0D3
:101580000E9438190E943702198206C080E00E942A
:10159000F10389818F5F898389818F30B8F381E07E
:1015A00090E00E946A1B882321F481E080939E01D1
:1015B00002C010929E018091BC01813039F480916B
:1015C000CE01882319F481E080939E012091B60119
:1015D0003091B70181E291E0B9014FE00E944C06E1
:1015E000F89480916A0190916B01A0916C01B09187
:1015F0006D018093640190936501A0936601B0939F
:101600006701789480919E01882F90E08330910546
:1016100009F4EDC68430910564F481309105C9F078
:10162000823091050CF031C5009709F412C10C9479
:1016300091178530910511F40C946714853091054C
:101640000CF495C78630910511F40C941F150C9479
:10165000911781E0809369018091C001882F90E00B
:101660008730910509F443C08C30910509F4A7C077
:101670008130910509F0E6C01092380110923601D0
:10168000109237018091CE01813069F5809164011B
:1016900090916501A0916601B09167010196A11D2D
:1016A000B11D8093A4019093A501A093A601B093CE
:1016B000A7018FEF9FEFDC018093DB019093DC01AA
:1016C000A093DD01B093DE018FEF9FEFDC018093EB
:1016D000C6019093C701A093C801B093C90187E0E8
:1016E0008093C001B2C081E08093C001AEC0809100
:1016F000D0019091D101A091D201B091D301813B51
:1017000026EF92072AEDA20720E0B20780F480912D
:10171000D0019091D101A091D201B091D301803834
:10172000EFE99E07E5EDAE07E0E0BE0738F4109262
:101730003801109236011092370109C081E0809380
:10174000380181E08093360181E0809337018091F8
:10175000CE01882341F58CE08093C0018091640123
:1017600090916501A0916601B09167018C599F4FDE
:10177000AF4FBF4F8093C6019093C701A093C8019C
:10178000B093C9018091640190916501A0916601B7
:10179000B09167018093DB019093DC01A093DD01A0
:1017A000B093DE0152C08FEF9FEFDC018093DB012D
:1017B0009093DC01A093DD01B093DE0146C010924E
:1017C0003801109236018091D0019091D101A09101
:1017D000D201B091D301813BF6EF9F07FAEDAF073D
:1017E000F0E0BF0780F48091D0019091D101A091E9
:1017F000D201B091D30180382FE9920725EDA207DD
:1018000020E0B20718F41092370103C081E0809302
:10181000370120916401309165014091660150913A
:1018200067018091C6019091C701A091C801B09154
:10183000C901281739074A075B0730F081E0809318
:10184000C00103C0000001C000000E94BA070C9450
:101850009217109269010E94BA078091C001882FE7
:1018600090E08330910509F416C28430910544F468
:101870008130910571F08230910509F475C103C47E
:101880008430910509F49EC28C30910509F4DCC3C3
:10189000FAC31092380110923601109237018091EC
:1018A000640190916501A0916601B09167018093F8
:1018B000CA019093CB01A093CC01B093CD0180914C
:1018C000CE01813009F068C08091BC01882309F005
:1018D00063C081E080936E0182E08093C00181E06B
:1018E0008093A30180916F01909170019C0140E071
:1018F00050E08091640190916501A0916601B091E2
:101900006701820F931FA41FB51F8093C601909398
:10191000C701A093C801B093C9018091640190915F
:101920006501A0916601B09167010196A11DB11DED
:101930008093A4019093A501A093A601B093A70161
:101940008091C6019091C701A091C801B091C901D1
:101950008093DB019093DC01A093DD01B093DE0165
:101960008091640190916501A0916601B091670139
:101970008093D5019093D601A093D701B093D8015D
:101980008FEF9FEFDC018093CA019093CB01A0936E
:10199000CC01B093CD01E7C08091BC01813009F04A
:1019A0006DC08091CE01882309F068C081E08093EA
:1019B0006E0183E08093C00181E08093A3012091B8
:1019C0006F0130917001C901880F991F820F931F19
:1019D0009C0140E050E08091640190916501A091EC
:1019E0006601B0916701820F931FA41FB51F8093FA
:1019F000C6019093C701A093C801B093C90180911B
:101A0000640190916501A0916601B0916701019612
:101A1000A11DB11D8093A4019093A501A093A601DF
:101A2000B093A7018091C6019091C701A091C80110
:101A3000B091C9018093DB019093DC01A093DD019B
:101A4000B093DE018091640190916501A0916601DF
:101A5000B09167018093D5019093D601A093D701EF
:101A6000B093D8018FEF9FEFDC018093CA01909370
:101A7000CB01A093CC01B093CD0175C08091CE0174
:101A8000813009F06DC08091BC01813009F068C0DF
:101A90008091A301813009F063C081E080936E01E1
:101AA00082E08093C00183E08093A30180916F0165
:101AB000909170019C0140E050E080916401909110
:101AC0006501A0916601B0916701820F931FA41F69
:101AD000B51F8093C6019093C701A093C801B0932E
:101AE000C9018091640190916501A0916601B09156
:101AF00067010196A11DB11D8093A4019093A501DA
:101B0000A093A601B093A7018091C6019091C7014F
:101B1000A091C801B091C9018093DB019093DC01D1
:101B2000A093DD01B093DE01809164019091650185
:101B3000A0916601B09167018093D5019093D60181
:101B4000A093D701B093D8018FEF9FEFDC01809372
:101B5000CA019093CB01A093CC01B093CD0103C0F7
:101B600081E08093C00190C28091D0019091D10119
:101B7000A091D201B091D301813BE6EF9E07EAED3F
:101B8000AE07E0E0BE0780F48091D0019091D101D2
:101B9000A091D201B091D3018038FFE99F07F5ED04
:101BA000AF07F0E0BF0738F4109238011092360109
:101BB0001092370109C081E08093380181E0809361
:101BC000360181E0809337012091640130916501F5
:101BD00040916601509167018091C6019091C701C3
:101BE000A091C801B091C90182179307A407B50756
:101BF00008F045C082E080936E0184E08093C001CC
:101C000080916F01909170019C0140E050E08091C3
:101C1000640190916501A0916601B0916701820F06
:101C2000931FA41FB51F8093C6019093C701A09373
:101C3000C801B093C9018091640190916501A091A0
:101C40006601B09167018093D5019093D601A0936E
:101C5000D701B093D8018091C6019091C701A0919E
:101C6000C801B091C9018C599F4FAF4FBF4F8093AE
:101C7000CA019093CB01A093CC01B093CD01809188
:101C8000BC01813039F48091A301813019F483E0E3
:101C90008093A301F9C18091D0019091D101A091CD
:101CA000D201B091D301813B26EF92072AEDA20722
:101CB00020E0B20780F48091D0019091D101A091F1
:101CC000D201B091D3018038EFE99E07E5EDAE0770
:101CD000E0E0BE0738F410923801109236011092FD
:101CE000370109C081E08093380181E0809336019B
:101CF00081E080933701209164013091650140912A
:101D00006601509167018091C6019091C701A09131
:101D1000C801B091C90182179307A407B50708F05D
:101D200045C083E080936E0184E08093C001809180
:101D30006F01909170019C0140E050E0809164013E
:101D400090916501A0916601B0916701820F931F88
:101D5000A41FB51F8093C6019093C701A093C8012B
:101D6000B093C9018091640190916501A0916601D1
:101D7000B09167018093D5019093D601A093D701CC
:101D8000B093D8018091C6019091C701A091C8017C
:101D9000B091C9018C599F4FAF4FBF4F8093CA017B
:101DA0009093CB01A093CC01B093CD018091CE0153
:101DB000813039F48091A301813019F482E080935D
:101DC000A30162C1209164013091650140916601D7
:101DD000509167018091C6019091C701A091C801FF
:101DE000B091C90182179307A407B50708F0E2C0B4
:101DF0008091A301823009F05DC082E08093C00130
:101E000080916F01909170019C0140E050E08091C1
:101E1000640190916501A0916601B0916701820F04
:101E2000931FA41FB51F8093C6019093C701A09371
:101E3000C801B093C9018091640190916501A0919E
:101E40006601B09167010196A11DB11D8093A401A7
:101E50009093A501A093A601B093A7018091C6011C
:101E60009091C701A091C801B091C9018093DB0195
:101E70009093DC01A093DD01B093DE0180916401B9
:101E800090916501A0916601B09167018093D501A1
:101E90009093D601A093D701B093D8018FEF9FEF15
:101EA000DC018093CA019093CB01A093CC01B09345
:101EB000CD017AC08091A301833009F062C083E034
:101EC0008093C00120916F0130917001C901880F8A
:101ED000991F820F931F9C0140E050E080916401A4
:101EE00090916501A0916601B0916701820F931FE7
:101EF000A41FB51F8093C6019093C701A093C8018A
:101F0000B093C9018091640190916501A09166012F
:101F1000B09167010196A11DB11D8093A40190931A
:101F2000A501A093A601B093A7018091C60190914D
:101F3000C701A091C801B091C9018093DB019093C2
:101F4000DC01A093DD01B093DE01809164019091EA
:101F50006501A0916601B09167018093D5019093CE
:101F6000D601A093D701B093D8018FEF9FEFDC018A
:101F70008093CA019093CB01A093CC01B093CD0183
:101F800013C081E08093C00180916401909165014C
:101F9000A0916601B09167018093C6019093C7013B
:101FA000A093C801B093C90184E080936E0181E0E1
:101FB0008093A3018091CE01813061F480916E0104
:101FC000833041F48091A301813021F482E0809339
:101FD000A3010FC08091BC01813059F480916E0142
:101FE000823039F48091A301813019F483E0809329
:101FF000A30110923801109236018091D001909186
:10200000D101A091D201B091D301813BF6EF9F079E
:10201000FAEDAF07F0E0BF0780F48091D001909116
:10202000D101A091D201B091D30180382FE992075C
:1020300025EDA20720E0B20718F41092370103C083
:1020400081E08093370120C0109238011092360150
:102050001092370120916401309165014091660131
:10206000509167018091C6019091C701A091C8016C
:10207000B091C90182179307A407B50718F481E04E
:102080008093C00101C000004DC78091C001882F1E
:1020900090E08430910544F4823091050CF049C100
:1020A0008130910531F0A1C1873091050CF09DC1BF
:1020B0007CC120913A0130913B018091D9019091EE
:1020C000DA0128173907C9F480913E018823A9F461
:1020D00080913A0190913B01FC018081882F90E032
:1020E000809788599F4F9B838A838A819B81FC01BB
:1020F00014911C838C8180933E0180913E01882342
:1021000009F4CEC080913E01803829F080913E01D3
:102110008F3F09F079C080913E01803821F52091F0
:102120006F0130917001C901880F991F820F931FB1
:102130009C0140E050E08091640190916501A09184
:102140006601B0916701820F931FA41FB51F809392
:10215000C6019093C701A093C801B093C90185E05F
:102160008093C00127C020916F0130917001C90197
:10217000880F991F880F991F880F991F821B930B37
:102180009C0140E050E08091640190916501A09134
:102190006601B0916701820F931FA41FB51F809342
:1021A000C6019093C701A093C801B093C90185E00F
:1021B0008093C00180913A0190913B0101969093E8
:1021C0003B0180933A0180913A0190913B01FC01DF
:1021D0008081882319F410923E0115C080913A0144
:1021E00090913B01FC018081882F90E08097885975
:1021F0009F4F9E838D838D819E81FC0114911F834F
:102200008F8180933E014BC080913E01882324F54D
:1022100020916F0130917001C901880F991F820FC1
:10222000931F9C0140E050E0809164019091650112
:10223000A0916601B0916701820F931FA41FB51F83
:102240008093C6019093C701A093C801B093C901C0
:1022500083E08093C0011EC080916F019091700156
:102260009C0140E050E08091640190916501A09153
:102270006601B0916701820F931FA41FB51F809361
:10228000C6019093C701A093C801B093C90182E031
:102290008093C00180913E01880F80933E0148C029
:1022A0008091D9019091DA0124E231E0B90141E055
:1022B00050E00E942F198091D9019091DA019093FA
:1022C0003B0180933A0110923E018091C3019091AD
:1022D000C4019093B7018093B6018091B6019091AB
:1022E000B701CC01A0E0B0E0BC01CD010E94640ABE
:1022F0008091E1018093D4018091D4010E94D9039F
:102300008091B40180939E0180916E018093C00101
:102310008091B0019091B101A091B201B091B3014F
:102320008093C6019093C701A093C801B093C901DF
:102330005DC020916401309165014091660150912A
:1023400067018091C6019091C701A091C801B09129
:10235000C90182179307A407B507F0F480916F01B4
:10236000909170019C0140E050E080916401909157
:102370006501A0916601B0916701820F931FA41FB0
:10238000B51F8093C6019093C701A093C801B09375
:10239000C90184E08093C0011092380181E08093EC
:1023A000360181E08093370121C020916401309192
:1023B000650140916601509167018091C60190913D
:1023C000C701A091C801B091C90182179307A40762
:1023D000B50718F481E08093C00110923801109283
:1023E000360181E08093370101C000009BC58091D8
:1023F000C001882F90E08730910509F450C08830E3
:10240000910509F48DC08130910509F0AFC080912C
:10241000640190916501A0916601B09167010196F8
:10242000A11DB11D8093A4019093A501A093A601C5
:10243000B093A7018FEF9FEFDC018093DB019093B6
:10244000DC01A093DD01B093DE018FEF9FEFDC0193
:102450008093C6019093C701A093C801B093C901AE
:102460008091640190916501A0916601B09167012E
:102470008093D5019093D601A093D701B093D80152
:102480008FEF9FEFDC018093CA019093CB01A09363
:10249000CC01B093CD0187E08093C00167C081E09B
:1024A0008093380181E08093360181E08093370189
:1024B0008091CE01813061F08091BC01813041F08A
:1024C0008091BF01813021F08091BD01813039F5CB
:1024D00088E08093C0018091640190916501A09192
:1024E0006601B09167018C599F4FAF4FBF4F8093EA
:1024F000C6019093C701A093C801B093C901809110
:10250000640190916501A0916601B091670180938B
:10251000DB019093DC01A093DD01B093DE0126C0C6
:10252000109238011092360181E08093370120919A
:10253000640130916501409166015091670180917D
:10254000C6019091C701A091C801B091C901281797
:1025500039074A075B0748F01092370181E0809302
:10256000C0018091690180939E010000DBC48091CD
:10257000C001882F90E08930910591F08A30910553
:1025800009F458C08130910509F098C180E091E0CC
:102590009093400180933F0189E08093C00196C1F0
:1025A00082E090E00E94FC179093420180934101E9
:1025B000809141019091420160E070E042E050E082
:1025C0000E943819809141019091420120913F0170
:1025D00030914001B90141E050E00E942F198091F3
:1025E000640190916501A0916601B09167018056E8
:1025F000904FAF4FBF4F8093C6019093C701A093F8
:10260000C801B093C9018AE08093C0018091410163
:10261000909142012091B6013091B7014091D401CF
:10262000B9010E944C0680914101909142010E94A3
:1026300096184CC184E190E00E94FC1790933D01F4
:1026400080933C0180913C0190913D0160E070E0FD
:1026500044E150E00E9438192091640130916501F5
:1026600040916601509167018091C6019091C70128
:10267000A091C801B091C901281739074A075B0723
:1026800008F003C18091BF01813049F581E00E94CB
:10269000F10380913F019091400101969093400198
:1026A00080933F0180913F0190914001FC01808126
:1026B000882389F481E08093C0018091690180932F
:1026C0009E012091D40185E291E060E971E0422F02
:1026D0000E944C06ECC089E08093C001E8C0809164
:1026E000BD01813009F0E2C081E00E94F1038091D8
:1026F0003F0190914001FC018081882F90E083355B
:102700009105A1F0843591054CF48B34910509F4C1
:1027100083C08235910509F464C0C9C0863591052E
:1027200009F470C08735910521F1C1C08091640121
:1027300090916501A0916601B09167018056904F1C
:10274000AF4FBF4F8093C6019093C701A093C801BC
:10275000B093C90185E080939E012091B60130912C
:10276000B7014091D40187E291E0B9010E944C0683
:102770009EC081E08093C0018091690180939E0199
:1027800040913C0150913D018091D401282F30E0CF
:1027900000D000D000D08DB79EB70196FC015183C8
:1027A000408349E251E0FC0153834283FC013583BD
:1027B00024830E9450198DB79EB706960FB6F894E1
:1027C0009EBF0FBE8DBF80913C0190913D01209135
:1027D000B6013091B7014091D401B9010E944C0675
:1027E00066C01092C00187E080939E012091B601DF
:1027F0003091B7014091D40187E291E0B9010E9484
:102800004C0655C081E08093C0018091690180939E
:102810009E010E94AF064BC0809169018823D9F4C4
:1028200081E08093690181E08093C001809169011A
:1028300080939E0181E090E060E00E94721B2091F5
:10284000B6013091B7014091D4018BE191E0B9011B
:102850000E944C062CC01092690181E08093C00157
:102860008091690180939E0181E090E061E00E9487
:10287000721B2091B6013091B7014091D4018CE2D6
:1028800091E0B9010E944C0612C081E08093C00122
:102890008091690180939E012091D40185E291E0AD
:1028A00060E971E0422F0E944C0601C00000809157
:1028B0003C0190913D010E94961808C081E08093F0
:1028C000C0018091690180939E0100002BC320917B
:1028D00064013091650140916601509167018091DA
:1028E000C6019091C701A091C801B091C9012817F4
:1028F00039074A075B0708F063C08091BF01813048
:1029000069F58091D401883228F48091D4018F5FD9
:102910008093D4018091D4010E94D90380916401F5
:1029200090916501A0916601B09167018056904F2A
:10293000AF4FBF4F8093C6019093C701A093C801CA
:10294000B093C9012091B6013091B7014091D401F3
:102950008EE291E0B9010E944C0670C08091BD01E9
:10296000813009F06BC08091D401863028F08091CD
:10297000D40181508093D4018091D4010E94D90365
:102980008091640190916501A0916601B091670109
:102990008056904FAF4FBF4F8093C6019093C701B1
:1029A000A093C801B093C9012091B6013091B7013D
:1029B0004091D4018EE291E0B9010E944C063EC0E4
:1029C0002091D40180E090E0622F0E94721B81E090
:1029D0008093C0018091690180939E0140913C01E8
:1029E00050913D018091D401282F30E000D000D0DB
:1029F00000D08DB79EB70196FC015183408349E218
:102A000051E0FC0153834283FC01358324830E94FF
:102A100050198DB79EB706960FB6F8949EBF0FBE9D
:102A20008DBF80913C0190913D012091B601309184
:102A3000B7014091D401B9010E944C0673C2809144
:102A4000CE01813061F08091BC01813041F08091F4
:102A5000BF01813021F08091BD018130E9F5809185
:102A6000D9019091DA0124E231E0B90141E050E06E
:102A70000E942F198091D9019091DA0190933B0126
:102A800080933A0110923E0180916401909165011A
:102A9000A0916601B09167018093CA019093CB0128
:102AA000A093CC01B093CD018091B40180939E019D
:102AB00080916E018093C0018091B0019091B1012D
:102AC000A091B201B091B3018093C6019093C70168
:102AD000A093C801B093C9018091C001882F90E0F4
:102AE0008430910544F4823091050CF0BBC18130F3
:102AF000910531F014C2873091050CF010C2EFC17E
:102B000020913A0130913B018091D9019091DA01F5
:102B100028173907C9F480913E018823A9F48091D0
:102B20003A0190913B01FC018081882F90E08097D1
:102B300088599F4F9987888788859985FC011491CA
:102B40001A878A8580933E0180913E01882309F48B
:102B50004BC180913E01803829F080913E018F3F2A
:102B600009F079C080913E01803821F520916F01F4
:102B700030917001C901880F991F820F931F9C012A
:102B800040E050E08091640190916501A091660160
:102B9000B0916701820F931FA41FB51F8093C601D8
:102BA0009093C701A093C801B093C90185E08093B9
:102BB000C00127C020916F0130917001C901880FB9
:102BC000991F880F991F880F991F821B930B9C01D7
:102BD00040E050E08091640190916501A091660110
:102BE000B0916701820F931FA41FB51F8093C60188
:102BF0009093C701A093C801B093C90185E0809369
:102C0000C00180913A0190913B01019690933B0164
:102C100080933A0180913A0190913B01FC018081BF
:102C2000882319F410923E0115C080913A019091C9
:102C30003B01FC018081882F90E0809788599F4F4D
:102C40009C878B878B859C85FC0114911D878D85C6
:102C500080933E01C8C080913E0188230CF062C081
:102C600020916F0130917001C901880F991F820F67
:102C7000931F9C0140E050E08091640190916501B8
:102C8000A0916601B0916701820F931FA41FB51F29
:102C90008093C6019093C701A093C801B093C90166
:102CA00083E08093C0018091640190916501A091BF
:102CB0006601B09167010196A11DB11D8093A40129
:102CC0009093A501A093A601B093A7018091C6019E
:102CD0009091C701A091C801B091C9018093DB0117
:102CE0009093DC01A093DD01B093DE01809164013B
:102CF00090916501A0916601B09167018093D50123
:102D00009093D601A093D701B093D8018FEF9FEF96
:102D1000DC018093CA019093CB01A093CC01B093C6
:102D2000CD015CC080916F01909170019C0140E0E9
:102D300050E08091640190916501A0916601B0918D
:102D40006701820F931FA41FB51F8093C601909344
:102D5000C701A093C801B093C90182E08093C0016C
:102D60008091640190916501A0916601B091670125
:102D70000196A11DB11D8093A4019093A501A0937C
:102D8000A601B093A7018091C6019091C701A091BF
:102D9000C801B091C9018093DB019093DC01A0933D
:102DA000DD01B093DE018091640190916501A091F5
:102DB0006601B09167018093D5019093D601A093ED
:102DC000D701B093D8018FEF9FEFDC018093CA0148
:102DD0009093CB01A093CC01B093CD0180913E01A3
:102DE000880F80933E013DC08091D9019091DA0116
:102DF00024E231E0B90141E050E00E942F198091B6
:102E0000D9019091DA0190933B0180933A0110929D
:102E10003E018091640190916501A0916601B0919D
:102E200067018093CA019093CB01A093CC01B0932A
:102E3000CD018091B40180939E0180916E018093B9
:102E4000C0018091B0019091B101A091B201B09107
:102E5000B3018093C6019093C701A093C801B093BA
:102E6000C9015EC020916401309165014091660105
:102E7000509167018091C6019091C701A091C8014E
:102E8000B091C90182179307A407B507F0F48091A8
:102E90006F01909170019C0140E050E080916401CD
:102EA00090916501A0916601B0916701820F931F17
:102EB000A41FB51F8093C6019093C701A093C801BA
:102EC000B093C90184E08093C00181E08093380110
:102ED00081E08093360181E08093370121C0209109
:102EE00064013091650140916601509167018091C4
:102EF000C6019091C701A091C801B091C901821784
:102F00009307A407B50718F481E08093C0011092DD
:102F100038011092360181E08093370101C0000032
:102F200001C000000C94F00A629FD001739FF00171
:102F3000829FE00DF11D649FE00DF11D929FF00D49
:102F4000839FF00D749FF00D659FF00D9927729F80
:102F5000B00DE11DF91F639FB00DE11DF91FBD010B
:102F6000CF0111240895AA1BBB1B51E107C0AA1F62
:102F7000BB1FA617B70710F0A61BB70B881F991F1A
:102F80005A95A9F780959095BC01CD01089597FBBE
:102F9000092E07260AD077FD04D0E5DF06D00020F1
:102FA0001AF4709561957F4F0895F6F79095819585
:102FB0009F4F0895A1E21A2EAA1BBB1BFD010DC055
:102FC000AA1FBB1FEE1FFF1FA217B307E407F507D9
:102FD00020F0A21BB30BE40BF50B661F771F881FB5
:102FE000991F1A9469F760957095809590959B014B
:102FF000AC01BD01CF010895CF93DF9382309105DD
:1030000010F482E090E0E091E401F091E50140E00D
:1030100050E020E030E026C06081718168177907B8
:10302000E0F06817790781F48281938121153105D9
:1030300031F0D90113969C938E9312972BC09093E5
:10304000E5018093E40126C04115510519F064178C
:10305000750718F4AB01E901DF019F0172816381FB
:10306000E72FF62F3097C1F64115510501F1481BA6
:10307000590B4430510580F412968D919C91139711
:10308000209719F09B838A8304C09093E501809375
:10309000E401FD01329646C0FD01E40FF51F819366
:1030A00091934250504011965C934E933BC02091B7
:1030B000E2013091E3012115310541F42091320103
:1030C000309133013093E3012093E20120913401E8
:1030D000309135012115310541F42DB73EB74091AE
:1030E000300150913101241B350BE091E201F09148
:1030F000E301E217F307A0F42E1B3F0B2817390753
:1031000078F0AC014E5F5F4F2417350748F04E0F43
:103110005F1F5093E3014093E2018193919302C0BA
:10312000E0E0F0E0CF01DF91CF910895CF93DF93FE
:10313000009709F491C0FC013297138212826091CA
:10314000E4017091E5016115710581F420813181FF
:10315000280F391F8091E2019091E30182179307B4
:1031600099F5F093E301E093E20176C0DB0180E0A2
:1031700090E002C0CD01D901AE17BF0748F4129606
:103180002D913C91139721153105A1F7CD0121C057
:10319000B383A283EF01499159919E01240F351FFA
:1031A000A217B30779F42D913C911197240F351F85
:1031B0002E5F3F4F3183208312962D913C911397C0
:1031C00033832283009729F4F093E501E093E4012F
:1031D00043C0DC011396FC93EE9312974D915D91E1
:1031E000A40FB51FEA17FB0769F420813181240F72
:1031F000351F2E5F3F4FEC013983288322813381B5
:103200003B832A83E0E0F0E002C0FB01BC01DB016C
:1032100012968D919C9113970097B9F79B012E5FA1
:103220003F4F8D919C911197820F931F4091E20126
:103230005091E3014817590779F4309729F4109217
:10324000E5011092E40102C0138212822250304044
:103250003093E3012093E201DF91CF910895FB01C8
:10326000DC0102C001900D9241505040D8F7089502
:10327000DC0101C06D9341505040E0F70895FB011F
:10328000DC0101900D920020E1F70895DC016C91C2
:1032900061566A3108F0605E6F5B6D93C1F7089507
:1032A000AEE0B0E0E6E5F9E10C942E1C0D891E8934
:1032B00086E08C831A8309838FEF9FE79E838D833B
:1032C0009E01275E3F4FCE0101966F89788DA9013F
:1032D0000E947319EF81F885E00FF11F10822E967E
:1032E000E4E00C944A1CACE0B0E0E9E7F9E10C94AE
:1032F000201C6C011B018A01FC011782168283814C
:1033000081FFD1C12E010894411C511CF60193810B
:10331000F10193FD859193FF81911F01882309F4A9
:10332000BEC1853239F493FD859193FF81911F01D0
:10333000853229F490E0B6010E94961BE7CFEE2477
:10334000FF2420E02032B0F48B3269F08C3228F474
:10335000803251F0833271F40BC08D3239F08033FA
:1033600049F421602CC02260246029C0286027C055
:10337000206125C027FD2CC0382F30533A3098F4F7
:1033800026FF08C08E2D880FE82EEE0CEE0CE80EFE
:10339000E30E15C08F2D880FF82EFF0CFF0CF80ED2
:1033A000F30E20620CC08E3221F426FD78C1206419
:1033B00006C08C3611F4206802C0883649F4F10149
:1033C00093FD859193FF81911F01882309F0BACF66
:1033D000982F9554933018F09052933028F40C5F46
:1033E0001F4FFFE3F9830DC0833631F0833771F04F
:1033F000833509F060C022C0F801808189830E5FA7
:103400001F4F420171E0A72EB12C16C062E0662E5C
:10341000712C600E711EF8018080918026FF03C020
:103420006E2D70E002C06FEF7FEFC4012C870E9409
:103430008B1B5C0183012C852F7717C052E0652E12
:10344000712C600E711EF8018080918026FF03C0F0
:103450006E2D70E002C06FEF7FEFC4012C870E94D9
:10346000801B5C012C852068830123FD20C008C0DF
:1034700080E290E0B6012C870E94961BFA942C857E
:103480008F2D90E0A816B90698F311C0F40127FD1E
:10349000859127FF81914F0190E0B6012C870E9412
:1034A000961B2C85F110FA940894A108B108A11478
:1034B000B10461F7F1C0843611F0893649F527FF70
:1034C00008C0F80160817181828193810C5F1F4F78
:1034D00009C0F80160817181882777FD8095982F58
:1034E0000E5F1F4F4FE6B42EB22297FF09C0909592
:1034F0008095709561957F4F8F4F9F4FF0E8BF2A61
:10350000A2012AE030E00E94C21B782E741845C048
:10351000853731F43FEEB32EB2222AE030E025C0E9
:1035200099EFB92EB2228F36C1F0803720F488355A
:1035300009F0B5C00DC0803721F0883709F0AFC061
:1035400002C020E1B22AB4FE0BC084E0B82A08C051
:10355000B4FE09C0E6E0BE2A06C028E030E005C09F
:1035600020E130E002C020E132E0B7FE08C0F801FF
:1035700060817181828193810C5F1F4F07C0F801C8
:103580006081718180E090E00E5F1F4FA2010E9478
:10359000C21B782E7418FFE7BF22B6FE0BC02EEFB9
:1035A000B2227E1438F4B4FE07C0B2FC05C08FEE20
:1035B000B82202C0A72C01C0AE2C8B2D90E0B4FE27
:1035C0000DC0FE01E70DF11D2081203319F4E9EE55
:1035D000BE2209C0A394B2FE06C004C086789070D3
:1035E000009709F0A3948B2C9924B3FC14C0B0FE6F
:1035F0000FC0AF1428F4E72CEF0CEA18AF2C08C06A
:10360000E72C06C080E290E0B6010E94961BA394CE
:10361000AF14C0F304C0AF1410F4FA1801C0FF24B3
:1036200084FE0FC080E390E0B6010E94961B82FEEC
:103630001FC081FE03C088E590E010C088E790E0DD
:103640000DC0C40186789070009791F081FC02C093
:1036500080E201C08BE2B7FC8DE290E0B6010E94EF
:10366000961B06C080E390E0B6010E94961BEA9488
:103670007E14C0F37A94F201E70DF11D808190E091
:10368000B6010E94961B7720A9F706C080E290E061
:10369000B6010E94961BFA94FF20C1F737CEF601BF
:1036A0002681378102C02FEF3FEFC9012C96E2E15E
:1036B0000C943C1CDC01CB01FC01F999FECF06C047
:1036C000F2BDE1BDF89A319600B40D9241505040E0
:1036D000B8F70895F999FECF92BD81BDF89A992760
:1036E00080B50895262FF999FECF1FBA92BD81BDEE
:1036F00020BD0FB6F894FA9AF99A0FBE0196089574
:10370000FC010590615070400110D8F780959095AC
:103710008E0F9F1F0895FC016150704001900110B1
:10372000D8F7809590958E0F9F1F08950F931F9344
:10373000CF93DF938C01EB018B8181FF1BC082FF54
:103740000DC02E813F818C819D812817390764F43B
:10375000E881F9810193F983E88306C0E885F9855A
:10376000802F0995009731F48E819F8101969F8368
:103770008E8302C00FEF1FEFC801DF91CF911F9121
:103780000F910895FA01AA27283051F1203181F1D3
:10379000E8946F936E7F6E5F7F4F8F4F9F4FAF4F59
:1037A000B1E03ED0B4E03CD0670F781F891F9A1F6C
:1037B000A11D680F791F8A1F911DA11D6A0F711D20
:1037C000811D911DA11D20D009F468943F912AE02C
:1037D000269F11243019305D3193DEF6CF01089514
:1037E000462F4770405D4193B3E00FD0C9F7F6CF45
:1037F000462F4F70405D4A3318F0495D31FD40520D
:10380000419302D0A9F7EACFB4E0A69597958795A2
:1038100077956795BA95C9F7009761057105089581
:103820009B01AC010A2E069457954795379527952D
:10383000BA95C9F7620F731F841F951FA01D0895C5
:103840002F923F924F925F926F927F928F929F92B0
:10385000AF92BF92CF92DF92EF92FF920F931F939E
:10386000CF93DF93CDB7DEB7CA1BDB0B0FB6F8944F
:10387000DEBF0FBECDBF09942A88398848885F848F
:103880006E847D848C849B84AA84B984C884DF8000
:10389000EE80FD800C811B81AA81B981CE0FD11DE4
:1038A0000FB6F894DEBF0FBECDBFED010895F894BA
:0238B000FFCF48
:1038B200535752564B00010C0119012564522564DD
:1038C200002530327552253032750053004C0055B8
:1038D2000043430000580052002564004B00490099
:0638E2002000E6010000D9
:00000001FF
