:100000000C94D2000C94EF000C94EF000C94EF00D1
:100010000C94EF000C9451020C94EF000C945D01D1
:100020000C94EF000C94EF000C94EF000C94F10092
:100030000C94EF000C94EF000C94EF000C94EF0084
:100040000C94EF000C94EF000C94EF000C94EF0074
:100050000C94EF000C94EF000C94EF000C94EF0064
:100060000C94EF000C94EF00FF80808080808080F3
:100070008080808080E08094FC7C3C1C0C0484C4E4
:10008000E4F48080808C8032806088A8904028D002
:10009000082078B048E0A0F068D85010C030187040
:1000A00098B8C8808386898C8F9295989C9FA2A5CA
:1000B000A8ABAEB0B3B6B9BCBFC1C4C7C9CCCED172
:1000C000D3D5D8DADCDEE0E2E4E6E8EAECEDEFF006
:1000D000F2F3F5F6F7F8F9FAFBFCFCFDFEFEFFFF84
:1000E000FFFFFFFFFFFFFFFFFFFEFEFDFCFCFBFA33
:1000F000F9F8F7F6F5F3F2F0EFEDECEAE8E6E4E212
:10010000E0DEDCDAD8D5D3D1CECCC9C7C4C1BFBC00
:10011000B9B6B3B0AEABA8A5A29F9C9895928F8CB0
:10012000898683807C797673706D6A6763605D5AB7
:100130005754514F4C494643403E3B383633312E9D
:100140002C2A272523211F1D1B1917151312100FE9
:100150000D0C0A090807060504030302010100004B
:10016000000000000000000000010102030304057C
:10017000060708090A0C0D0F1012131517191B1D7D
:100180001F212325272A2C2E313336383B3E40436E
:1001900046494C4F5154575A5D6063676A6D70739E
:1001A00076797C0011241FBECFEFD4E0DEBFCDBF37
:1001B00011E0A0E0B1E0E2E4FFE302C005900D929F
:1001C000A035B107D9F712E0A0E5B1E001C01D925A
:1001D000AB30B107E1F70E94C90D0C949F1F0C943E
:1001E00000001F920F920FB60F9211241F932F93AE
:1001F0003F934F935F938F939F93AF93BF93EF93EF
:10020000FF93DF93CF9300D00F92CDB7DEB78091ED
:100210005001813009F03CC02091B4013091B5010A
:100220004091B6015091B7018091C6019091C701EC
:10023000A091C801B091C901820F931FA41FB51FDF
:100240008093B4019093B501A093B601B093B70128
:100250008091B4019091B501A091B601B091B70120
:100260008B2F9927AA27BB278093820187E490E0F0
:1002700020918201222F30E02D553F4F3A83298370
:1002800029813A81F90114911B832B81FC01208380
:100290002396DEBFCDBFCF91DF91FF91EF91BF914C
:1002A000AF919F918F915F914F913F912F911F91AE
:1002B0000F900FBE0F901F9018951F920F920FB6C0
:1002C0000F9211242F933F934F935F936F937F93DC
:1002D0008F939F93AF93BF93EF93FF93DF93CF934E
:1002E000CDB7DEB780915101813051F488E290E0C2
:1002F00028E230E0F90120812062FC01208309C05E
:1003000088E290E028E230E0F90120812F7DFC01B5
:10031000208380915201813009F043C020918401F3
:1003200030918501409186015091870180910102B1
:1003300090910202A0910302B0910402281739079C
:100340004A075B0770F52091840130918501409147
:100350008601509187018091BE019091BF01A091CB
:10036000C001B091C10182179307A407B507C8F473
:100370008091E201813021F08091E201823021F40C
:1003800081E00E948C0D03C080E00E948C0D88E209
:1003900090E028E230E0F90120812061FC01208317
:1003A0000DC08091E1010E948C0D88E290E028E26E
:1003B00030E0F90120812F7EFC0120838091E20151
:1003C000882309F445C08091E201813051F488E22C
:1003D00090E028E230E0F90120812260FC012083D6
:1003E00037C08091E201823099F520917E013091F1
:1003F0007F0140918001509181018091ED019091A8
:10040000EE01A091EF01B091F00182179307A407CC
:10041000B507F0F488E290E028E230E0F90130819D
:1004200022E02327FC01208380917E0190917F01AF
:10043000A0918001B09181018C509E4FAF4FBF4F72
:100440008093ED019093EE01A093EF01B093F00142
:1004500080E00E9495048091840190918501A09193
:100460008601B09187010196A11DB11D8093840181
:1004700090938501A0938601B0938701CF91DF917E
:10048000FF91EF91BF91AF919F918F917F916F916C
:100490005F914F913F912F910F900FBE0F901F9042
:1004A00018951F920F920FB60F9211248F939F935E
:1004B000AF93BF93EF93FF93DF93CF93CDB7DEB7A7
:1004C00088E690E0FC011082809183018093B8015E
:1004D00081E08093D60180917E0190917F01A0916F
:1004E0008001B09181018C599F4FAF4FBF4F8093D6
:1004F000E4019093E501A093E601B093E7018091B8
:100500007E0190917F01A0918001B0918101845D75
:100510009E4FAF4FBF4F8093DD019093DE01A093BC
:10052000DF01B093E001CF91DF91FF91EF91BF9197
:10053000AF919F918F910F900FBE0F901F901895C4
:10054000DF93CF9300D0CDB7DEB7F89481E690E08B
:1005500020E8FC01208381E690E0FC01108284E425
:1005600090E021E8FC01208385E490E021E0FC019B
:10057000208381E890E029E0FC01208380E890E07E
:10058000FC01108288E890E028EE33E0FC01318322
:1005900020838FE690E022E0FC01208380EB90E056
:1005A00022E0FC01208381EB90E024E0FC01208329
:1005B00080E790E020E730E0F90120812260FC0133
:1005C000208383EB90E029EFFC0120838AE790E011
:1005D0002AE730E0F90120812468FC0120838CE7C0
:1005E00090E020E6FC0120838BE690E021E0FC0116
:1005F00020838DE690E02FE9FC0120838AE290E0E1
:100600002AE230E0F90120812064FC01208387E2A6
:1006100090E027E230E0F90120812062FC01208394
:1006200087E290E027E230E0F90120812061FC01BF
:10063000208387E290E027E230E0F90120812D7FDE
:10064000FC01208388E290E028E230E0F90120817B
:100650002D7FFC0120838AE290E02AE230E0F9015C
:100660002081277FFC0120838BE290E02BE230E0A9
:10067000F90120812860FC0120838AE290E02AE2CF
:1006800030E0F90120812F7EFC0120838BE290E095
:100690002BE230E0F90120812061FC0120838AE215
:1006A00090E02AE230E0F90120812B7FFC012083D9
:1006B0008BE290E02BE230E0F90120812460FC0124
:1006C00020838AE290E02AE230E0F90120812D7F48
:1006D000FC0120838BE290E02BE230E0F9012081E5
:1006E0002260FC01208384E290E024E230E0F90102
:1006F00020812E7FFC01208385E290E025E230E01E
:10070000F90120812160FC0120838AE290E02AE245
:1007100030E0F90120812F77FC0120838BE290E00B
:100720002BE230E0F90120812068FC0120838AE27D
:1007300090E02AE230E0F90120812E7FFC01208345
:100740008BE290E02BE230E0F90120812160FC0196
:10075000208384E290E024E230E0F90120812E62DF
:10076000FC0120838CE490E029E5FC0120838DE4EA
:1007700090E0FC0180818A838EE490E0FC0180811E
:100780008A8384E690E024E630E0F9012081206845
:10079000FC01208384E690E024E630E0F90120812A
:1007A0002260FC01208383E590E023E530E0F9013D
:1007B0002081217F2C60FC01208381E080938801CF
:1007C00081E08093D60181E08093BD011092840185
:1007D0001092850110928601109287018CE09FE1B2
:1007E000A1E1B5E08093C2019093C301A093C4013D
:1007F000B093C50180EE99E8A6EDB0E08093F201D8
:100800009093F301A093F401B093F5018091C2019C
:100810009091C301A091C401B091C501BC01CD016B
:1008200040E021E00E94EC0C8091C2019091C30154
:10083000A091C401B091C501BC01CD0141E020E00F
:100840000E94EC0C84EF91E09093D1018093D00151
:100850008091D0019091D101CC01A0E0B0E0BC0129
:10086000CD010E94A20D1092E2011092E1011982C5
:1008700006C080E00E94950489818F5F8983898109
:100880008F30B8F38FE390E0FC018081882F90E0F7
:10089000827090700097B1F780E090E00E94B21EE5
:1008A0008093F6018091F6010E947D048FE390E031
:1008B000FC018081882F90E0827090700097B1F7E2
:1008C00081E090E00E94B21E882321F481E08093B1
:1008D000B80102C01092B8018091D201813039F480
:1008E0008091EC01882319F481E08093B801789419
:1008F0000F900F90CF91DF910895DF93CF930F92D8
:10090000CDB7DEB789838981282F30E080EB94E072
:10091000B9010E940F1B9B01C90190938A0180932A
:1009200089010F90CF91DF910895DF93CF930F92BC
:10093000CDB7DEB789838981813041F51092660198
:1009400010926501109268011092670110926A017D
:100950001092690110926C0110926B0110926E015D
:1009600010926D011092700110926F01109272013D
:10097000109271011092740110927301109276011D
:1009800010927501109278011092770189E290E03F
:10099000FC018081882F90E0887090700097A9F406
:1009A00080916501909166018530910548F48091B0
:1009B00065019091660101969093660180936501AF
:1009C00010926A011092690114C08091690190919E
:1009D0006A018530910548F48091690190916A011E
:1009E000019690936A0180936901109266011092BA
:1009F000650189E290E0FC018081882F90E08071A0
:100A000090700097A9F480916701909168018530FA
:100A1000910548F480916701909168010196909347
:100A200068018093670110926C0110926B0114C0F1
:100A300080916B0190916C018530910548F4809113
:100A40006B0190916C01019690936C0180936B0106
:100A50001092680110926701809165019091660182
:100A60008530910518F081E08093EC018091690157
:100A700090916A018530910510F01092EC018091FF
:100A80006701909168018530910518F081E08093AD
:100A9000D20180916B0190916C018530910510F02D
:100AA0001092D20189E290E0FC018081882F90E0D1
:100AB000847090700097A1F489E290E0FC0180813D
:100AC000882F90E082709070009751F480917101AE
:100AD000909172010196909372018093710125C0EB
:100AE00080917101909172018530910560F0809143
:100AF000710190917201F1E0843F9F0720F481E041
:100B00008093D4010EC0809171019091720121E017
:100B1000843F920720F082E08093D40102C01092BB
:100B2000D401109272011092710189E290E0FC01EF
:100B30008081882F90E084709070009751F48091AC
:100B40006D0190916E01019690936E0180936D01FD
:100B500025C080916D0190916E018530910560F006
:100B600080916D0190916E01F1E0843F9F0720F428
:100B700081E08093D5010EC080916D0190916E014E
:100B800021E0843F920720F082E08093D50102C0EB
:100B90001092D50110926E0110926D0189E290E0E1
:100BA000FC018081882F90E082709070009751F452
:100BB00080916F01909170010196909370018093E4
:100BC0006F0125C080916F01909170018530910572
:100BD00060F080916F0190917001F1E0843F9F0778
:100BE00020F481E08093D3010EC080916F01909139
:100BF000700121E0843F920720F082E08093D301CE
:100C000002C01092D3011092700110926F0189E21C
:100C100090E0FC018081882F90E0817090700097B7
:100C200051F4809173019091740101969093740135
:100C30008093730125C08091730190917401853078
:100C4000910560F08091730190917401F1E0843F0F
:100C50009F0720F481E08093E3010EC0809173012F
:100C60009091740121E0843F920720F082E080930C
:100C7000E30102C01092E30110927401109273011B
:100C800083E290E0FC018081882F90E08170907079
:100C90000097A9F4809175019091760185309105B6
:100CA00048F48091750190917601019690937601B8
:100CB0008093750110927A011092790114C080918D
:100CC000790190917A018530910548F480917901FC
:100CD00090917A01019690937A0180937901109214
:100CE00076011092750189E290E0FC0180818823F1
:100CF000ACF080917701909178018530910548F4AE
:100D0000809177019091780101969093780180937A
:100D1000770110927C0110927B0114C080917B01BD
:100D200090917C018530910548F480917B019091F0
:100D30007C01019690937C0180937B011092780155
:100D4000109277018091750190917601853091051F
:100D500018F081E080937D018091790190917A0172
:100D60008530910510F010927D018091770190916E
:100D700078018530910518F081E08093050280911B
:100D80007B0190917C018530910510F01092050255
:100D90000F90CF91DF910895DF93CF9300D000D0D3
:100DA0000F92CDB7DEB79A8389837C836B834D83A3
:100DB00089819A810E948E1C8091FF01909100028E
:100DC00029813A81B9010E94871C8091D6018093C4
:100DD00088018091E4019091E501A091E601B09134
:100DE000E7018093CA019093CB01A093CC01B0930B
:100DF000CD018091B8018093CE018091D001909176
:100E0000D1019093DC018093DB018B819C819093D5
:100E1000D1018093D0018091F601809306028D81EB
:100E20008093F6018091D0019091D101CC01A0E096
:100E3000B0E0BC01CD010E94A20D8091F6010E949C
:100E40007D0481E08093D60182E08093B8010F9009
:100E50000F900F900F900F90CF91DF910895DF9337
:100E6000CF9300D000D000D0CDB7DEB78AE090E0BD
:100E70000E94441B9A8389838AE790E02AE730E046
:100E8000D9012C912064FC0120838AE790E0DC01E9
:100E90008C91882F90E0807490700097B1F789E76B
:100EA00090E0FC018081882F90E09C838B834B81B4
:100EB0005C8121EA30E0429FC001439F900D529F28
:100EC000900D1124892F99279E838D838D819E817A
:100ED0002AE030E0B9010E94FB1A9B01F9018D81E3
:100EE0009E812AE030E0B9010E94FB1A9C018DB777
:100EF0009EB708970FB6F8949EBF0FBE8DBF8DB7F3
:100F00009EB7019649815A81DC014D935C934BE079
:100F100051E0DC0113965C934E931297DC01159619
:100F2000FC93EE931497FC01378326830E94981C50
:100F30008DB79EB708960FB6F8949EBF0FBE8DBFB3
:100F40002091D0013091D1014091F60189819A819F
:100F5000B9010E94CC0689819A810E94DE1B2696E7
:100F60000FB6F894DEBF0FBECDBFCF91DF910895CD
:100F70000F931F93DF93CF9300D0CDB7DEB78FE0F1
:100F800090E00E94441B9A8389838091E201823021
:100F900029F08091E201813009F0AEC08091D80142
:100FA0009091D90199230CF056C08091D80190916D
:100FB000D90128EE33E0B9010E940F1B9B01C90142
:100FC00024E630E0B9010E940F1B99231CF4909590
:100FD00081959F4FFC018091D8019091D90128EE15
:100FE00033E0B9010E940F1B2AE030E0B9010E94F2
:100FF0000F1B9B01C90199231CF4909581959F4F6C
:101000009C018DB79EB708970FB6F8949EBF0FBE90
:101010008DBF8DB79EB7019649815A81DC014D93F2
:101020005C9341E151E0DC0113965C934E9312977F
:10103000DC011596FC93EE931497FC01378326830D
:101040000E94981C8DB79EB708960FB6F8949EBF65
:101050000FBE8DBFB4C08091D8019091D90128EE08
:1010600033E0B9010E940F1B9B01C90124E630E067
:10107000B9010E940F1BFC018091D8019091D90108
:1010800028EE33E0B9010E940F1B2AE030E0B901DD
:101090000E940F1B9B01C90199231CF49095819517
:1010A0009F4F9C01ADB7BEB718970FB6F894BEBF5F
:1010B0000FBEADBF8DB79EB7019649815A81DC0145
:1010C0004D935C934CE151E0DC0113965C934E939D
:1010D0001297DC011596FC93EE931497FC0137836D
:1010E00026830E94981C8DB79EB708960FB6F89479
:1010F0009EBF0FBE8DBF63C08091F2019091F3013E
:10110000A091F401B091F50128EE33E040E050E009
:10111000BC01CD010E94221BDA01C90124E630E0A6
:1011200040E050E0BC01CD010E94221BDC01CB015C
:101130008C018091F2019091F301A091F401B091A2
:10114000F50128EE33E040E050E0BC01CD010E9403
:10115000221BDC01CB012AE030E040E050E0BC0182
:10116000CD010E94221BDA01C9019C01ADB7BEB7B7
:1011700018970FB6F894BEBF0FBEADBF8DB79EB720
:10118000019649815A81FC015183408346E251E036
:10119000DC0113965C934E931297FC011583048334
:1011A000DC0117963C932E9316970E94981CEDB77E
:1011B000FEB738960FB6F894FEBF0FBEEDBF209174
:1011C000D0013091D1014091F60189819A81B90114
:1011D0000E94CC0689819A810E94DE1B0F900F909D
:1011E000CF91DF911F910F910895EF92FF920F938E
:1011F0001F93DF93CF930F92CDB7DEB78091D401C9
:101200008230F9F481E08093D6018091B801809317
:10121000CE0183E08093B80180917E0190917F019F
:10122000A0918001B0918101845D9E4FAF4FBF4F6F
:101230008093DD019093DE01A093DF01B093E00184
:1012400072C08091D5018130F9F48091B80180930A
:10125000CE0184E08093B80181E08093D601809133
:101260007E0190917F01A0918001B0918101845D08
:101270009E4FAF4FBF4F8093DD019093DE01A0934F
:10128000DF01B093E0014FC08091D3018130B9F408
:101290000E94B80780917E0190917F01A09180010A
:1012A000B0918101845D9E4FAF4FBF4F8093DD01B0
:1012B0009093DE01A093DF01B093E00134C08091F0
:1012C000D301823081F58BE891E022E030E0B90172
:1012D00048E250E00E94A21E8091FF01909100021E
:1012E0002BE831E0B9010E94871C81E08093D60190
:1012F0008091B8018093CE0186E08093B8018091FF
:101300007E0190917F01A0918001B0918101845D67
:101310009E4FAF4FBF4F8093DD019093DE01A093AE
:10132000DF01B093E0018091E301813009F077C0E3
:101330008091E201882309F059C080910601813033
:1013400051F51092060184E390E090930801809398
:10135000070185E08093090180917E0190917F01D2
:10136000A0918001B0918101845D9E4FAF4FBF4F2E
:101370008093DD019093DE01A093DF01B093E00143
:1013800081E00E94950480E391E060E971E049E129
:101390000E94CC06ABC181E0809306018CE091E015
:1013A000909308018093070189E18093090180915E
:1013B0007E0190917F01A0918001B0918101845DB7
:1013C0009E4FAF4FBF4F8093DD019093DE01A093FE
:1013D000DF01B093E00181E00E94950480E391E099
:1013E00064E873E049E10E94CC0680C18091E1018C
:1013F000882359F481E08093E10182E391E060E980
:1014000071E049E10E94CC0671C11092E10184E3D0
:1014100091E060E971E049E10E94CC0667C18091EA
:10142000E301823009F062C18091E2018F5F809315
:10143000E2018091E201833010F01092E20180918C
:10144000E201882F90E08130910529F082309105EA
:1014500009F46AC0D8C087E290E027E230E0F901E1
:1014600020812260FC0120831092060184E390E039
:10147000909308018093070185E080930901809192
:10148000C2019091C301A091C401B091C5018093A4
:10149000F7019093F801A093F901B093FA018091BC
:1014A000F7019091F801A091F901B091FA01BC0106
:1014B000CD0140E020E00E94EC0C8091F70190917A
:1014C000F801A091F901B091FA01BC01CD0141E010
:1014D00020E00E94EC0C1092E1018091E1010E9459
:1014E0008C0D1092D9011092D80181E00E949504D0
:1014F00080917E0190917F01A0918001B091810146
:10150000845D9E4FAF4FBF4F8093DD019093DE010E
:10151000A093DF01B093E00184E391E064E873E01D
:1015200049E10E94CC06E2C087E290E027E230E089
:10153000F90120812260FC01208380917E0190913D
:101540007F01A0918001B09181018C509E4FAF4FDF
:10155000BF4F8093ED019093EE01A093EF01B09304
:10156000F00181E0809306018CE091E09093080106
:101570008093070189E1809309018091F70190919F
:10158000F801A091F901B091FA01BC01CD0140E050
:1015900020E00E94EC0C8091F7019091F801A0915D
:1015A000F901B091FA01BC01CD0141E020E00E94B7
:1015B000EC0C81E08093E1018091E1010E948C0DAF
:1015C0001092D9011092D80181E00E949504809177
:1015D0007E0190917F01A0918001B0918101845D95
:1015E0009E4FAF4FBF4F8093DD019093DE01A093DC
:1015F000DF01B093E00186E391E064E873E049E144
:101600000E94CC0673C087E290E027E230E0F90147
:1016100020812D7FFC01208388E290E028E230E0E9
:10162000F90120812D7FFC01208381E08093060158
:101630008CE091E0909308018093070189E1809309
:1016400009018091F7019091F801A091F901B09101
:10165000FA018093C2019093C301A093C401B09397
:10166000C5018091C2019091C301A091C401B091C4
:10167000C501BC01CD0140E020E00E94EC0C80914E
:10168000C2019091C301A091C401B091C501BC01F8
:10169000CD0141E020E00E94EC0C1092E10180912C
:1016A000E1010E948C0D1092D9011092D80181E0C5
:1016B0000E94950480917E0190917F01A09180010C
:1016C000B0918101845D9E4FAF4FBF4F8093DD018C
:1016D0009093DE01A093DF01B093E00188E391E0F5
:1016E00064E873E049E10E94CC0600001982809111
:1016F0007D01882319F089818E5F8983809105029D
:10170000882319F089818F5F898380916401998191
:10171000981709F456C18091640186958170809371
:10172000640180917E0190917F01A0918001B09130
:101730008101845D9E4FAF4FBF4F8093DD01909339
:10174000DE01A093DF01B093E00180916401282FB6
:1017500030E08981882F90E08170907082279327F4
:101760008130910509F09CC08091E201813021F423
:101770008091E101882369F08091E201823021F4B7
:101780008091E101813029F08091E201882309F004
:1017900018C18091F2019091F301A091F401B091F0
:1017A000F5018138FFE99F07F5EDAF07F0E0BF07CE
:1017B00008F46BC02091C2013091C3014091C40173
:1017C0005091C5018091070190910801CC01A0E0E2
:1017D000B0E079018A01E81AF90A0A0B1B0BD8015B
:1017E000C7018093C2019093C301A093C401B09339
:1017F000C5018091E201823021F08091E2018130C7
:1018000089F42091D8013091D90180910901882F64
:1018100090E08901081B190BC8019093D9018093AE
:10182000D8011EC02091F2013091F3014091F401E2
:101830005091F50180910901882F90E0A0E0B0E07F
:1018400079018A01E81AF90A0A0B1B0BD801C701B2
:101850008093F2019093F301A093F401B093F5010A
:101860008091C2019091C301A091C401B091C501C2
:101870002091E101BC01CD01422F20E00E94EC0C3F
:101880008091E1010E948C0D9CC08AE391E064E8A4
:1018900073E049E10E94CC0681E00E94950491C06A
:1018A0008091E201813021F48091E101882369F087
:1018B0008091E201823021F48091E101813029F0B0
:1018C0008091E201882309F07CC08091F20190911F
:1018D000F301A091F401B091F501803B06EF900770
:1018E0000AEDA00700E0B00708F061C08091070191
:1018F000909108019C0140E050E08091C2019091DC
:10190000C301A091C401B091C501820F931FA41F10
:10191000B51F8093C2019093C301A093C401B093FB
:10192000C5018091E201823021F08091E201813095
:1019300079F480910901282F30E08091D8019091AD
:10194000D901820F931F9093D9018093D8011AC0B7
:1019500080910901282F30E040E050E08091F201B1
:101960009091F301A091F401B091F501820F931FC2
:10197000A41FB51F8093F2019093F301A093F4018B
:10198000B093F5018091C2019091C301A091C4016F
:10199000B091C5012091E101BC01CD01422F20E0B1
:1019A0000E94EC0C8091E1010E948C0D0AC08CE336
:1019B00091E064E873E049E10E94CC0681E00E9476
:1019C00095048981809364010F90CF91DF911F91DD
:1019D0000F91FF90EF900895DF93CF93CDB7DEB7CF
:1019E0002C970FB6F894DEBF0FBECDBF6F837887FC
:1019F00089879A874B872C878B85813029F480E0F3
:101A000090E89A83898304C080E090E49A83898374
:101A10008F8198859C013F7389819A81820F931FE2
:101A20009C838B838F819885A985BA85072E7EE05C
:101A3000B695A795979587957A95D1F7702D9C01C6
:101A40003F7389819A81820F931F9E838D838C853A
:101A5000813021F480E091E20E944A0D8B819C81CB
:101A60000E944A0D8D819E810E944A0D8C85813095
:101A700041F480E090EC0E944A0D80E090E20E94E8
:101A80004A0D2C960FB6F894DEBF0FBECDBFCF9196
:101A9000DF910895DF93CF9300D0CDB7DEB79A835F
:101AA000898385E290E025E230E0F901208120621F
:101AB000FC01208385E290E025E230E0F9012081FD
:101AC0002D7FFC0120838EE490E029813A81232F31
:101AD0003327FC01208300008DE490E0FC0180812D
:101AE0008823D4F78EE490E02981FC012083000054
:101AF0008DE490E0FC0180818823D4F785E290E0BA
:101B000025E230E0F90120812260FC0120830F9062
:101B10000F90CF91DF910895DF93CF930F92CDB7C0
:101B2000DEB789838981813029F480E098E20E94C0
:101B30004A0D04C080E090E20E944A0D0F90CF91C0
:101B4000DF910895DF93CF9300D000D0CDB7DEB7FB
:101B500069837A838B839C8389819A81AB81BC81E1
:101B600023E938E144E050E0BC01CD010E94DC1AD9
:101B7000DC01CB018093C6019093C701A093C801FB
:101B8000B093C9010F900F900F900F90CF91DF91FC
:101B900008951F93DF93CF93CDB7DEB72C970FB681
:101BA000F894DEBF0FBECDBF89E290E00E94441BD7
:101BB000909300028093FF018091FF0190910002B9
:101BC00060E070E049E250E00E94801C8091FF01DB
:101BD00090910002909355018093540189E290E026
:101BE0000E94441B909357018093560180915601A7
:101BF0009091570160E070E049E250E00E94801C43
:101C00000E94A0022091D0013091D1018EE391E099
:101C1000B9014FE00E94CC06F89480918401909124
:101C20008501A0918601B091870180937E019093F8
:101C30007F01A0938001B093810178948091B801D5
:101C4000882F90E08330910509F4FCC6843091051B
:101C500064F481309105C9F0823091050CF040C5E3
:101C6000009709F40EC10C94D91A8530910511F42E
:101C70000C94A517853091050CF4A3C78630910507
:101C800011F40C9467180C94D91A81E080938301A5
:101C90000E94F5088091D601882F90E08730910549
:101CA00009F443C08C30910509F4A6C08130910538
:101CB00009F0E5C0109252011092500110925101AA
:101CC0008091EC01813069F580917E0190917F01D6
:101CD000A0918001B09181010196A11DB11D809359
:101CE000BE019093BF01A093C001B093C1018FEFDB
:101CF0009FEFDC018093010290930202A093030204
:101D0000B09304028FEF9FEFDC018093E401909386
:101D1000E501A093E601B093E70187E08093D60147
:101D200003C081E08093D601AAC08091F201909116
:101D3000F301A091F401B091F501813B26EF9207E8
:101D40002AEDA20720E0B20780F48091F201909181
:101D5000F301A091F401B091F5018038EFE99E07FD
:101D6000E5EDAE07E0E0BE0738F4109252011092A4
:101D700050011092510109C081E08093520181E02D
:101D80008093500181E0809351018091EC01882380
:101D900039F58CE08093D60180917E0190917F018E
:101DA000A0918001B0918101C296A11DB11D8093C7
:101DB000E4019093E501A093E601B093E7018091DF
:101DC0007E0190917F01A0918001B091810180936B
:101DD000010290930202A0930302B09304020BC08D
:101DE0008FEF9FEFDC018093010290930202A0939A
:101DF0000302B093040243C01092520110925001AA
:101E00008091F2019091F301A091F401B091F5015C
:101E1000813BF6EF9F07FAEDAF07F0E0BF0780F4D4
:101E20008091F2019091F301A091F401B091F5013C
:101E300080382FE9920725EDA20720E0B20718F4B9
:101E40001092510103C081E08093510120917E01E5
:101E500030917F0140918001509181018091E40196
:101E60009091E501A091E601B091E70128173907AB
:101E70004A075B0718F081E08093D60100000C94BC
:101E8000DA1A109283010E94F5088091D601882FFA
:101E900090E08330910509F415C28430910544F433
:101EA0008130910571F08230910509F475C115C436
:101EB0008430910509F49CC28C30910509F4DAC391
:101EC0000CC4109252011092500110925101809155
:101ED0007E0190917F01A0918001B091810180935A
:101EE000E8019093E901A093EA01B093EB0180919E
:101EF000EC01813009F068C08091D201882309F09B
:101F000063C081E08093880182E08093D60181E004
:101F10008093BD018091890190918A019C0140E0EC
:101F200050E080917E0190917F01A0918001B0915D
:101F30008101820F931FA41FB51F8093E40190932A
:101F4000E501A093E601B093E70180917E019091B5
:101F50007F01A0918001B09181010196A11DB11D69
:101F60008093BE019093BF01A093C001B093C101C3
:101F70008091E4019091E501A091E601B091E70123
:101F80008093010290930202A0930302B093040293
:101F900080917E0190917F01A0918001B09181019B
:101FA0008093FB019093FC01A093FD01B093FE018F
:101FB0008FEF9FEFDC018093E8019093E901A093FC
:101FC000EA01B093EB01E7C08091D201813009F0C2
:101FD0006DC08091EC01882309F068C081E0809396
:101FE000880183E08093D60181E08093BD01209138
:101FF000890130918A01C901880F991F820F931FAF
:102000009C0140E050E080917E0190917F01A09181
:102010008001B0918101820F931FA41FB51F80938F
:10202000E4019093E501A093E601B093E70180916C
:102030007E0190917F01A0918001B0918101019674
:10204000A11DB11D8093BE019093BF01A093C0015B
:10205000B093C1018091E4019091E501A091E60166
:10206000B091E7018093010290930202A0930302D2
:10207000B093040280917E0190917F01A091800134
:10208000B09181018093FB019093FC01A093FD012D
:10209000B093FE018FEF9FEFDC018093E8019093F6
:1020A000E901A093EA01B093EB0175C08091EC01C6
:1020B000813009F06DC08091D201813009F068C093
:1020C0008091BD01813009F063C081E08093880177
:1020D00082E08093D60183E08093BD0180918901E5
:1020E00090918A019C0140E050E080917E019091A6
:1020F0007F01A0918001B0918101820F931FA41FE5
:10210000B51F8093E4019093E501A093E601B0939D
:10211000E70180917E0190917F01A0918001B091B3
:1021200081010196A11DB11D8093BE019093BF0155
:10213000A093C001B093C1018091E4019091E501A9
:10214000A091E601B091E701809301029093020211
:10215000A0930302B093040280917E0190917F01CD
:10216000A0918001B09181018093FB019093FC01CB
:10217000A093FD01B093FE018FEF9FEFDC018093F0
:10218000E8019093E901A093EA01B093EB0103C049
:1021900081E08093D601A2C28091F2019091F30177
:1021A000A091F401B091F501813BE6EF9E07EAEDC5
:1021B000AE07E0E0BE0780F48091F2019091F30158
:1021C000A091F401B091F5018038FFE99F07F5ED8A
:1021D000AF07F0E0BF0738F410925201109250019F
:1021E0001092510109C081E08093520181E08093F7
:1021F000500181E08093510120917E0130917F0157
:1022000040918001509181018091E4019091E5011C
:10221000A091E601B091E70182179307A407B507E3
:1022200008F044C082E08093880184E08093D60166
:102230008091890190918A019C0140E050E0809159
:102240007E0190917F01A0918001B0918101820F68
:10225000931FA41FB51F8093E4019093E501A09301
:10226000E601B093E70180917E0190917F01A091FA
:102270008001B09181018093FB019093FC01A093B8
:10228000FD01B093FE018091E4019091E501A091E0
:10229000E601B091E701C296A11DB11D8093E8014E
:1022A0009093E901A093EA01B093EB018091D201F0
:1022B000813039F48091BD01813019F483E080933D
:1022C000BD010CC28091F2019091F301A091F40143
:1022D000B091F501813B26EF92072AEDA20720E09D
:1022E000B20780F48091F2019091F301A091F40182
:1022F000B091F5018038EFE99E07E5EDAE07E0E02B
:10230000BE0738F410925201109250011092510100
:1023100009C081E08093520181E08093500181E007
:102320008093510120917E0130917F014091800185
:10233000509181018091E4019091E501A091E60125
:10234000B091E70182179307A407B50708F044C0CE
:1023500083E08093880184E08093D6018091890195
:1023600090918A019C0140E050E080917E01909123
:102370007F01A0918001B0918101820F931FA41F62
:10238000B51F8093E4019093E501A093E601B0931B
:10239000E70180917E0190917F01A0918001B09131
:1023A00081018093FB019093FC01A093FD01B09308
:1023B000FE018091E4019091E501A091E601B091C8
:1023C000E701C296A11DB11D8093E8019093E90138
:1023D000A093EA01B093EB018091EC01813039F4D4
:1023E0008091BD01813019F482E08093BD0176C1F6
:1023F00020917E0130917F014091800150918101B7
:102400008091E4019091E501A091E601B091E7018E
:1024100082179307A407B50708F0E2C08091BD01B9
:10242000823009F05DC082E08093D60180918901FD
:1024300090918A019C0140E050E080917E01909152
:102440007F01A0918001B0918101820F931FA41F91
:10245000B51F8093E4019093E501A093E601B0934A
:10246000E70180917E0190917F01A0918001B09160
:1024700081010196A11DB11D8093BE019093BF0102
:10248000A093C001B093C1018091E4019091E50156
:10249000A091E601B091E7018093010290930202BE
:1024A000A0930302B093040280917E0190917F017A
:1024B000A0918001B09181018093FB019093FC0178
:1024C000A093FD01B093FE018FEF9FEFDC0180939D
:1024D000E8019093E901A093EA01B093EB017AC07F
:1024E0008091BD01833009F062C083E08093D60102
:1024F0002091890130918A01C901880F991F820FAB
:10250000931F9C0140E050E080917E0190917F01FB
:10251000A0918001B0918101820F931FA41FB51F6C
:102520008093E4019093E501A093E601B093E70165
:1025300080917E0190917F01A0918001B0918101F5
:102540000196A11DB11D8093BE019093BF01A09380
:10255000C001B093C1018091E4019091E501A09187
:10256000E601B091E7018093010290930202A093EB
:102570000302B093040280917E0190917F01A091AB
:102580008001B09181018093FB019093FC01A093A5
:10259000FD01B093FE018FEF9FEFDC018093E80116
:1025A0009093E901A093EA01B093EB0113C081E09D
:1025B0008093D60180917E0190917F01A09180014E
:1025C000B09181018093E4019093E501A093E6012D
:1025D000B093E70184E08093880181E08093BD019E
:1025E0008091EC01813061F480918801833041F465
:1025F0008091BD01813021F482E08093BD010FC044
:102600008091D201813059F480918801823039F46F
:102610008091BD01813019F483E08093BD01109257
:102620005201109250018091F2019091F301A0911A
:10263000F401B091F501813BF6EF9F07FAEDAF078A
:10264000F0E0BF0780F48091F2019091F301A09136
:10265000F401B091F50180382FE9920725EDA2072A
:1026600020E0B20718F41092510103C081E080937A
:10267000510134C010925201109250011092510138
:1026800020917E0130917F01409180015091810124
:102690008091E4019091E501A091E601B091E701FC
:1026A00082179307A407B50718F481E08093D60139
:1026B00080917E0190917F01A0918001B091810174
:1026C000845D9E4FAF4FBF4F8093DD019093DE013D
:1026D000A093DF01B093E00101C000000C94DA1A6E
:1026E0008091D601882F90E08430910544F48230A7
:1026F00091050CF049C18130910531F0A1C18730BD
:1027000091050CF09DC17CC120915401309155017F
:102710008091FF019091000228173907C9F4809138
:1027200058018823A9F48091540190915501FC012E
:102730008081882F90E0809788599F4F9A83898362
:1027400089819A81FC0114911B838B8180935801AC
:1027500080915801882309F4CEC0809158018038B7
:1027600029F0809158018F3F09F079C0809158017C
:10277000803821F52091890130918A01C901880FA3
:10278000991F820F931F9C0140E050E080917E01D1
:1027900090917F01A0918001B0918101820F931FE0
:1027A000A41FB51F8093E4019093E501A093E60177
:1027B000B093E70185E08093D60127C0209189017D
:1027C00030918A01C901880F991F880F991F880FBE
:1027D000991F821B930B9C0140E050E080917E0189
:1027E00090917F01A0918001B0918101820F931F90
:1027F000A41FB51F8093E4019093E501A093E60127
:10280000B093E70185E08093D601809154019091C7
:102810005501019690935501809354018091540184
:1028200090915501FC018081882319F41092580180
:1028300015C08091540190915501FC018081882F31
:1028400090E0809788599F4F9D838C838C819D81D8
:10285000FC0114911E838E81809358014BC080919E
:102860005801882324F52091890130918A01C901FA
:10287000880F991F820F931F9C0140E050E08091C8
:102880007E0190917F01A0918001B0918101820F22
:10289000931FA41FB51F8093E4019093E501A093BB
:1028A000E601B093E70183E08093D6011EC08091DA
:1028B000890190918A019C0140E050E080917E0165
:1028C00090917F01A0918001B0918101820F931FAF
:1028D000A41FB51F8093E4019093E501A093E60146
:1028E000B093E70182E08093D60180915801880F70
:1028F0008093580148C08091FF019091000221E42B
:1029000031E0B90141E050E00E94771C8091FF0165
:1029100090910002909355018093540110925801B8
:102920008091DB019091DC019093D1018093D001E3
:102930008091D0019091D101CC01A0E0B0E0BC0128
:10294000CD010E94A20D809106028093F601809134
:10295000F6010E947D048091CE018093B8018091A0
:1029600088018093D6018091CA019091CB01A091FA
:10297000CC01B091CD018093E4019093E501A09347
:10298000E601B093E7015DC020917E0130917F01A7
:1029900040918001509181018091E4019091E50185
:1029A000A091E601B091E70182179307A407B5074C
:1029B000F0F48091890190918A019C0140E050E0FF
:1029C00080917E0190917F01A0918001B091810161
:1029D000820F931FA41FB51F8093E4019093E5011C
:1029E000A093E601B093E70184E08093D6011092B2
:1029F000520181E08093500181E08093510121C018
:102A000020917E0130917F014091800150918101A0
:102A10008091E4019091E501A091E601B091E70178
:102A200082179307A407B50718F481E08093D601B5
:102A3000109252011092500181E08093510101C027
:102A40000000B8C58091D601882F90E087309105AD
:102A500009F450C08830910509F48CC0813091058B
:102A600009F0AEC080917E0190917F01A09180011C
:102A7000B09181010196A11DB11D8093BE0190937B
:102A8000BF01A093C001B093C1018FEF9FEFDC01A4
:102A90008093010290930202A0930302B093040278
:102AA0008FEF9FEFDC018093E4019093E501A09309
:102AB000E601B093E70180917E0190917F01A091A2
:102AC0008001B09181018093FB019093FC01A09360
:102AD000FD01B093FE018FEF9FEFDC018093E801D1
:102AE0009093E901A093EA01B093EB0187E0809312
:102AF000D60166C081E08093520181E0809350014D
:102B000081E0809351018091EC01813061F08091EE
:102B1000D201813041F08091D501813021F0809146
:102B2000D301813031F588E08093D60180917E0118
:102B300090917F01A0918001B0918101C296A11D69
:102B4000B11D8093E4019093E501A093E601B09359
:102B5000E70180917E0190917F01A0918001B09169
:102B600081018093010290930202A0930302B0932B
:102B7000040226C0109252011092500181E080930D
:102B8000510120917E0130917F014091800150914F
:102B900081018091E4019091E501A091E601B0915D
:102BA000E701281739074A075B0748F010925101DF
:102BB00081E08093D601809183018093B801000069
:102BC000F9C48091D601882F90E08930910591F069
:102BD0008A30910509F458C08130910509F0ACC1E3
:102BE00080E091E090935A018093590189E08093AD
:102BF000D601AAC182E090E00E94441B90935C0140
:102C000080935B0180915B0190915C0160E070E0DA
:102C100042E050E00E94801C80915B0190915C0139
:102C20002091590130915A01B90141E050E00E94D0
:102C3000771C80917E0190917F01A0918001B091DD
:102C400081018056904FAF4FBF4F8093E401909326
:102C5000E501A093E601B093E7018AE08093D601F5
:102C600080915B0190915C012091D0013091D10164
:102C70004091F601B9010E94CC0680915B019091D0
:102C80005C010E94DE1B60C184E190E00E94441B55
:102C9000909357018093560180915601909157016E
:102CA00060E070E044E150E00E94801C20917E01D1
:102CB00030917F0140918001509181018091E40128
:102CC0009091E501A091E601B091E701281739073D
:102CD0004A075B0708F017C18091D501813049F59B
:102CE00081E00E9495048091590190915A010196CA
:102CF00090935A01809359018091590190915A0102
:102D0000FC018081882389F481E08093D601809141
:102D100083018093B8012091F60186E391E060E998
:102D200071E0422F0E94CC0600C189E08093D60159
:102D3000FCC08091D301813009F0F6C081E00E948F
:102D400095048091590190915A01FC018081882F4E
:102D500090E083359105A1F0843591054CF48B34D6
:102D6000910509F483C08235910509F464C0DDC082
:102D70008635910509F470C08735910521F1D5C0DC
:102D800080917E0190917F01A0918001B09181019D
:102D90008056904FAF4FBF4F8093E4019093E50171
:102DA000A093E601B093E70185E08093B8012091FC
:102DB000D0013091D1014091F60184E391E0B90155
:102DC0000E94CC06B2C081E08093D601809183013D
:102DD0008093B80140915601509157018091F601BE
:102DE000282F30E000D000D000D08DB79EB70196DC
:102DF000FC015183408342E451E0FC015383428350
:102E0000FC01358324830E94981C8DB79EB70696DB
:102E10000FB6F8949EBF0FBE8DBF80915601909162
:102E200057012091D0013091D1014091F601B901B3
:102E30000E94CC067AC01092D60187E08093B80138
:102E40002091D0013091D1014091F60184E391E0CD
:102E5000B9010E94CC0669C081E08093D6018091BF
:102E600083018093B8010E942F075FC08091830186
:102E7000882329F581E08093830181E08093D60146
:102E8000809183018093B8018FE390E0FC01808101
:102E9000882F90E0827090700097B1F781E090E009
:102EA00060E00E94BA1E2091D0013091D101409182
:102EB000F60180E391E0B9010E94CC0636C0109281
:102EC000830181E08093D601809183018093B801D2
:102ED0008FE390E0FC018081882F90E082709070F9
:102EE0000097B1F781E090E061E00E94BA1E209166
:102EF000D0013091D1014091F60185E491E0B90112
:102F00000E94CC0612C081E08093D601809183019B
:102F10008093B8012091F60186E391E060E971E0C9
:102F2000422F0E94CC0601C0000080915601909172
:102F300057010E94DE1B08C081E08093D60180917A
:102F400083018093B801000035C320917E01309148
:102F50007F0140918001509181018091E401909125
:102F6000E501A091E601B091E701281739074A076A
:102F70005B0708F063C08091D501813069F58091CD
:102F8000F601883228F48091F6018F5F8093F60174
:102F90008091F6010E947D0480917E0190917F01D5
:102FA000A0918001B09181018056904FAF4FBF4FEB
:102FB0008093E4019093E501A093E601B093E701CB
:102FC0002091D0013091D1014091F60187E491E048
:102FD000B9010E94CC067AC08091D301813009F0FA
:102FE00075C08091F601863028F08091F6018150FD
:102FF0008093F6018091F6010E947D0480917E010C
:1030000090917F01A0918001B09181018056904FF5
:10301000AF4FBF4F8093E4019093E501A093E60189
:10302000B093E7012091D0013091D1014091F60198
:1030300087E491E0B9010E94CC0648C08FE390E09C
:10304000FC018081882F90E0827090700097B1F72A
:103050002091F60180E090E0622F0E94BA1E81E08C
:103060008093D601809183018093B80140915601ED
:10307000509157018091F601282F30E000D000D008
:1030800000D08DB79EB70196FC015183408342E486
:1030900051E0FC0153834283FC01358324830E9469
:1030A000981C8DB79EB706960FB6F8949EBF0FBEBC
:1030B0008DBF80915601909157012091D0013091A0
:1030C000D1014091F601B9010E94CC0673C28091F2
:1030D000EC01813061F08091D201813041F080912A
:1030E000D501813021F08091D3018130E9F58091C3
:1030F000FF019091000221E431E0B90141E050E08C
:103100000E94771C8091FF019091000290935501DD
:10311000809354011092580180917E0190917F011B
:10312000A0918001B09181018093E8019093E90121
:10313000A093EA01B093EB018091CE018093B80196
:10314000809188018093D6018091CA019091CB0132
:10315000A091CC01B091CD018093E4019093E50161
:10316000A093E601B093E7018091D601882F90E00B
:103170008430910544F4823091050CF0BBC181305C
:10318000910531F014C2873091050CF010C2EFC1E7
:1031900020915401309155018091FF0190910002DE
:1031A00028173907C9F4809158018823A9F4809120
:1031B000540190915501FC018081882F90E0809707
:1031C00088599F4F98878F838F819885FC01149130
:1031D000198789858093580180915801882309F4C3
:1031E0004BC180915801803829F0809158018F3F60
:1031F00009F079C080915801803821F5209189012A
:1032000030918A01C901880F991F820F931F9C0179
:1032100040E050E080917E0190917F01A09180017B
:10322000B0918101820F931FA41FB51F8093E40109
:103230009093E501A093E601B093E70185E08093C8
:10324000D60127C02091890130918A01C901880FD8
:10325000991F880F991F880F991F821B930B9C0140
:1032600040E050E080917E0190917F01A09180012B
:10327000B0918101820F931FA41FB51F8093E401B9
:103280009093E501A093E601B093E70185E0809378
:10329000D60180915401909155010196909355016A
:1032A000809354018091540190915501FC018081DB
:1032B000882319F41092580115C0809154019091FF
:1032C0005501FC018081882F90E0809788599F4F9D
:1032D0009B878A878A859B85FC0114911C878C8536
:1032E00080935801C8C08091580188230CF062C0B7
:1032F0002091890130918A01C901880F991F820F9D
:10330000931F9C0140E050E080917E0190917F01ED
:10331000A0918001B0918101820F931FA41FB51F5E
:103320008093E4019093E501A093E601B093E70157
:1033300083E08093D60180917E0190917F01A091DE
:103340008001B09181010196A11DB11D8093BE0144
:103350009093BF01A093C001B093C1018091E4019B
:103360009091E501A091E601B091E70180930102FF
:1033700090930202A0930302B093040280917E0115
:1033800090917F01A0918001B09181018093FB0118
:103390009093FC01A093FD01B093FE018FEF9FEF8E
:1033A000DC018093E8019093E901A093EA01B093D6
:1033B000EB015CC08091890190918A019C0140E001
:1033C00050E080917E0190917F01A0918001B091A9
:1033D0008101820F931FA41FB51F8093E401909376
:1033E000E501A093E601B093E70182E08093D60166
:1033F00080917E0190917F01A0918001B091810127
:103400000196A11DB11D8093BE019093BF01A093B1
:10341000C001B093C1018091E4019091E501A091B8
:10342000E601B091E7018093010290930202A0931C
:103430000302B093040280917E0190917F01A091DC
:103440008001B09181018093FB019093FC01A093D6
:10345000FD01B093FE018FEF9FEFDC018093E80147
:103460009093E901A093EA01B093EB018091580198
:10347000880F809358013DC08091FF019091000218
:1034800021E431E0B90141E050E00E94771C8091D5
:10349000FF01909100029093550180935401109286
:1034A000580180917E0190917F01A0918001B0919F
:1034B00081018093E8019093E901A093EA01B09320
:1034C000EB018091CE018093B801809188018093B7
:1034D000D6018091CA019091CB01A091CC01B0910D
:1034E000CD018093E4019093E501A093E601B093B0
:1034F000E7015EC020917E0130917F014091800103
:10350000509181018091E4019091E501A091E60143
:10351000B091E70182179307A407B507F0F48091F3
:10352000890190918A019C0140E050E080917E01E8
:1035300090917F01A0918001B0918101820F931F32
:10354000A41FB51F8093E4019093E501A093E601C9
:10355000B093E70184E08093D60181E0809352012B
:1035600081E08093500181E08093510121C020913E
:103570007E0130917F0140918001509181018091C5
:10358000E4019091E501A091E601B091E701821775
:103590009307A407B50718F481E08093D601109231
:1035A00052011092500181E08093510101C000004E
:1035B00001C000000C940C0E629FD001739FF001BB
:1035C000829FE00DF11D649FE00DF11D929FF00DB3
:1035D000839FF00D749FF00D659FF00D9927729FEA
:1035E000B00DE11DF91F639FB00DE11DF91FBD0175
:1035F000CF0111240895AA1BBB1B51E107C0AA1FCC
:10360000BB1FA617B70710F0A61BB70B881F991F83
:103610005A95A9F780959095BC01CD01089597FB27
:10362000092E07260AD077FD04D0E5DF06D000205A
:103630001AF4709561957F4F0895F6F790958195EE
:103640009F4F0895A1E21A2EAA1BBB1BFD010DC0BE
:10365000AA1FBB1FEE1FFF1FA217B307E407F50742
:1036600020F0A21BB30BE40BF50B661F771F881F1E
:10367000991F1A9469F760957095809590959B01B4
:10368000AC01BD01CF010895CF93DF938230910546
:1036900010F482E090E0E0910902F0910A0240E02B
:1036A00050E020E030E026C0608171816817790722
:1036B000E0F06817790781F4828193812115310543
:1036C00031F0D90113969C938E9312972BC090934F
:1036D0000A028093090226C04115510519F06417AA
:1036E000750718F4AB01E901DF019F017281638165
:1036F000E72FF62F3097C1F64115510501F1481B10
:10370000590B4430510580F412968D919C9113977A
:10371000209719F09B838A8304C090930A028093B8
:103720000902FD01329646C0FD01E40FF51F8193A9
:1037300091934250504011965C934E933BC0209120
:103740000702309108022115310541F420914B0107
:1037500030914C01309308022093070220914D01D3
:1037600030914E012115310541F42DB73EB74091FE
:10377000490150914A01241B350BE0910702F09159
:103780000802E217F307A0F42E1B3F0B2817390796
:1037900078F0AC014E5F5F4F2417350748F04E0FAD
:1037A0005F1F50930802409307028193919302C0D8
:1037B000E0E0F0E0CF01DF91CF910895CF93DF9368
:1037C000009709F491C0FC01329713821282609134
:1037D000090270910A026115710581F4208131811D
:1037E000280F391F809107029091080282179307D2
:1037F00099F5F0930802E093070276C0DB0180E0C0
:1038000090E002C0CD01D901AE17BF0748F412966F
:103810002D913C91139721153105A1F7CD0121C0C0
:10382000B383A283EF01499159919E01240F351F63
:10383000A217B30779F42D913C911197240F351FEE
:103840002E5F3F4F3183208312962D913C91139729
:1038500033832283009729F4F0930A02E09309024C
:1038600043C0DC011396FC93EE9312974D915D914A
:10387000A40FB51FEA17FB0769F420813181240FDB
:10388000351F2E5F3F4FEC0139832883228133811E
:103890003B832A83E0E0F0E002C0FB01BC01DB01D6
:1038A00012968D919C9113970097B9F79B012E5F0B
:1038B0003F4F8D919C911197820F931F409107026A
:1038C000509108024817590779F4309729F410925B
:1038D0000A021092090202C0138212822250304062
:1038E0003093080220930702DF91CF910895FB01E6
:1038F000DC0102C001900D9241505040D8F708956C
:10390000DC0101C06D9341505040E0F70895FB0188
:10391000DC0101900D920020E1F70895DC016C912B
:1039200061566A3108F0605E6F5B6D93C1F7089570
:10393000AEE0B0E0EEE9FCE10C94761F0D891E8943
:1039400086E08C831A8309838FEF9FE79E838D83A4
:103950009E01275E3F4FCE0101966F89788DA901A8
:103960000E94BB1CEF81F885E00FF11F10822E969C
:10397000E4E00C94921FACE0B0E0E1ECFCE10C94CC
:10398000681F6C011B018A01FC011782168283816A
:1039900081FFD1C12E010894411C511CF601938175
:1039A000F10193FD859193FF81911F01882309F413
:1039B000BEC1853239F493FD859193FF81911F013A
:1039C000853229F490E0B6010E94DE1EE7CFEE2496
:1039D000FF2420E02032B0F48B3269F08C3228F4DE
:1039E000803251F0833271F40BC08D3239F0803364
:1039F00049F421602CC02260246029C0286027C0BF
:103A0000206125C027FD2CC0382F30533A3098F460
:103A100026FF08C08E2D880FE82EEE0CEE0CE80E67
:103A2000E30E15C08F2D880FF82EFF0CFF0CF80E3B
:103A3000F30E20620CC08E3221F426FD78C1206482
:103A400006C08C3611F4206802C0883649F4F101B2
:103A500093FD859193FF81911F01882309F0BACFCF
:103A6000982F9554933018F09052933028F40C5FAF
:103A70001F4FFFE3F9830DC0833631F0833771F0B8
:103A8000833509F060C022C0F801808189830E5F10
:103A90001F4F420171E0A72EB12C16C062E0662EC6
:103AA000712C600E711EF8018080918026FF03C08A
:103AB0006E2D70E002C06FEF7FEFC4012C870E9473
:103AC000D31E5C0183012C852F7717C052E0652E31
:103AD000712C600E711EF8018080918026FF03C05A
:103AE0006E2D70E002C06FEF7FEFC4012C870E9443
:103AF000C81E5C012C852068830123FD20C008C0FE
:103B000080E290E0B6012C870E94DE1EFA942C859C
:103B10008F2D90E0A816B90698F311C0F40127FD87
:103B2000859127FF81914F0190E0B6012C870E947B
:103B3000DE1E2C85F110FA940894A108B108A11496
:103B4000B10461F7F1C0843611F0893649F527FFD9
:103B500008C0F80160817181828193810C5F1F4FE1
:103B600009C0F80160817181882777FD8095982FC1
:103B70000E5F1F4F4FE6B42EB22297FF09C09095FB
:103B80008095709561957F4F8F4F9F4FF0E8BF2ACA
:103B9000A2012AE030E00E940A1F782E741845C066
:103BA000853731F43FEEB32EB2222AE030E025C053
:103BB00099EFB92EB2228F36C1F0803720F48835C4
:103BC00009F0B5C00DC0803721F0883709F0AFC0CB
:103BD00002C020E1B22AB4FE0BC084E0B82A08C0BB
:103BE000B4FE09C0E6E0BE2A06C028E030E005C009
:103BF00020E130E002C020E132E0B7FE08C0F80169
:103C000060817181828193810C5F1F4F07C0F80131
:103C10006081718180E090E00E5F1F4FA2010E94E1
:103C20000A1F782E7418FFE7BF22B6FE0BC02EEFD6
:103C3000B2227E1438F4B4FE07C0B2FC05C08FEE89
:103C4000B82202C0A72C01C0AE2C8B2D90E0B4FE90
:103C50000DC0FE01E70DF11D2081203319F4E9EEBE
:103C6000BE2209C0A394B2FE06C004C0867890703C
:103C7000009709F0A3948B2C9924B3FC14C0B0FED8
:103C80000FC0AF1428F4E72CEF0CEA18AF2C08C0D3
:103C9000E72C06C080E290E0B6010E94DE1EA394ED
:103CA000AF14C0F304C0AF1410F4FA1801C0FF241D
:103CB00084FE0FC080E390E0B6010E94DE1E82FE0B
:103CC0001FC081FE03C088E590E010C088E790E047
:103CD0000DC0C40186789070009791F081FC02C0FD
:103CE00080E201C08BE2B7FC8DE290E0B6010E9459
:103CF000DE1E06C080E390E0B6010E94DE1EEA945C
:103D00007E14C0F37A94F201E70DF11D808190E0FA
:103D1000B6010E94DE1E7720A9F706C080E290E07F
:103D2000B6010E94DE1EFA94FF20C1F737CEF601DD
:103D30002681378102C02FEF3FEFC9012C96E2E1C7
:103D40000C94841FDC01CB01FC01F999FECF06C065
:103D5000F2BDE1BDF89A319600B40D924150504049
:103D6000B8F70895F999FECF92BD81BDF89A9927C9
:103D700080B50895262FF999FECF1FBA92BD81BD57
:103D800020BD0FB6F894FA9AF99A0FBE01960895DD
:103D9000FC010590615070400110D8F78095909516
:103DA0008E0F9F1F0895FC0161507040019001101B
:103DB000D8F7809590958E0F9F1F08950F931F93AE
:103DC000CF93DF938C01EB018B8181FF1BC082FFBE
:103DD0000DC02E813F818C819D812817390764F4A5
:103DE000E881F9810193F983E88306C0E885F985C4
:103DF000802F0995009731F48E819F8101969F83D2
:103E00008E8302C00FEF1FEFC801DF91CF911F918A
:103E10000F910895FA01AA27283051F1203181F13C
:103E2000E8946F936E7F6E5F7F4F8F4F9F4FAF4FC2
:103E3000B1E03ED0B4E03CD0670F781F891F9A1FD5
:103E4000A11D680F791F8A1F911DA11D6A0F711D89
:103E5000811D911DA11D20D009F468943F912AE095
:103E6000269F11243019305D3193DEF6CF0108957D
:103E7000462F4770405D4193B3E00FD0C9F7F6CFAE
:103E8000462F4F70405D4A3318F0495D31FD405276
:103E9000419302D0A9F7EACFB4E0A695979587950C
:103EA00077956795BA95C9F70097610571050895EB
:103EB0009B01AC010A2E0694579547953795279597
:103EC000BA95C9F7620F731F841F951FA01D08952F
:103ED0002F923F924F925F926F927F928F929F921A
:103EE000AF92BF92CF92DF92EF92FF920F931F9308
:103EF000CF93DF93CDB7DEB7CA1BDB0B0FB6F894B9
:103F0000DEBF0FBECDBF09942A88398848885F84F8
:103F10006E847D848C849B84AA84B984C884DF8069
:103F2000EE80FD800C811B81AA81B981CE0FD11D4D
:103F30000FB6F894DEBF0FBECDBFED010895F89423
:023F4000FFCFB1
:103F4200535752564B00010C011901256452256446
:103F5200002D2531695225322E32690025316952F0
:103F620025322E32690025303275522530327500E5
:103F720053005400520058004F004C005500434378
:103F820000002564004B00490020000B02000000E5
:00000001FF
