:100000000C945A000C9477000C9477000C947700B1
:100010000C9477000C9477000C9477000C94760184
:100020000C9477000C9477000C9477000C94770074
:100030000C9477000C94B1000C9477000C9477002A
:100040000C9479000C9477000C9477000C94770052
:100050000C9477000C9477000C9477000C94770044
:100060000C9477000C947700FF80808080808080E3
:100070008080808080808094FC7C3C1C0C0484C444
:10008000E4F48080808C8032806088A890C028D082
:10009000082078B048E0A0F068D85010C030187040
:1000A00098B8C80009254F80B0DAF6FFF6DAB080BC
:1000B0004F25090011241FBECFEFD4E0DEBFCDBF16
:1000C00011E0A0E0B1E0E2EBF5E102C005900D9295
:1000D000A631B107D9F711E0A6E1B1E001C01D9248
:1000E000AF35B107E1F70E94B3020C94D70A0C9424
:1000F00000001F920F920FB60F9211248F93EF936F
:10010000FF93809116018130E1F480912A018F5F85
:1001100080932A0181508530E0F0E0914501EF5F46
:10012000E0934501E150F0E0ED55FF4FE491E7BD6C
:1001300080914501803110F01092450110922A0102
:1001400008C010922A0187B5882319F087B581501D
:1001500087BDFF91EF918F910F900FBE0F901F9071
:1001600018951F920F920FB60F9211248F939F93A1
:1001700080912B0190912C01019690932C018093FA
:100180002B019F918F910F900FBE0F901F9018958C
:10019000682F80EB94E070E00E94D60670933701E0
:1001A000609336010895F894E1E6F0E080E88083FA
:1001B000108283E884BD91E095BDEEE6F0E0808199
:1001C000816080831092800087E08093810090930B
:1001D0006F0082E08093B00084E08093B100E0E79C
:1001E000F0E080818260808389EF8093B300EAE74A
:1001F000F0E080818468808380E680937C00569A5A
:100200003D9A3C9A53985B9A54985C9A52985A9AA1
:10021000109235011092440110923D01109231016B
:100220001092320110923301109234018CE08093CD
:100230004D010E94C800789408954B990AC080919E
:100240002901853018F48F5F8093290110922701CE
:1002500009C080912701853018F48F5F80932701B2
:10026000109229014C990AC080912801853018F418
:100270008F5F809328011092260109C0809126018A
:10028000853018F48F5F80932601109228014A99D7
:1002900006C0809125018F5F8093250102C01092D6
:1002A000250180912901853018F081E080934A0171
:1002B00080912701853010F010924A018091280129
:1002C000853018F081E080934301809126018530CC
:1002D00010F01092430180912501853020F081E0DB
:1002E0008093500108951092500108951F920F922B
:1002F0000FB60F9211242F933F934F935F936F93F9
:100300007F938F939F93AF93BF93EF93FF93F89453
:1003100080914E0190914F01019690934F018093EF
:100320004E0180914E0190914F0184369105F0F17C
:1003300081E0809319012FB780918400909185000E
:1003400090934C0180934B012FBF10928500109227
:10035000840060912B0170912C0120914B01309110
:100360004C0180E090E0CB017727662740E050E029
:10037000620F731F841F951F2AE030E040E050E0B9
:100380000E94A3066E507C4F844B9F4F60933901AF
:1003900070933A0180933B0190933C0110924F017E
:1003A00010924E0110922C0110922B0120913101DC
:1003B00030913201409133015091340180915101CB
:1003C00090915201A0915301B0915401821793076B
:1003D000A407B507A8F42091310130913201409172
:1003E0003301509134018091460190914701A091D1
:1003F0004801B0914901281739074A075B0720F0E7
:1004000080911701813011F4459A01C0459880917F
:100410001801813061F52091310130913201409114
:100420003301509134018091570190915801A0916E
:100430005901B0915A01281739074A075B07B8F4E8
:1004400020913101309132014091330150913401BA
:1004500080913E0190913F01A0914001B0914101F6
:1004600082179307A407B50710F4449A01C0449873
:100470008091310190913201A0913301B09134010A
:100480000196A11DB11D8093310190933201A0937B
:100490003301B09334010E941D01FF91EF91BF9190
:1004A000AF919F918F917F916F915F914F913F910C
:1004B0002F910F900FBE0F901F9018950F931F93C1
:1004C0008C010E94F5078091550190915601B80169
:1004D0000E94EE07109244018091380180934201FE
:1004E00082E0809338011F910F9108950F931F931D
:1004F0008FE090E00E94E906182F092F2091390122
:1005000030913A0140913B0150913C018DB79EB72B
:1005100008970FB6F8949EBF0FBE8DBFEDB7FEB71C
:100520003196ADB7BEB711961C93018380E091E080
:100530009383828324833583468357830E94FF07F6
:100540008DB79EB708960FB6F8949EBF0FBE8DBFAD
:10055000812F902F0E945E02812F902F0E9496077C
:100560001F910F9108958F929F92AF92BF92CF9259
:10057000DF92EF92FF920F931F93CF93DF9389E265
:1005800090E00E94E906809355019093560164E043
:1005900071E00E94EE078091550190915601909371
:1005A0001B0180931A010E94D30010E00E941D01DC
:1005B0001F5F1F30D9F790914301913039F480913A
:1005C0004A01882319F49093380102C0109238012F
:1005D00085E091E00E945E02DD24D39422E0C22EE9
:1005E00093E0B92EEE24EA94FE2C870184E0A82E35
:1005F000B7E09B2EA6E08A2EF894409131015091ED
:1006000032016091330170913401789480916400DB
:1006100081608093640080916400846080936400B2
:10062000809164008068809364008091640082609F
:100630008093640083B7817F83BF83B7816083BF6A
:10064000889583B78E7F83BF80913801813031F0E8
:10065000813008F484C0823079F637C240931D019E
:1006600050931E0160931F017093200190914401EB
:10067000963081F1973009F45BC0992309F01DC2CF
:1006800010921801109216011092170180914A01E0
:10069000813009F061C04F5F5F4F6F4F7F4F4093D4
:1006A0003E0150933F016093400170934101E092FD
:1006B0005701F09258010093590110935A01E092AA
:1006C0002101F092220100932301109324018092D2
:1006D0004401F3C1809318018093160180931701A0
:1006E00080914A018823D9F4909244014C595F4F7C
:1006F0006F4F7F4F4093210150932201609323015C
:10070000709324014456504060407040409357011C
:10071000509358016093590170935A01CEC1E092F1
:100720005701F09258010093590110935A01C5C125
:1007300010921801109216018093170180912101E7
:1007400090912201A0912301B091240148175907EB
:100750006A077B0708F4B1C110924401AEC140930F
:100760001D0150931E0160931F0170932001209181
:100770004401213009F490C0213038F0223009F4CE
:10078000CFC0233009F099C111C190914A01913035
:1007900059F480914301882339F4109235019093E4
:1007A000440110923D0162C080914301813009F003
:1007B0004BC080914A01882309F046C01092350150
:1007C000C092440110923D012091360130913701D1
:1007D000C901880F991F820F931FA0E0B0E0840F1A
:1007E000951FA61FB71F8093210190932201A0930C
:1007F0002301B09324014F5F5F4F6F4F7F4F4093B2
:100800003E0150933F01609340017093410141507C
:100810005040604070408093570190935801A093DE
:100820005901B0935A014093510150935201609382
:10083000530170935401E0924601F09247010093F6
:1008400048011093490121C080914A01813099F4F7
:1008500090914301913079F480913D01882359F4BE
:100860001092350190934401C0923D018091360170
:1008700090913701B2CF10924401409321015093DF
:1008800022016093230170932401109218011092A9
:1008900016011092170111C180912101909122013E
:1008A000A0912301B091240184179507A607B707EB
:1008B00050F520933501B09244018091360190911A
:1008C0003701A0E0B0E0840F951FA61FB71F8093EB
:1008D000210190932201A0932301B093240140931E
:1008E00051015093520160935301709354018C59FC
:1008F0009F4FAF4FBF4F8093460190934701A09306
:100900004801B093490180914301813009F049C009
:1009100080913D01882309F044C0C0923D0141C04F
:100920008091210190912201A0912301B091240195
:1009300084179507A607B70750F520933501B092A5
:1009400044018091360190913701A0E0B0E0840F1E
:10095000951FA61FB71F8093210190932201A0939A
:100960002301B093240140935101509352016093AD
:100970005301709354018C599F4FAF4FBF4F8093D9
:10098000460190934701A0934801B093490190918B
:100990004A01913031F480913D01882311F4909304
:1009A0003D01D0921801D092160185C0809121019D
:1009B00090912201A0912301B09124018417950701
:1009C000A607B70708F056C080913D01813039F481
:1009D0008093440180913601909137010EC082309E
:1009E00009F042C0809344012091360130913701D3
:1009F000C901880F991F820F931FA0E0B0E0840FF8
:100A0000951FA61FB71F8093210190932201A093E9
:100A10002301B09324014F5F5F4F6F4F7F4F40938F
:100A20003E0150933F01609340017093410141505A
:100A30005040604070408093570190935801A093BC
:100A40005901B0935A014093510150935201609360
:100A5000530170935401E0924601F09247010093D4
:100A600048011093490102C010924401B09235012F
:100A700010923D0190914A01913059F480913501D5
:100A8000823039F480913D01882319F490933D011F
:100A90000EC080914301813051F480913501813045
:100AA00031F480913D01882311F4C0923D011092F0
:100AB000180110921601D0921701809150018130D7
:100AC00009F09ACD0E94760297CD40931D01509374
:100AD0001E0160931F0170932001809144018330B7
:100AE00020F4813008F0A3C004C0863008F084CD23
:100AF000C4C0C0911A01D0911B01209155013091C1
:100B00005601C217D30759F480911C01882339F488
:100B1000E881F0E0E85BFF4FE491E0931C01E09195
:100B20001C01EE2309F46DC0E03819F0EF3FC1F568
:100B30000AC02091360130913701C901880F991FF1
:100B4000820F931F0CC02091360130913701C901EB
:100B5000A3E0880F991FAA95E1F7821B930BA0E0F1
:100B6000B0E0480F591F6A1F7B1F4093210150932B
:100B700022016093230170932401A09244012196E5
:100B8000D0931B01C0931A012197E981EE2319F438
:100B900010921C0131CDF0E0E85BFF4FE4912EC0D4
:100BA0002091360130913701E7FF16C0C901880F47
:100BB000991F820F931FA0E0B0E0480F591F6A1FD2
:100BC0007B1F409321015093220160932301709376
:100BD0002401C092440111C0C901A0E0B0E0480F57
:100BE000591F6A1F7B1F409321015093220160937C
:100BF000230170932401D0924401EE0FE0931C0175
:100C0000FBCCC90164E071E00E94EE0780915501C0
:100C10009091560190931B0180931A0110921C0130
:100C2000809142018093380110924401E5CC80917B
:100C3000210190912201A0912301B09124018417F8
:100C40009507A607B707A0F4809136019091370168
:100C5000A0E0B0E0480F591F6A1F7B1F409321019D
:100C6000509322016093230170932401B0924401B8
:100C700010921801D092160113C080912101909119
:100C80002201A0912301B091240184179507A607A2
:100C9000B70710F410924401109218011092160137
:100CA000D0921701A9CC0F931F938AE090E00E9485
:100CB000E906182F092F80917A00806480937A00CA
:100CC00080917A0086FDFCCF209179008DE9289FE4
:100CD000900111248DB79EB708970FB6F8949EBF68
:100CE0000FBE8DBFEDB7FEB73196ADB7BEB711964B
:100CF0001C9301838AE091E093838283832F90E0A9
:100D00006AE070E00E94C20675836483832F90E0DE
:100D10006AE070E00E94C206978386830E94FF0704
:100D20008DB79EB708960FB6F8949EBF0FBE8DBFC5
:100D3000812F902F0E945E02812F902F0E94960794
:100D40001F910F910895629FD001739FF001829FC0
:100D5000E00DF11D649FE00DF11D929FF00D839F4A
:100D6000F00D749FF00D659FF00D9927729FB00DE7
:100D7000E11DF91F639FB00DE11DF91FBD01CF01FA
:100D800011240895AA1BBB1B51E107C0AA1FBB1F5A
:100D9000A617B70710F0A61BB70B881F991F5A9507
:100DA000A9F780959095BC01CD01089597FB092E78
:100DB00007260AD077FD04D0E5DF06D000201AF41C
:100DC000709561957F4F0895F6F7909581959F4FA7
:100DD0000895CF93DF93BC018230910510F462E057
:100DE00070E0A0915D01B0915E01ED01E0E0F0E006
:100DF00040E050E021C0888199818617970769F407
:100E00008A819B81309719F09383828304C09093E9
:100E10005E0180935D01FE0134C06817790738F4E4
:100E20004115510519F08417950708F4AC01FE012E
:100E30008A819B819C01E9012097E9F641155105C2
:100E4000A9F1CA01861B970B049708F4BA01E0E0E8
:100E5000F0E02AC08D919C91119784179507F9F4C1
:100E60006417750781F412968D919C9113973097B2
:100E700019F09383828304C090935E0180935D0197
:100E8000FD0132964FC0CA01861B970BFD01E80F8A
:100E9000F91F6193719302978D939C9343C0FD0159
:100EA000828193819C01D9011097A1F680915B0109
:100EB00090915C01892B41F4809112019091130172
:100EC00090935C0180935B01409114015091150156
:100ED0004115510541F44DB75EB7809110019091D5
:100EE0001101481B590B20915B0130915C012417C3
:100EF0003507B0F4CA01821B930B8617970780F061
:100F0000AB014E5F5F4F8417950750F0420F531FA0
:100F100050935C0140935B01F9016193719302C0AE
:100F2000E0E0F0E0CF01DF91CF910895CF93DF9320
:100F3000009709F450C0EC0122971B821A82A091FD
:100F40005D01B0915E01109709F140E050E0AC17EF
:100F5000BD0708F1BB83AA83FE0121913191E20F05
:100F6000F31FAE17BF0779F48D919C911197280F4D
:100F7000391F2E5F3F4F3983288312968D919C91A4
:100F800013979B838A834115510571F4D0935E01B9
:100F9000C0935D0120C012968D919C911397AD0175
:100FA000009711F0DC01D3CFFA01D383C2832191E2
:100FB0003191E20FF31FCE17DF0769F48881998121
:100FC000280F391F2E5F3F4FFA01318320838A811A
:100FD0009B8193838283DF91CF910895FB01DC0194
:100FE00001900D920020E1F70895DC016C916156AB
:100FF0006A3108F0605E6F5B6D93C1F70895AEE0F3
:10100000B0E0E5E0F8E00C94AE0A0D891E8986E0B8
:101010008C831A8309838FEF9FE79E838D839E01C4
:10102000275E3F4FCE0101966F89788DA9010E94FE
:1010300023082F813885020F131FF80110822E9686
:10104000E4E00C94CA0AABE0B0E0E9E2F8E00C940A
:10105000A00A3C012B015A01FC01178216828381F0
:1010600081FD03C06FEF7FEFC6C19AE0892E1E019C
:101070000894211C311CF3012381F20123FD859189
:1010800023FF81912F01882309F4B2C1853239F4FD
:1010900023FD859123FF81912F01853229F490E072
:1010A000B3010E94160AE7CF982FFF24EE2499245B
:1010B000FFE1FF15D0F09B3269F09C3228F49032AA
:1010C00059F0933291F40EC09D3249F0903369F497
:1010D00041E024C052E0F52A84E0F82A28C098E0D4
:1010E000F92A25C0E0E1FE2A22C0F7FC29C0892F99
:1010F00080538A3070F4F6FE05C0989C902C112421
:10110000980E15C0E89CE02C1124E80EF0E2FF2AAE
:101110000EC09E3229F4F6FC6BC140E4F42A07C0ED
:101120009C3619F450E8F52A02C0983649F4F201C9
:1011300023FD959123FF91912F01992309F0B8CFB9
:10114000892F8554833018F08052833038F444E07E
:1011500050E0A40EB51E5FE359830FC0933631F003
:10116000933779F0933509F056C020C0F50180819E
:10117000898342E050E0A40EB51E610101E010E059
:1011800012C0F501C080D180F6FC03C06FEF7FEF85
:1011900002C0692D70E042E050E0A40EB51EC60109
:1011A0000E940B0A8C015FE7F52214C0F501C08094
:1011B000D180F6FC03C06FEF7FEF02C0692D70E0B5
:1011C00042E050E0A40EB51EC6010E94000A8C0148
:1011D00050E8F52AF3FE07C01AC080E290E0B301A0
:1011E0000E94160AEA948E2D90E008171907A8F3BA
:1011F0000EC0F601F7FC8591F7FE81916F0190E03A
:10120000B3010E94160AE110EA9401501040011542
:10121000110579F7EAC0943611F0993669F5F7FEB1
:1012200008C0F501208131814281538184E090E042
:101230000AC0F501808191819C01442737FD4095CA
:10124000542F82E090E0A80EB91E9FE6F92257FFC6
:1012500009C050954095309521953F4F4F4F5F4FB6
:10126000E0E8FE2ACA01B901A1012AE030E00E94AB
:10127000420AD82ED21840C0953729F41F2D1F7E60
:101280002AE030E01DC01F2D197F9F3661F0903796
:1012900020F4983509F0ACC00FC0903739F098377A
:1012A00009F0A6C004C028E030E00AC0106114FDB7
:1012B000146020E130E004C014FD166020E132E04B
:1012C00017FF08C0F501608171818281938144E03C
:1012D00050E008C0F50180819181BC0180E090E080
:1012E00042E050E0A40EB51EA1010E94420AD82E91
:1012F000D2188FE7F82EF122F6FE0BC05EEFF52232
:10130000D91438F4F4FE07C0F2FC05C08FEEF822C1
:1013100002C01D2D01C0192DF4FE0DC0FE01ED0D02
:10132000F11D8081803319F499EEF92208C01F5F06
:10133000F2FE05C003C08F2D867809F01F5F0F2DC8
:10134000F3FC14C0F0FE0FC01E1510F09D2C0BC056
:101350009D2C9E0C911A1E2D06C080E290E0B301D8
:101360000E94160A1F5F1E15C0F304C01E1510F45C
:10137000E11A01C0EE2404FF0FC080E390E0B30146
:101380000E94160A02FF1DC001FD03C088E790E01D
:101390000EC088E590E00BC0802F867891F001FFA9
:1013A00002C08BE201C080E2F7FC8DE290E0B30165
:1013B0000E94160A06C080E390E0B3010E94160A5C
:1013C0009A94D914C0F3DA94F101ED0DF11D8081E6
:1013D00090E0B3010E94160ADD20A9F706C080E262
:1013E00090E0B3010E94160AEA94EE20C1F743CEC2
:1013F000F30166817781CB012B96E2E10C94BC0A64
:10140000FC010590615070400110D8F780959095CF
:101410008E0F9F1F0895FC016150704001900110D4
:10142000D8F7809590958E0F9F1F08950F931F9367
:10143000CF93DF938C01EB018B8181FF1BC082FF77
:101440000DC02E813F818C819D812817390764F45E
:10145000E881F9810193F983E88306C0E885F9857D
:10146000802F0995892B31F48E819F8101969F836E
:101470008E8302C00FEF1FEFC801DF91CF911F9144
:101480000F910895FA01AA27283051F1203181F1F6
:10149000E8946F936E7F6E5F7F4F8F4F9F4FAF4F7C
:1014A000B1E03ED0B4E03CD0670F781F891F9A1F8F
:1014B000A11D680F791F8A1F911DA11D6A0F711D43
:1014C000811D911DA11D20D009F468943F912AE04F
:1014D000269F11243019305D3193DEF6CF01089537
:1014E000462F4770405D4193B3E00FD0C9F7F6CF68
:1014F000462F4F70405D4A3318F0495D31FD405230
:10150000419302D0A9F7EACFB4E0A69597958795C5
:1015100077956795BA95C9F70097610571050895A4
:101520009B01AC010A2E0694579547953795279550
:10153000BA95C9F7620F731F841F951FA01D0895E8
:101540002F923F924F925F926F927F928F929F92D3
:10155000AF92BF92CF92DF92EF92FF920F931F93C1
:10156000CF93DF93CDB7DEB7CA1BDB0B0FB6F89472
:10157000DEBF0FBECDBF09942A88398848885F84B2
:101580006E847D848C849B84AA84B984C884DF8023
:10159000EE80FD800C811B81AA81B981CE0FD11D07
:1015A0000FB6F894DEBF0FBECDBFED010895F894DD
:0215B000FFCF6B
:1015B200256C7500004E5437530025645225640093
:0615C20020005F010000A3
:00000001FF
